:100000000C946F090C9497090C9497090C94970918
:100010000C9497090C9497090C9497090C949709E0
:100020000C9497090C9497090C94FB1F0C946D2069
:100030000C9497090C9497090C9497090C949709C0
:100040000C9497090C9497090C9497090C949709B0
:100050000C9497090C9497090C9497090C944126D9
:100060000C9497090C9497090C9497090C94970990
:100070000C9497090C9497090C9497090C94970980
:100080000C9497090C9497090C9497090C94970970
:100090000C9497090C9497090C9497090C94970960
:1000A0000C9497090C9497090C94970931233423E5
:1000B000232327232D2355235523552338233C233E
:1000C000402346234A2355235023312E35005061C7
:1000D0007373776F72643F00436C65617220616C6B
:1000E0006C3F0044454C210050617373004E616DBC
:1000F000650053686F770053617665206368616EB1
:100100006765733F0044656C657465207265636F55
:1001100072643F00434C5221005061737300545489
:100120005900555342004E657700527074000A3EE4
:10013000003A20000A526563000A3F2C4D6F766535
:100140003A552C752C442C642C5365744D61696EA2
:10015000506173733A572C4164645265633A412C81
:1001600044656C5265633A452C53657420436D6E4B
:10017000743A432C4E616D653A4E2C506173733A5C
:10018000502C56616C3A312D390053746F70003128
:100190002E350005010906A1018502050719E02990
:1001A000E715002501750195088102950175088103
:1001B0000395067508150025650507190029658151
:1001C00000C001060C00FE070135026B207FFE0A0D
:1001D000FE08FE0C0060221767808080808000800F
:1001E000173363A0A0A002566650F85050F8500193
:1001F00059692070A8A07028A87020025767C8C845
:10020000102040989802576740A0A040A890682707
:100210001363808080113969204040808080404095
:1002200020113969804040202020404080025767DB
:1002300020A8702070A8200355652020F8202001F8
:1002400033636060C0055161F8122262C0C002577A
:10025000670810102040408012476760909090908F
:10026000906012376740C040404040E002576770DE
:100270008808102040F8025767F808103008887086
:1002800002576710305090F81010025767F880F04E
:1002900008088870025767304080F08888700257DD
:1002A00067F808101020202002576770888870882F
:1002B000887002576770888878081060122565C0BA
:1002C000C000C0C00136666060006060C013356564
:1002D0002040804020045363F800F81335658040C7
:1002E0002040800257677088102020002002576746
:1002F0007088B8A8B88070025767708888F88888B6
:1003000088025767F04848704848F002576770887D
:100310008080808870025767F04848484848F0025B
:100320005767F88080F08080F8025767F88080F087
:100330008080800257677088808098887002576735
:10034000888888F8888888123767E04040404040B5
:10035000E0025767381010101090600257678890BD
:10036000A0C0A09088025767808080808080F802BB
:10037000576788D8A8888888880257678888C8A857
:1003800098888802576770888888888870025767BD
:10039000F08888F080808002576770888888A890ED
:1003A00068025767F08888F0A090880257677088C5
:1003B0008070088870025767F820202020202002D3
:1003C00057678888888888887002576788888888EF
:1003D00050502002576788888888A8A8500257671D
:1003E00088885020508888025767888850202020AD
:1003F00020025767F80810204080F8113969E08022
:10040000808080808080E00257678040402010100C
:1004100008113969E020202020202020E0075363C4
:10042000205088005161F8173363804020025565E1
:1004300070087888780257678080F0888888F00292
:1004400055657088808870025767080878888888A2
:10045000780255657088F08070025767304840E038
:100460004040400057677088888878087002576756
:100470008080F0888888881237674000C0404040FC
:10048000E01049691000301010101090600257679A
:1004900080808890E09088123767C040404040409C
:1004A000E0025565D0A8A8A8A8025565B0C88888FC
:1004B000880255657088888870005767F08888883A
:1004C000F08080005767788888887808080255652A
:1004D000B0C880808002556578807008F002576748
:1004E0002020F82020201802556588888898680206
:1004F000556588888850200255658888A8A85002CC
:10050000556588502050880057678888885020405B
:1005100080025565F8102040F811396920404040AC
:1005200080404040202119698080808080808080C8
:10053000801139698040404020404040800453632E
:1005400048A890FFFFE0FFD1AFFF32FFD0FFFEFFD2
:10055000E0FFD1AEFFD0FFFEFFE0FFD11000FFFEB5
:10056000FFD0FFE0FFC1FFD1AED580A81FD3004070
:100570008D142002A1C8DA0281CFD9F1DB402EA46C
:10058000A6AFFFD0FFFE00000000000000002A2BF5
:100590002800000000000000000000000000000033
:1005A0000000000000002C9EB4A0A1A2A434A6A7C5
:1005B000A5AE362D3738271E1F20212223242526BD
:1005C000B333B62EB7B89F8485868788898A8B8C8B
:1005D0008D8E8F909192939495969798999A9B9CD3
:1005E0009D2F3130A3AD350405060708090A0B0C11
:1005F0000D0E0F101112131415161718191A1B1CB3
:100600001DAFB1B0B500080B0002020201000904E1
:100610000000010202000005240010010524010170
:1006200001042402060524060001070581031000C9
:100630004009040100020A00000007050202400010
:1006400000070583024000000403090412010002B0
:10065000EF02014041233680000101020301417293
:100660006475696E6F204C4C430041726475696E0D
:100670006F204C656F6E6172646F004E6F0059653C
:10068000730000091200FC0A01F203E120FFFD0ED5
:10069000FC0BFD00000009000E020B0B090300C05B
:1006A000C0C0C0C0C0C00000C0C00504040902072B
:1006B000D8D8D8D8070A0A0901006C6C6CFE6C6C9B
:1006C000FE6C6C6C080B0B0900FF187EDBD8783CC5
:1006D0001E1BDB7E18080A0A09000073DEDE6C1898
:1006E00018367B7BCE080A0A09000070D8D8D8706B
:1006F00073DECCDE73020404090307C0C0C0C0046B
:100700000C0C0902FF306060C0C0C0C0C0C0606097
:1007100030040C0C0902FFC06060303030303030E3
:100720006060C008070709000118DB7E3C7EDB180B
:10073000080707090001181818FF181818030404FF
:100740000903FEE0E060C0070101090104FE0302A5
:1007500002090300E0E0080A0A0900000306060C8B
:100760001818306060C0070A0A090100386CC6C654
:10077000C6C6C6C66C38080A0A090000183878D8F8
:100780001818181818FF070A0A090100386CC6065D
:10079000060C183060FE070A0A090100FE060C1854
:1007A000380C0606CC78070A0A0901000C1C3C6CC0
:1007B000CCCCFE0C0C0C070A0A090100FEC0C0C01C
:1007C000F80C0606CC78070A0A0901003C60C0C094
:1007D000F8CCC6C66C38070A0A090100FE060C0CE4
:1007E000181830303030070A0A090100386CC66C1E
:1007F000386CC6C66C38070A0A090100386CC6C6D0
:100800006E3E06060C78030707090300E0E00000CF
:1008100000E0E00309090903FEE0E0000000E0E079
:1008200060C00609090901000C183060C06030186A
:100830000C070404090102FE0000FE060909090173
:1008400000C06030180C183060C0070A0A090100A7
:10085000386CC6060C1830300030090A1409000044
:100860003E006300CD80D580D580D580D580CF0077
:1008700060003E00070A0A090100103838386C7C15
:100880006CC6C6C6070A0A090100FCC6C6C6FCC675
:10089000C6C6C6FC070A0A0901003C66C0C0C0C043
:1008A000C0C0663C070A0A090100F8CCC6C6C6C625
:1008B000C6C6CCF8070A0A090100FEC0C0C0F8C0CD
:1008C000C0C0C0FE070A0A090100FEC0C0C0F8C0CF
:1008D000C0C0C0C0070A0A090100386CC6C0C0CE3B
:1008E000C6C66C38070A0A090100C6C6C6C6FEC6D7
:1008F000C6C6C6C6060A0A090100FC3030303030D0
:10090000303030FC070A0A0901001E0C0C0C0C0CDC
:100910000CCCCC78070A0A090100C6CCD8F0E0F06C
:10092000D8CCC6C6070A0A090100C0C0C0C0C0C0F2
:10093000C0C0C0FE070A0A090100C6EEFED6C6C640
:10094000C6C6C6C6070A0A090100C6C6E6F6DECE56
:10095000C6C6C6C6070A0A0901007CC6C6C6C6C600
:10096000C6C6C67C070A0A090100F8CCC6C6CCF880
:10097000C0C0C0C0080B0B0901FF386CC6C6C6C694
:10098000C6DE6C3E03070A0A090100FCC6C6C6C6DD
:10099000FCD8CCC6C6070A0A0901007CC6C0C07CC8
:1009A000060606C67C060A0A090100FC3030303013
:1009B0003030303030070A0A090100C6C6C6C6C644
:1009C000C6C6C66C38070A0A090100C6C6C66C6CE2
:1009D0006C38383810070A0A090100C6C6C6C6D6E0
:1009E000D6D6FEEE44070A0A090100C6C66C3810C6
:1009F00010386CC6C6080A0A090000C3C3663C1852
:100A00001818181818070A0A090100FE06060C181B
:100A10003060C0C0FE050C0C0902FFF8C0C0C0C0A9
:100A2000C0C0C0C0C0C0F8080A0A090000C06060A9
:100A30003018180C060603040C0C0902FFF03030C5
:100A40003030303030303030F008040409000618FF
:100A50003C66C30801010900FFFF04030309020A01
:100A6000C060300707070901007C06067EC6C67E07
:100A7000070A0A090100C0C0C0FCC6C6C6C6C6FC3B
:100A80000707070901007CC6C0C0C0C67C070A0A68
:100A90000901000606067EC6C6C6C6C67E0707074B
:100AA0000901007CC6C6FEC0C67C060A0A09010010
:100AB000386C6C6060F060606060070A0A0901FDD4
:100AC0007ECCCCCC78C07CC6C67C070A0A09010063
:100AD000C0C0C0FCC6C6C6C6C6C6060A0A09010012
:100AE000303000F03030303030FC050D0D0902FDA3
:100AF00018180038181818181818D8D870070A0AC3
:100B0000090100C0C0C0CCD8F0F0D8CCC6060A0A93
:100B1000090100F03030303030303030FC08070749
:100B2000090000FEDBDBDBDBDBC307070709010095
:100B3000DCE6C6C6C6C6C6070707090100386CC68C
:100B4000C6C66C38070A0A0901FDF8CCC6C6C6CC71
:100B5000F8C0C0C0070A0A0901FD3E66C6C6C666DF
:100B60003E060606070707090100DC766060606044
:100B7000600707070901007CC6C07C06C67C070920
:100B8000090901003030FC30303030361C070707CF
:100B9000090100C6C6C6C6C6C67E0707070901000A
:100BA000C6C66C6C383810080707090000C3C3DBE1
:100BB000DBDBFF66070707090100C66C3810386CDD
:100BC000C6070A0A0901FDC6C66C6C6C383830B01D
:100BD00060060707090100FC0C183060C0FC060B1A
:100BE0000B0901003C60606060C0606060603C02B6
:100BF0000C0C0903FFC0C0C0C0C0C0C0C0C0C0C092
:100C0000C0060B0B090100E0303030301C303030B2
:100C100030E008030309000773DBCEFFFFFFFFFF8F
:100C2000FFFFFFFFFFFFFFFFFFFFFFFFFFFFFFFFD4
:100C3000FFFFFFFFFFFFFFFFFFFFFFFF00000009B7
:100C4000000E020A0A090400C000C0C0C0C0C0C033
:100C5000C0C0070808090100047CCED0D0E67C4063
:100C6000080A0A0900FF1E3330307C3030F8BFE03C
:100C7000070707090102C6FE6C446CFEC6080A0A93
:100C8000090000C3C3663C7E187E181818020B0BBF
:100C90000903FFC0C0C0C0C000C0C0C0C0C0060BB8
:100CA0000B0901FF78CCC078CCCCCC780CCC780583
:100CB000020209020BD8D8080B0B0900003C7EC3C6
:100CC000BDA5A1A5BDC37E3C05070709010370189A
:100CD00078D87800F80808080900011B366CD8D8C5
:100CE0006C361B070505090102FEFE060606060115
:100CF00001090104FC080B0B0900003C7EC3BDA5E3
:100D0000BDA9ADC37E3C060202090109FCFC050435
:100D10000409010870D8D8700609090901013030AA
:100D200030FC30303000FC05060609010470D8188C
:100D30003060F805060609010470D83018D8700430
:100D4000030309020A3060C00709090901FEC6C68B
:100D5000C6C6CEDEF6C0C0070A0A0901007EF6F656
:100D6000F6763636363636030202090304E0E0062C
:100D700003030901FD18CC7804060609010460E0AC
:100D8000606060F005070709010370D8D8D87000CB
:100D9000F8080808090001D86C361B1B366CD80807
:100DA0000B0B09000060E060606163F70F1B1F031D
:100DB000080B0B09000060E060606E73F3060C180E
:100DC0001F080B0B09000070981830199B770F1B38
:100DD0001F03070A0A090100181800183060C0C66E
:100DE000C67C070E0E090100603018001038383834
:100DF0006C7C6CC6C6C6070E0E0901000C183000CC
:100E0000103838386C7C6CC6C6C6070E0E09010057
:100E100010386C00103838386C7C6CC6C6C6070DAC
:100E20000D09010076DC00103838386C7C6CC6C6C1
:100E3000C6070D0D0901006C6C00103838386C7C49
:100E40006CC6C6C6070E0E090100386C6C38103827
:100E500038386C7C6CC6C6C6070A0A0901003E3CDD
:100E60006C6C6EFCCCCCCCCE070E0E0901FC3C6643
:100E7000C0C0C0C0C0C0663C180C6C38070E0E095C
:100E8000010060301800FEC0C0C0F8C0C0C0C0FE85
:100E9000070E0E0901000C183000FEC0C0C0F8C0DB
:100EA000C0C0C0FE070E0E09010010386C00FEC065
:100EB000C0C0F8C0C0C0C0FE070D0D0901006C6CB9
:100EC00000FEC0C0C0F8C0C0C0C0FE060E0E0901C2
:100ED0000060301800FC3030303030303030FC06EC
:100EE0000E0E0901000C183000FC3030303030306C
:100EF0003030FC060E0E09010010386C00FC30305A
:100F0000303030303030FC060D0D0901006C6C00C3
:100F1000FC3030303030303030FC080A0A09000034
:100F20007C666363F3636363667C070D0D090100F0
:100F300076DC00C6C6E6F6DECEC6C6C6C6070E0E10
:100F4000090100603018007CC6C6C6C6C6C6C6C643
:100F50007C070E0E0901000C1830007CC6C6C6C600
:100F6000C6C6C6C67C070E0E09010010386C007C90
:100F7000C6C6C6C6C6C6C6C67C070D0D0901007624
:100F8000DC007CC6C6C6C6C6C6C6C67C070D0D0933
:100F900001006C6C007CC6C6C6C6C6C6C6C67C0848
:100FA0000707090001C3663C183C66C3070C0C091F
:100FB00001FF067ECECEDEDEF6F6E6E6FCC0070ECC
:100FC0000E09010060301800C6C6C6C6C6C6C6C631
:100FD0006C38070E0E0901000C183000C6C6C6C6D4
:100FE000C6C6C6C66C38070E0E09010010386C0064
:100FF000C6C6C6C6C6C6C6C66C38070D0D090100F2
:101000006C6C00C6C6C6C6C6C6C6C66C38080E0E10
:101010000900000C183000C3C3663C1818181818D3
:1010200018070A0A090100C0C0FCC6C6C6FCC0C039
:10103000C0070A0A0901003C666666EC66666666D9
:101040006C070B0B090100603018007C06067EC699
:10105000C67E070B0B0901000C1830007C06067ECB
:10106000C6C67E070B0B09010010386C007C060613
:101070007EC6C67E070A0A09010076DC007C0606E9
:101080007EC6C67E070A0A0901006C6C007C060653
:101090007EC6C67E070B0B090100386C38007C0643
:1010A000067EC6C67E080707090000761B1B7FD890
:1010B000DB76070B0B0901FC7CC6C0C0C0C67C18E0
:1010C0000C6C38070B0B090100603018007CC6C699
:1010D000FEC0C67C070B0B0901000C1830007CC653
:1010E000C6FEC0C67C070B0B09010010386C007CE3
:1010F000C6C6FEC0C67C070A0A0901006C6C007CEB
:10110000C6C6FEC0C67C060B0B090100C0603000DD
:10111000F03030303030FC060B0B0901000C183079
:1011200000F03030303030FC060B0B09010020702D
:10113000D800F03030303030FC060A0A0901006C6B
:101140006C00F03030303030FC070B0B0901006CC4
:1011500038386C0C7EC6C6C6C67C070A0A09010070
:1011600076DC00DCE6C6C6C6C6C6070B0B09010066
:1011700060301800386CC6C6C66C38070B0B090106
:10118000000C183000386CC6C6C66C38070B0B094B
:10119000010010386C00386CC6C6C66C38070A0AE5
:1011A00009010076DC00386CC6C6C66C38070A0A2E
:1011B0000901006C6C00386CC6C6C66C380807079D
:1011C000090001181800FF0018180809090900FF94
:1011D000013F66CFDBF366FC80070B0B0901006063
:1011E000301800C6C6C6C6C6C67E070B0B0901006E
:1011F0000C183000C6C6C6C6C6C67E070B0B090152
:101200000010386C00C6C6C6C6C6C67E070A0A09E4
:1012100001006C6C00C6C6C6C6C6C67E070E0E09A7
:1012200001FD0C183000C6C66C6C6C383830B060EC
:10123000070B0B0901FEC0C0F8CCC6C6C6CCF8C06F
:10124000C0070D0D0901FD6C6C00C6C66C6C6C38D6
:101250003830B06000000000240027002A002D0074
:10126000300000000000250028002B002E00310077
:10127000000000002300260029002C002F00040499
:10128000040404030405020202020403020202022F
:101290000606060606060404020202040404080206
:1012A00001104080401020408040800802040180EE
:1012B0004020100201108010204040200000000259
:1012C00000090F0000030401000C000000000000F2
:1012D000000000000000000000000000AE27112404
:1012E0001FBECFEFDAE0DEBFCDBF11E0A0E0B1E07E
:1012F000E8E4FDE502C005900D92A03DB107D9F7E5
:1013000028E0A0EDB1E001C01D92AD30B207E1F7D9
:1013100019E0CFE6D9E004C02197FE010E94892B95
:10132000CE36D107C9F70E9420290C94A22E0C9426
:10133000000010927D06089581E080937D0685E28D
:1013400080937B06089583E280937B06089581E273
:1013500080937B06089510927C06089581E0809327
:101360007C0684E280937B06089582E280937B066C
:10137000089580E280937B060895089580E090E0D0
:1013800008958DE991E00C941F1881EA91E00C9486
:101390001F1880917B068232F9F028F4803259F0D0
:1013A000813289F008958432B9F008F452C0853250
:1013B00009F44FC0089580917E068F5F843048F015
:1013C00010927E06089580917E068150843008F048
:1013D00083E080937E06089510927F0680917E06BA
:1013E0008130B9F028F0823019F1833069F1089525
:1013F0001092780610928106109287061092860647
:10140000109285061092840665EC79E085ED91E1F5
:101410002DC01092810610928706109286061092B7
:1014200085061092840661EC79E086EA9BE01EC096
:1014300080E8ECE8F6E0DF011D928A95E9F764E5C3
:1014400071E18CE39EE012C069EB7EE08DED9DE0E2
:101450000DC080917706811105C062EB7FE085E2C7
:101460009FE004C065EB7EE085E99EE00C944314A8
:1014700080917B06833279F028F4813261F08232E8
:1014800031F00895843219F0853259F404C00E9475
:10149000AF18892B31F061EF7EE086E390E10C9488
:1014A0004314089580917B06843240F4823208F020
:1014B00067C0803249F08132C9F00895843261F109
:1014C000853209F44FC0089580917F0690E08758D7
:1014D0009D4FFC01ED5EFB4F20812F5F203220F0FD
:1014E0002F37A9F420EC13C020E211C080917F06B1
:1014F00090E087589D4FFC01ED5EFB4F208121500D
:10150000203220F02F3B19F42EE701C02FEFFC0111
:10151000ED5EFB4F208330C080917F068F33B0F5A6
:10152000ECE8F6E001900020E9F7AF014D58564095
:101530004F33510514F04FE350E090E0481B590B36
:10154000141615063CF4BC016457794F8357994F24
:101550000E94AA2BE0917F06F0E0E457F94F81E466
:1015600080830AC080917F0690E0BC016357794F69
:101570008457994F0E94C32B81E08093770608958A
:101580006CE870E187EC9AE00C9443140895EF92B4
:10159000FF920F931F93CF93DF9380917B0682324C
:1015A00009F44CC028F48032F1F08132A1F1C7C0B7
:1015B000843209F443C008F44DC0853209F0BFC03D
:1015C00010927F0680914D0790914E0790934C07A3
:1015D00080934B0780915107909152079093500749
:1015E00080934F07ACC020917F062F3308F0A7C02F
:1015F000822F90E087589D4FFC01ED5EFB4F3081BC
:10160000332321F02F5F20937F0699C0FC01EC5E0D
:10161000FB4F108294C080917F06815080937F069B
:10162000813408F48CC0ECE8F6E001900020E9F782
:10163000CF018D58964080937F0681C067E770E1A7
:1016400082E59AE0DF91CF911F910F91FF90EF908B
:101650000C94431410927F0661EF7EE086E390E1E4
:101660000E9443140091790610917A0680917E06BB
:1016700090E00196980127583D4F7901083E33E0EC
:10168000130730F5F7012589222311F1422F50E08D
:101690004817590729F02130D9F00F5F1F4FEACFC3
:1016A000B8016F5F7F4F683EF3E07F0789F0FB0171
:1016B000E758FD4F85898230A0F748EE53E0461B7E
:1016C000570B62577D4FC80182579D4F0E94A12B37
:1016D000CCE8D6E009900020E9F7CC58D640C80104
:1016E0008C0F9D1F893E934020F0C8EED3E0C01BB5
:1016F000D10B1C161D0674F4C8018C0F9D1F48EEFB
:1017000053E0481B590BB80162577D4F82579D4FDC
:101710000E94AA2B80917E068F5FF701858BAE0118
:10172000415051096CE876E0C80181579D4FDF9127
:10173000CF911F910F91FF90EF900C94A12BDF910F
:10174000CF911F910F91FF90EF9008952F923F92AC
:101750004F925F926F927F928F929F92AF92BF92C1
:10176000CF92DF92EF92FF920F931F93CF93DF936D
:10177000CDB7DEB7A3970FB6F894DEBF0FBECDBFCF
:101780005524539428EEA22E23E0B22E34E1432EAA
:101790004EE8242E42E0342E5AE0C52ED12CE12C06
:1017A000F12C0E947417181619060CF0EDC18CE884
:1017B00096E00E949718ECE8F6E001900020E9F727
:1017C000CF018D5896402091860630918706820F72
:1017D000931F909387068093860620917906309117
:1017E0007A0680918C06853409F497C074F48134AC
:1017F00009F458C0843409F46FC08F3309F0DCC099
:1018000089E391E00E94761835C1873509F488C0D4
:1018100044F4853509F0D0C010927A06109279060A
:1018200029C1843621F1853709F0C6C01216130686
:1018300034F42150310930937A062093790680914F
:10184000790690917A06382F292F181619062CF050
:1018500090937A06809379060DC10197FC01E758B1
:10186000FD4F4689413079F73093790653C0F9012D
:10187000E758FD4F8589882311F02F5F3F4F283EA1
:1018800043E034070CF0F6C0F901E758FD4F8589B5
:10189000882309F4EFC0813081F730937A062093D2
:1018A0007906E8C050927706F10101900020E9F72F
:1018B0008F010F581240093D53E015070CF0DAC0B4
:1018C00065EA71E0C80182579D4F0E94C32B1093B7
:1018D0007A0600937906CEC0F901E758FD4F858955
:1018E000882319F0C901019601C0C901422F232F95
:1018F000883EA3E09A0764F4FC01E758FD4F358960
:10190000332331F0313011F4482F292F0196F0CFD5
:101910004093790620937A06ADC00E94AF18AAC002
:1019200050927706EAE7F2E0242D11922A95E9F722
:1019300060917F0670E09AE7692E92E0792E41E08F
:1019400050E0461757070CF095C0FA01E457F94FDD
:101950009080FA0181E090E0092D10E03196E617C1
:10196000F7078CF49C01240F351F2457394FD901F8
:101970002C91022E000C330B0217130721F4019651
:101980008F30910559F7B5E59B1651F025E7921672
:1019900029F034E4931205C0806103C0806201C065
:1019A0008063D3018D933D01BEE86B16B2E07B06E8
:1019B00009F460C0AF01C5CF01E010E0F801EF5DB0
:1019C000FE4F9081981350C00130110511F02F5F28
:1019D0003F4F283EF3E03F070CF04CC0F901E758B9
:1019E000FD4F4F018589482F50E04017510719F0EE
:1019F000823068F718C0B9016F5F7F4F683EF3E02F
:101A00007F0731F0FB01E758FD4F85898A30A0F749
:101A100062577D4FC90182579D4F2BA33AA30E9465
:101A2000C32B3AA12BA15092770680917F0682307A
:101A300008F1A90142575D4F3A01D901A80FB11D24
:101A4000CD01A5014A1B5B0BB30182579D4F0E943C
:101A5000AA2B40917F0650E06CE876E0C3010E941B
:101A6000A12BF401058B06C00F5F1F4F0A30110533
:101A700009F0A4CF809186069091870607969093EF
:101A80008706809386060E94A81484E391E00E9452
:101A900076182091820630E040E050E019A28E01D5
:101AA0000F5D1F4FCA01B901A70196010E94672B64
:101AB000605DD8016E938D012115310541055105F9
:101AC00089F7CD010E94971881E391E00E94761872
:101AD0000091790610917A06812C912C083EB3E092
:101AE0001B070CF041C0F801E758FD4F2589222360
:101AF000D9F1213031F48928B9F588248394912CC7
:101B00000EC02A3000F56CE282ED91E02BA30E941A
:101B1000D92260E282ED91E00E94D9222BA1E22F2E
:101B2000F0E0EF5DFE4F608182ED91E00E94D922EE
:101B30006AE382ED91E00E94D9228091860690911D
:101B4000870602960AC0622F82ED91E00E94D92298
:101B500080918606909187060196909387068093E0
:101B600086060F5F1F4FBACF8EE291E00E94761873
:101B700080918606909187060296909387068093BF
:101B8000860610927F060DCEA3960FB6F894DEBFA0
:101B90000FBECDBFDF91CF911F910F91FF90EF90BE
:101BA000DF90CF90BF90AF909F908F907F906F907D
:101BB0005F904F903F902F90089580917B068332E5
:101BC00011F128F48132F9F0823231F00895843233
:101BD00019F0853241F517C083E994E0E9E7F2E0B6
:101BE000DF019C011D9221503040E1F70E941C173B
:101BF00080914B0790914C0790934E0780934D072F
:101C00008DE990E104C080914D0790914E0790932B
:101C10004C0780934B078091510790915207909306
:101C2000500780934F0708950E946F1497FF05C0D7
:101C30006DEB7EE089EC99E01CC0892BE1F044E17A
:101C400050E06CE876E08CEA96E00E94942B892BB9
:101C500079F781E08093770684E1ECE8F6E0AAE783
:101C6000B2E001900D928A95E1F765EB7EE085E99F
:101C70009EE00C94431408950E946F1497FF05C0D2
:101C80006DEB7EE089EC99E018C0892BC1F01092D1
:101C90007F0684E1ECE8F6E0ACEAB6E001900D9254
:101CA0008A95E1F784E1ECE8F6E0DF011D928A9580
:101CB000E9F768E471E184E19EE00C94431408952F
:101CC0000E946F14009781F197FF05C069EB7EE0D9
:101CD0008DED9DE027C044E150E06CE876E08AE7B6
:101CE00092E00E94942B892BC9F01092810680917A
:101CF0004B0790914C0790934E0780934D078DE9C9
:101D000090E190934C0780934B07809151079091FD
:101D100052079093500780934F07089562EB7FE03E
:101D200085E29FE00C944314089580917B068232F3
:101D300061F028F48032C1F0813271F409C084323C
:101D400021F030F0853241F403C00E941C1704C01A
:101D5000109277060E948A1F0E94A81462EB7FE00F
:101D600085E29FE00C944314089587EF90E00C9473
:101D70007B1F88ED90E00C947B1F4CE856E06EE0F2
:101D800081E00E947C1382EC91E00E94B01342E259
:101D900051E060E070E080E090E00E941D164EE1AE
:101DA00051E060E270E081E090E00E941D1649E1A0
:101DB00051E060E470E082E090E00E941D1644E192
:101DC00051E060E670E083E090E00C941D164CE872
:101DD00056E064E180E00E947C1385E091E00C9481
:101DE0007B1F40917F064E3020F050E04D5051094E
:101DF00002C040E050E04457594F6DE081E00E943E
:101E00007C1382EC91E00E94B01342EF50E060E05E
:101E100070E080E090E00E941D164DEE50E060E220
:101E200070E081E090E00E941D1648EE50E060E412
:101E300070E082E090E00E941D1643EE50E060E604
:101E400070E083E090E00C941D1680917B06823256
:101E500009F445C028F48032B9F0813221F14BC039
:101E60008432E9F1F0F1853209F045C010927E0626
:101E700080E8ECE8F6E0DF011D928A95E9F76DEB6A
:101E80007EE089EC99E035C08091790690917A06E0
:101E9000019797FD07C0FC01E758FD4F25892130C8
:101EA000B9F717C008958091790690917A06FC01E0
:101EB000E758FD4F2589222309F453C00196883E37
:101EC00023E0920758F4FC01E758FD4F25892230A2
:101ED000A8F790937A068093790638C008950C94F9
:101EE000CB141092770610927E0661EF7EE086E3B7
:101EF00090E10C94431410927A061092790620E037
:101F000030E040E050E090E0E0E0682F6F7070E07B
:101F100004C0922FE32F2F5F3F4F283EB3E03B07D3
:101F2000E1F0D901A758BD4F5596FC91FF2381F0F0
:101F3000F13089F74F5F5F4F4617570751F73093DE
:101F40007A062093790684FD0E94CB140C94A81481
:101F500090937906E0937A06F9CF30937A0620932E
:101F6000790608950F931F93CF93DF93CDB7DEB714
:101F700060970FB6F894DEBF0FBECDBF8091790693
:101F800090917A0620E8ECE8F6E0DF011D922A95B0
:101F9000E9F7FC01E758FD4F2589222341F101961D
:101FA00020E030E0883EB3E09B07E0F4FC01E75816
:101FB000FD4F6589462F50E0423051058CF04A3084
:101FC000510554F0203431054CF4F901E457F94F30
:101FD00060832F5F3F4F02C021E430E00196E2CFE3
:101FE000452B29F044E06EE189E70E94FD13109231
:101FF000AC064CE856E063E180E00E947C138091DF
:10200000790690917A06892B29F044E060E089E70F
:102010000E94FD1382EC91E00E94B0138091830630
:102020001F928F93809182061F928F938AEC91E08A
:102030009F938F938E010F5F1F4F1F930F930E94EB
:10204000CA2BA8016EE180E00E947C130FB6F894C1
:10205000DEBF0FBECDBF60960FB6F894DEBF0FBED9
:10206000CDBFDF91CF911F910F91089580917B0695
:102070008232F1F028F4803249F0813281F0089503
:102080008432B1F028F1853219F1089580917E06ED
:102090008F5F843050F010927E060C943A16809137
:1020A0007E068150843008F083E080937E06F5CF71
:1020B00080917E06833029F467EE7EE088E39AE023
:1020C00014C010927F066CE870E187EC9AE00DC0B6
:1020D00080917706811105C062EB7FE085E29FE089
:1020E00004C065EB7EE085E99EE00C94431480918A
:1020F000800684FF0FC080917F068E3010F08DE047
:1021000090E020E14BE060E099E0989F802D112461
:102110000E94E7150C94F10E80917F068E3010F02E
:102120008DE090E020E14BE060E099E0989F802D09
:1021300011240E94E7150C94F10E5D9A61E081E193
:102140000E94DF2410927F060E9435266093880645
:102150007093890680938A0690938B0680E8ECE85A
:10216000F6E0DF011D928A95E9F7EAE7F2E0819156
:10217000882329F069EC70E180E69EE008C0B2E0B7
:10218000EE38FB07A1F762EB7FE085E29FE00C945D
:1021900043148F929F92AF92BF92CF92DF92EF92B1
:1021A000FF920F931F93CF93DF93CDB7DEB7669760
:1021B0000FB6F894DEBF0FBECDBF4EEC50E06DE021
:1021C00084E10E941C1482EC91E00E94B0134AEC5E
:1021D00050E067E08EE60E941C143CE8A32E36E037
:1021E000B32ECE0101966C0111E04C01F5018191F5
:1021F0005F01982F9F709063F60191936F01882380
:1022000059F185FD03C02DE1F22E02C093E1F92EB4
:1022100084FF07C061E06F0D43E0812F0E94FD1332
:102220001BC0012F83E0E82EE10EE11610F40E2D05
:10223000E12EE01688F06091410270914202009315
:102240005B02F0925C022BE532E042E38FE392E026
:102250000E94851C0F5FEDCF1A5F193739F61D8A72
:10226000A4016CE180E00E947C1366960FB6F8949E
:10227000DEBF0FBECDBFDF91CF911F910F91FF90B9
:10228000EF90DF90CF90BF90AF909F908F90089588
:102290000E94C91082EC91E00E94B0134AE251E022
:1022A00067E080E00C941C140E94C91082EC91E05D
:1022B0000E94B01346E251E067E080E00C941C14E9
:1022C000CF92DF92EF92FF920F931F93CF93DF9302
:1022D0001F92CDB7DEB76C01DC01DC961C91DC9758
:1022E000DB960C917C01B4E0EB0EF11CDC015996FD
:1022F000ED91FC915A97C70169830995482F410FC9
:102300002981602FC7010E94F31CF60123AD082E1E
:10231000000C990B820F911D83AF81E090E00F902C
:10232000DF91CF911F910F91FF90EF90DF90CF90B1
:102330000895DB011496ED91FC91159720E030E0B3
:1023400065E009940F93FC010150040F84A996A93C
:10235000941718F0081728F402C0081750F0041753
:1023600040F42150260F83A995A9961720F4281729
:1023700020F480E007C0281720F481E0261710F031
:10238000F8CF81E00F91089598E04CE8562F582738
:10239000282F30E035952795822F50FF02C0842FDB
:1023A00082276695915091F708950F931F93CF93CD
:1023B000DF930E947417181619060CF0C7C000911D
:1023C0007F06033038F0C0E0D0E080E010E001503C
:1023D000110909C040E050E06AEA71E08FEF9FEF19
:1023E0000E948B16E6CFC017D10744F4FE01E457D4
:1023F000F94F60810E94C4112196F5CF10927F069B
:10240000FE01E457F94F2081022E000C330BA90185
:102410004827CA018F739927892B11F083E489C05B
:10242000108280918C06806280938C068037C9F080
:102430008337B9F080917806882309F479C08091B8
:102440008C06823709F443C034F4863609F46DC033
:10245000803731F16DC0833781F0873709F440C090
:1024600067C0E4EBF6E0DF0196978C918F73819360
:1024700056E0E83CF507B9F7E2CF84E1E4EBF6E09B
:10248000AAE7B2E001900D928A95E1F788EE93E019
:10249000EEE8F2E0DF019C011D9221503040E1F7AF
:1024A0006CED75E080E090E00E944B2544E150E047
:1024B00064EB76E08AE792E00E94942B892B21F46A
:1024C00081E08093780637C01092780631C0109270
:1024D0008E064CE856E06EE872E088EE93E030C07D
:1024E00081E08093770680918D068F7038E78302B4
:1024F000C0011124883E43E09407ECF49C012C0FAA
:102500003D1F283E334024F0C8EED3E0C81BD90B52
:10251000C330D10584F0AE01425051096EE876E037
:1025200082579D4F0E94A12B06C00E941C1703C01A
:102530008CE480938C0640E050E060E070E0CE01D7
:10254000DF91CF911F910F910C948B16DF91CF915A
:102550001F910F910895AB01E091D201F091D30149
:102560000280F381E02DBC0182ED91E00994EF92AD
:10257000FF920F931F93CF93DF93D82F062FC42F73
:10258000142FF82EF40EEE24EA948F2D811B1830B0
:10259000A8F0609141027091420280935B02009327
:1025A0005C0210925E02E0925D022BE532E04BE3AA
:1025B0008FE392E00E94851C1850E7CF8C2F887F14
:1025C000D80F4C2F477019F197E0492760914102CD
:1025D00070914202D0935B0200935C0210925E0203
:1025E0004F5F47708FEF90E001C0880F4A95EAF780
:1025F00080935D022BE532E04BE38FE392E0DF91C5
:10260000CF911F910F91FF90EF900C94851CDF915B
:10261000CF911F910F91FF90EF9008951F93CF934B
:10262000DF93D82FC62F142F0E94B71261E06C0FD2
:10263000412F8D2FDF91CF911F910C94B712DF9214
:10264000EF92FF920F931F93CF93DF93082FD62F14
:10265000C42F142FF62EF40EEE24E394DD24DA9426
:102660008F2D811B1830A8F06091410270914202B9
:1026700000935B0280935C02E0925E02D0925D0266
:102680002BE532E04BE38FE392E00E94851C18506B
:10269000E7CF8C2F887FD80F4C2F477029F197E018
:1026A0004927609141027091420200935B02D093EE
:1026B0005C0281E080935E024F5F47708FEF90E095
:1026C00001C0880F4A95EAF780935D022BE532E05E
:1026D0004BE38FE392E0DF91CF911F910F91FF9039
:1026E000EF90DF900C94851CDF91CF911F910F919B
:1026F000FF90EF90DF900895CF92DF92FF920F93BB
:102700001F93CF93DF9300D0CDB7DEB7F82E062FFF
:10271000E0915402F09155028FE392E049835A838D
:102720000995080F4981C42E5A81D52E10E0F60173
:1027300021916F01222349F0402F6F2D8FE392E00A
:102740000E94F31CF80E180FF2CF812F0F900F90FC
:10275000DF91CF911F910F91FF90DF90CF9008955F
:1027600020914302309144022817390709F444C0EC
:102770009093440280934302009709F437C020915C
:102780005602FC01211107C03596E491E0935702EF
:10279000FC013C960FC0213039F43F96E491E09360
:1027A0005702FC01709606C03D96E491E0935702F3
:1027B000FC013E9684918093580280915702082E26
:1027C000000C990B20915802821B910927FD9395CB
:1027D00020915902203441F0829FC001112426E04B
:1027E000969587952A95E1F780935A028BE499E1B3
:1027F000909355028093540208950F931F93CF93A3
:10280000DF93C82FD62F142F02E0242F462F682FD6
:102810008FE392E00E94A211882349F0412F6D2F8F
:102820008C2FDF91CF911F910F910C940E13DF919C
:10283000CF911F910F910895FF920F931F93CF9304
:10284000DF93D82FF62E8A01E0915402F0915502C1
:102850008FE392E00995F80EC0E0F801249122235D
:1028600059F04F2D6D2F8FE392E00E94F31CD80F8B
:10287000C80F0F5F1F4FF1CF8C2FDF91CF911F91AA
:102880000F91FF900895009729F480914D07909142
:102890004E0708C020914B0730914C0730934E07EC
:1028A00020934D0790934C0780934B07611571055A
:1028B00049F480915107909152079093500780936B
:1028C0004F07089580914F079091500790935207BA
:1028D000809351077093500760934F07089520919C
:1028E0007F06243178F580917B06823279F030F4CE
:1028F000803251F0813269F490E00BC0843211F1E2
:1029000038F0853211F105C090E203C090E301C0B8
:1029100090E1E22FF0E0E457F94F8081882331F015
:102920008073891719F02F5F20937F06E0917F064F
:10293000F0E0E457F94F80818F5F892B808380E03E
:1029400090E0089581E090E008958FEF9FEF089563
:10295000109283061092820630E0609179067091A1
:102960007A0620E080E090E0FC01E758FD4F4589C1
:10297000442361F0413029F43F5F681779070CF078
:102980002F5F0196883E43E0940771F730938306EA
:102990002093820608958F929F92AF92BF92CF921A
:1029A000DF92EF92FF920F931F93CF93DF930091EB
:1029B000790610917A065D9860E081E10E94DF243B
:1029C000F801E758FD4F8589813061F40F5F1F4F93
:1029D000083E83E0180730F4F801E758FD4F858979
:1029E0008A30A0F75801E8EEAE16E3E0BE0628F004
:1029F00026E4822E21E0922E0DC0F501E758FD4F0E
:102A000085898230A8F39FEFA91AB90AECCFCA15BD
:102A1000DB055CF08EE4881681E0980609F4BAC004
:102A2000F40181914F01E801F2CFFE01E758FD4F1B
:102A3000958921968913EBCFC12CD12CE12CF12C57
:102A4000CA15DB0534F4FE01E758FD4F85898A304D
:102A5000C0F41C141D04F4F61092E7071092E80766
:102A60001092E9071092EA071092EB071092EC0718
:102A70001092E50765EE77E081EE97E00E94941BE7
:102A8000C9CFF1E0EF16F10469F092E0E916F10424
:102A900059F0E114F10409F07BC08C3509F471C0E0
:102AA000682F3FC0E12CF12C8A3509F441C018F59C
:102AB0008A33B1F128F4803309F041C06BEC31C0A6
:102AC0008B33A1F18034D9F51092E7071092E80713
:102AD0001092E9071092EA071092EB071092EC07A8
:102AE0001092E50765EE77E081EE97E00E94941B77
:102AF000C12CD12C4DC08C3559F008F446C08D3511
:102B000061F08A37E1F46CE271E080E090E014C09B
:102B10006CE581EE97E00E946F1CE12CF12C38C02F
:102B20006CEC81EE97E00E946F1C32C06DECF9CF27
:102B300068EE73E080E090E00E944B2529C09FEC96
:102B4000980F993020F4682F6F706F53EACFE82FF9
:102B5000EF71F0E0E55DFE4F60816623C9F085FF0F
:102B600008C081EE97E00E94051CEFEFCE1ADE0A46
:102B70000FC081EE97E00E94C21BF1E0CF1AD1088E
:102B800007C0EE24E394F12C03C082E0E82EF12C80
:102B9000219656CF68EC70E080E090E00E944B25D3
:102BA00068EC70E080E090E00E944B255D9A61E067
:102BB00081E1DF91CF911F910F91FF90EF90DF9016
:102BC000CF90BF90AF909F908F900C94DF24FF9296
:102BD0000F931F93CF93DF93182FC62FF42ED22F6E
:102BE000022F242F462F682F8FE392E00E94A2111C
:102BF0008823E9F04F2D6C2F812F0E94B7124D2FA3
:102C00006C2F812F0E941F138FEF8F0D4D2F6C2F74
:102C1000810F0E941F13D1506D2F6C0F4F2D812FEC
:102C2000DF91CF911F910F91FF900C94B712DF911C
:102C3000CF911F910F91FF9008950F931F93CF9302
:102C40008C01C62F6EE182E08C0F0E941C14209133
:102C50007E0630E02017310749F42CE04CE164E1B6
:102C60008C2FCF911F910F910C94E715CF911F914D
:102C70000F9108958091790690917A0620917E06B1
:102C8000213058F0233040F0233039F461EB71E00B
:102C90008CE896E00C94C32B019630E4ECE8F6E067
:102CA000DF011D923A95E9F730E02F5F3F4F883EF4
:102CB000B3E09B0768F4FC01E758FD4F45894423C6
:102CC00049F1642F042E000C770B6217730741F44F
:102CD0009C012F5F3F4FECE8F6E0805C9F4F16C0F1
:102CE0004130C1F04A301CF4261737079CF001969A
:102CF000DECF2817390771F0D901A758BD4F559677
:102D00004C91403238F041932F5F3F4F283E43E0D3
:102D1000340778F308958F929F92AF92BF92CF922B
:102D2000DF92EF92FF920F931F93CF93DF93CDB774
:102D3000DEB728970FB6F894DEBF0FBECDBF8C016B
:102D40006B0110927F06672B21F48CE8C82E86E079
:102D5000D82E17FF08C0F60101900020E9F731973F
:102D60008F010C191D095A01E12CF12C4501A11408
:102D7000B10411F456011DC0F50180818823D1F3FF
:102D800061E070E0C5010E94AB128FEFA81AB80A8B
:102D9000F40160818E2D0E94C411E82EF12C8091E7
:102DA0008606909187060196909387068093860603
:102DB000DDCFC5018C199D09801791074CF4F501F1
:102DC00061915F018E2D0E94C411E82EF12CF1CF8C
:102DD00017FF02C000E010E0C7018F7399278064DD
:102DE00089838AE08A83B801C6010E94AB1262E03F
:102DF00070E0CE0101960E94AB120E5F1F4F8091D2
:102E0000860690918706080F191F10938706009376
:102E1000860628960FB6F894DEBF0FBECDBFDF91B1
:102E2000CF911F910F91FF90EF90DF90CF90BF90C7
:102E3000AF909F908F900895EF92FF920F931F9302
:102E4000CF93DF931092760609E712E0C0E0D0E05E
:102E50007801F80161918F01CE010E94592BF70191
:102E60006081809176060E94C41180937606219637
:102E7000CD3FF3E0DF0761F7682F8DEF93E00E940D
:102E8000592B10927606DF91CF911F910F91FF90F1
:102E9000EF900895FC018091D101811103C08FEF63
:102EA0009FEF08959FB7F89482E08093E900209106
:102EB000F20030E01216130614F421E030E0211580
:102EC000310559F0289884E68093D0018091F10073
:102ED00080838091F200882319F09FBFC901089573
:102EE0008BE68093E800F9CFCF9380917B0688230F
:102EF00021F15D9A61E081E10E94DF2410927E065B
:102F000010927F0610927A061092790680E8ECE81B
:102F1000F6E0DF011D928A95E9F78091770681112D
:102F200005C062EB7FE085E29FE004C065EB7EE0D8
:102F300085E99EE00E94431432C060E081E10E9476
:102F4000DF2410928106C0910F016AE070E080E0FA
:102F500090E00E944B25C1111BC08FEF9FEF909313
:102F6000870680938606909385068093840617C013
:102F7000AE2FB0E0A457B94F8C93EF5FE0937F067C
:102F8000E03830F0109285061092840610927F0689
:102F900082ED91E00E94E22397FF04C05D9A80E0F9
:102FA00090E016C05D9820918406309185062F5FD1
:102FB0003F4F3093850620938406E0917F068A3048
:102FC0009105B1F6F0E0E457F94F108281E090E00E
:102FD000CF9108950F931F93CF93DF938C01EB0153
:102FE00082EC91E00E94B01320E030E0F801E20FA3
:102FF000F31FE491EE2319F02F5F3F4FF7CF8AEFD5
:10300000289F802D1124A80167E080580E941C147D
:1030100080E090E0FE01E80FF91FE491EE2311F04B
:103020000196F8CF9AEF899F802D1124AE016EE1B1
:103030008058DF91CF911F910F910C941C140F9326
:103040001F93CF93DF93CDB7DEB7A0970FB6F89459
:10305000DEBF0FBECDBF20918406309185068E0164
:103060000F5F1F4F37FF11C09F938F938AEB91E043
:103070009F938F931F930F930E94CA2B0F900F90D3
:103080000F900F900F900F9017C0409187064F93AD
:10309000409186064F933F932F939F938F9386EC97
:1030A00091E09F938F931F930F930E94CA2B0FB6AB
:1030B000F894DEBF0FBECDBFA80163E181E00E949E
:1030C0007C1382EC91E00E94B0136AE871E08FE813
:1030D00091E00E94EA17A0960FB6F894DEBF0FBEEB
:1030E000CDBFDF91CF911F910F9108950F931F9343
:1030F000CF93DF938C01C0E0D0E0F801EC0FFD1F0F
:103100006491662371F0E091D201F091D3010190B6
:10311000F081E02D82ED91E00995892B11F0219647
:10312000ECCFCE01DF91CF911F910F910895BC019B
:10313000009791F0FC0101900020E9F73197AF0171
:10314000481B590BE091D201F091D3010280F38129
:10315000E02D82ED91E0099480E090E008950F93D6
:103160001F93CF93DF938091790690917A06FC01AB
:10317000E758FD4F2589222391F1BC016F5F7F4FF6
:10318000FB01E758FD4F2589223020F508EE13E0BA
:10319000E801C61BD70B1C161D060CF562577D4FA8
:1031A000AE0182579D4F0E94A12B8091790690918C
:1031B0007A068C0F9D1FA801481B590B60E070E038
:1031C00082579D4F0E94BC2B81E08093770681E05F
:1031D00090E007C0683E23E0720780F2D7CF80E01E
:1031E00090E0DF91CF911F910F910895FC018281B2
:1031F0008F5BFB01808381E008950895DC011696C2
:10320000ED91FC91179712968C91481B477081E0C5
:1032100090E001C0880F4A95EAF7E60FF11D308172
:10322000222311F0832B02C080958323808308958D
:10323000FB014181DC0112962C911297421768F034
:1032400013962C911397241740F0608115962C91BA
:10325000621718F424810C94FE180895FC018081F3
:103260009281980F92832181921760F494819F5FDD
:1032700094839381890F821710F08FEF820F8383DD
:1032800081E0089580E00895FC01128280818150E0
:1032900083831482089580E008950B96FC01849145
:1032A00008950A96FC0184910895FC018491089583
:1032B0000E945519882321F0823011F083E008958F
:1032C00086E00895FC01E60FF11D849190E0982FAF
:1032D00088273196E4918E0F911D089568E00C9433
:1032E000621966E00C9462192EE93FE0009729F01C
:1032F000F9013197F1F70197F9CF08951092EE0790
:103300001092ED0708958093F5071092B90084FF9D
:1033100002C08CE001C088E48093B8000C947E1950
:10332000CF93DF93CDB7DEB769970FB6F894DEBFC2
:103330000FBECDBFFC01DB018C918F5F8C93BE0172
:103340006F5F7F4F89E1DB011D928A95E9F729E0E4
:10335000298384E08A8391E09D8383E08E832A879A
:1033600021E22B879C879D879F8722E2288B27E07D
:103370002B8B25E02C8B8E8B20E430E0388F2F8B2D
:10338000998F82818B8395858685998B8A8B8381A2
:1033900080688D8B49E150E080E00E942E24699680
:1033A0000FB6F894DEBF0FBECDBFDF91CF91089569
:1033B000CF92DF92EF92FF920F931F93CF93DF9301
:1033C0008C017B016A0180E0F601C49181110BC080
:1033D000CF3F09F457C04C2FB701C8010E94991183
:1033E00081114EC054C0CF3F11F44FEFF5CFCE3F07
:1033F00009F44FC0C03F08F043C0C03E58F04C2F06
:103400004F70D7011496ED91FC91159720E030E0B4
:1034100062E00CC0C03D68F04C2F4F70D70114968D
:10342000ED91FC91159720E030E063E0C80109952B
:1034300027C0C03CF8F0D7011496ED91FC91159788
:1034400020E030E040E064E0C8010995C295C07F0B
:10345000CE5FD0E0CE010E947419D7011496ED9191
:10346000FC91159720E030E041E064E0C801099547
:10347000CE0104C0C7FD04C08C2F90E00E947419D7
:1034800080E001C081E0BFEFCB1ADB0A9DCF80E076
:1034900001C081E0DF91CF911F910F91FF90EF90DC
:1034A000DF90CF9008958F929F92AF92BF92CF926C
:1034B000DF92FF920F931F93CF93DF9300D0CDB78E
:1034C000DEB76C018B01F42E490120E1421709F4AB
:1034D00056C02417A0F03AE043135BC0DB011496FA
:1034E000ED91FC91159720E030E042E061E0099514
:1034F00040E655E0B801C6010E94D8194AC081E1F2
:10350000481709F43FC0A5E14A1343C0FB01A2805C
:10351000B38048E555E0C6010E94D819D50114963C
:103520004C91406BB801C6010E949911D8011496C4
:10353000ED91FC91159720E030E041E062E0C6019A
:103540000995F50126813781D8011496ED91FC91FA
:103550001597D50115964C9166E0C6010995811124
:1035600002C080E0D3C0D8011496ED91FC9115976C
:1035700020E030E040E063E0C60109950AC04FE476
:1035800055E002C044E455E0B801C6010E94D819D4
:10359000BCC0F80102811381F2E3FF1609F479C07F
:1035A000FF15B8F025E1F21609F480C037E1F316F3
:1035B00009F492C084E1F812A8C0D8011696ED91E2
:1035C000FC91179715968C919F01280F311DC90109
:1035D00065C0A6E4FA1609F48FC0B7E4FB1609F437
:1035E0008FC0EBE3FE1291C0D40111968C9111971C
:1035F00013969C91913029F0933031F4482F8850E4
:1036000004C048E0480F01C0482F21E0F801338191
:10361000381708F420E031E0D80112965C91451784
:1036200008F430E051E0481708F050E0822F852B75
:10363000382319F4252309F468C0F401F28091308D
:1036400051F030F0923049F0933051F42FEF09C02F
:1036500020E031E007C021E004C020E03FEF02C0DD
:1036600020E030E0F7FE08C0B401C8012A833983A6
:103670000E94181939812A81D4018C91830F8C936F
:1036800011968C911197820F11968C93FF0C51F724
:103690003CC0B401C8010E94181937C01192E81744
:1036A000F907E1F7C8010E9444192FC0C8010E9420
:1036B0002E19882309F455CFD8011696ED91FC9167
:1036C000179715968C919F01280F311DC9011192F2
:1036D000E817F907E1F719C0D4011C92F8018281BB
:1036E00011968C9311978581815012968C93129725
:1036F000838113968C9309C0D80115968C9103C0D1
:10370000D80111968C91F401808381E00F900F9085
:10371000DF91CF911F910F91FF90DF90CF90BF90DD
:10372000AF909F908F9008950F931F93CF93DF9347
:103730001F92CDB7DEB78B0180913302811107C094
:1037400082E292E00E945A2781E08093330282E075
:10375000898341E050E0BE016F5F7F4F8091250279
:103760000E94852597FD08C08091250248E050E021
:10377000B80180640E9485250F90DF91CF911F9141
:103780000F910895DC01683810F0685825C0E62FC5
:10379000F0E067FF12C0E058F10981E090E001C05D
:1037A000880FEA95EAF7809514969C9114978923DF
:1037B00014968C93149760E00FC0EA57FA4F649107
:1037C000662301F167FF08C014968C9114978D7FD2
:1037D00014968C9314976F77FD01369686E06623D6
:1037E00021F09081961301C0108281503196811191
:1037F000F6CFCD01BD016C5F7F4F0E94941B81E02D
:1038000090E0089580E090E00895DC01683810F0C1
:1038100068582DC0E62FF0E067FF11C0E058F109AD
:1038200081E090E001C0880FEA95EAF714969C9138
:103830001497892B14968C93149760E018C0EA575C
:10384000FA4F6491611109C081E090E013969C9356
:103850008E93129780E090E0089567FF08C0149659
:103860008C911497826014968C9314976F771696A8
:103870008C911697861751F117968C91179786178A
:1038800029F118968C911897861701F119968C9149
:1038900019978617D9F01A968C911A978617B1F056
:1038A0001B968C911B97861789F0FD01369680E058
:1038B00090E02191211105C0FD01E80FF91F6683F9
:1038C00005C0019686309105A1F7BECFCD01BD019F
:1038D0006C5F7F4F0E94941B81E090E00895EF920F
:1038E000FF921F93CF93DF93EC01162F0E94051CCC
:1038F0007C01612FCE010E94C21BC7019927DF9175
:10390000CF911F91FF90EF900895DB01ED91FC9115
:103910000994EF92FF920F931F93CF93DF931F921F
:10392000CDB7DEB78C01DC011296ED90FC901397B9
:10393000D196ED91FC91D29782E0099520E030E09C
:103940004AE0B701C8010E94851CF82ED801D19623
:10395000ED91FC91D29783E00995D801D196ED9134
:10396000FC91D29780E00995FF20A1F1F8016281D6
:1039700073819E012F5F3F4F46E4C8010E94851C62
:103980008981D8018C9312966D917C9113979E0139
:103990002F5F3F4F47E4C8010E94851C8981F801D1
:1039A00081836281738120E030E048E4C8010E9495
:1039B000851CD8011B968C931B9798012D5C3F4F5B
:1039C00012966D917C91139747E1C8010E94851C66
:1039D00081E001C080E00F90DF91CF911F910F91A6
:1039E000FF90EF9008952F923F925F926F927F9297
:1039F0008F929F92AF92BF92CF92DF92EF92FF92FF
:103A00000F931F93CF93DF931F92CDB7DEB71C01A7
:103A1000C62E142FD22EDC011496ED90FC90159733
:103A2000C7010E945519082FF101848195810E94D8
:103A30005819982E013019F48FE0A82E02C0AA243C
:103A4000AA94D10114968D919C9115970E945119B9
:103A5000082FF101848195810E944D19B82ED10162
:103A600014968D919C9115970E946E19B0E6BD1524
:103A700030F4009721F0E80EF91E01E611C0F101C3
:103A8000848195810E947119F0E4FD1530F400974E
:103A900021F0E80EF91E01E403C021E1E20EF11C61
:103AA000BD1480F4D10150961C92509753961C92ED
:103AB000539754961C92549751961C925197529634
:103AC0001C92C7C0B01670F3892D90E0F7012491C5
:103AD0002F3F21F4FFEFEF1AFF0A5AC00D114FC01C
:103AE000D10114968D919C9115970E9455199701BB
:103AF0002F5F3F4FF701882311F08230E1F484916A
:103B0000D10153968C935397F901249154962C9399
:103B10005497F7013396E4915096EC935097F70140
:103B20003496E4915196EC935197F7013596E491D0
:103B30005296EC9320C08491982F9F709250D1019F
:103B400052969C93529782958F7051968C93519771
:103B5000F9012491822F8F7054968C93549722955B
:103B60002F7053962C935397F7013296E491E29578
:103B7000EF705096EC93E114F10479F46AC0F70108
:103B80003296E491EA219C012E0F311DE20EF31EC4
:103B90000B1509F487CF0F5F99CFF10184819581CF
:103BA0000E945819B82ED10153969C905397549661
:103BB000DC90549751968C915197C80E52969C91D7
:103BC0009D0D512E591A0D2D292D452D6C2DC101FC
:103BD0000E94A2118823D1F1C7018B0D911D5C01B8
:103BE00087E0890DF82EF694F694F694D50C4101F1
:103BF0009CE1890E911C6F2C712C5D1439F15C2DA8
:103C00008501802F8A198F15E8F4F8018491D1017C
:103C100012966D917C9113975C965C935C975D9680
:103C20005C925D975F961C925F975E968C93940171
:103C30004BE3C10159830E94851C0F5F1F4F5981BF
:103C4000585FDFCFA60CB71C5394D7CFF101808902
:103C500001C080E00F90DF91CF911F910F91FF90F5
:103C6000EF90DF90CF90BF90AF909F908F907F901C
:103C70006F905F903F902F9008959091EE07911173
:103C800004C08093EE076093ED0708951F93CF93D0
:103C9000DF9300D0CDB7DEB720ED37E03A8329833C
:103CA0009091BC00982399F429813A81232B51F4F7
:103CB0008091F507182F127081FD09C081E00E94E4
:103CC0003D1E06C029813A8121503109E7CF11E01C
:103CD000812F0F900F90DF91CF911F91089584E96C
:103CE0008093BC0064E080E10C94461ECF938093E7
:103CF000BB0084E88093BC0063E080E80E94461E1D
:103D0000C82F882389F08091F507C82FC27081FDE4
:103D10000AC08091B900887F883229F063E082E090
:103D20000E943D1E01C0C1E08C2FCF910895CF931A
:103D3000DF93FC0123A5222379F0EC010E94C41F2C
:103D4000811102C080E009C08EA1811180E40E942F
:103D5000761E8823B9F31BA681E0DF91CF910895E9
:103D60000F931F93CF93C42F89016330C1F050F498
:103D7000613081F0623009F048C0FC0146A321E0C7
:103D800023A743C0663011F1673079F1653009F03F
:103D90003CC00EC0FC0186A50E94831936C0FC0100
:103DA00016A221E023A7411130C00E946F1E2DC032
:103DB0000E94971E811104C00E946F1E80E026C0E1
:103DC0008C2F0E94761E811120C0F6CF0E94971E74
:103DD000882391F3CC23C9F0F80181918F010E94CF
:103DE000761E882349F3C150F5CF0E94971E882381
:103DF00019F3CC2351F0F80184910E94761E882398
:103E000029F00F5F1F4FC150F4CF81E0CF911F9178
:103E10000F9108950E948F2B0F931F93CF93DF93E1
:103E20001F92CDB7DEB782E0898342E450E066E0BE
:103E300076E080E80E942E240E94A224DC011296E3
:103E40000D911C9113970115110569F0D801ED91A1
:103E5000FC910280F381E02DBE016F5F7F4FC801AE
:103E6000099597FF07C089810F90DF91CF911F912E
:103E70000F910895F80100851185E5CFCF92DF926B
:103E8000EF92FF920F931F93CF93DF931F92CDB7C3
:103E9000DEB7182F062FE42E862F880F8E5F9983AA
:103EA0000E94002483E00E940024F12EC12E9981FB
:103EB000D92E8C2D8F19801798F4F601E7FE02C0D9
:103EC000849101C080810E940024182F80E00E940C
:103ED00000248123FFEFCF1ADF0A8111EACF01C04E
:103EE00081E00F90DF91CF911F910F91FF90EF90A4
:103EF000DF90CF9008952091800624FF05C0AC018B
:103F000065E181E00E941C146BE776E08EE796E0A5
:103F10000C94EA17EF92FF921F93CF93DF931092C6
:103F2000760689E7E82E82E0F82EC0E0D0E0CE01E8
:103F30000E94512BD7018D937D01682F80917606C9
:103F40000E94C411182F809376062196CD3FB3E0CE
:103F5000DB0769F78DEF93E00E94512B181761F092
:103F600083E994E0E9E7F2E0DF019C011D92215032
:103F70003040E1F70E941C1710927606DF91CF9136
:103F80001F91FF90EF900895CF9384EA8093BC0037
:103F900061E080E80E94461E882359F08091B900B4
:103FA000887F883041F0803131F061E082E00E940A
:103FB0003D1EC0E01DC088E78093BB0084E880936D
:103FC000BC0062E080E80E94461E882391F3809145
:103FD000F507C82FC27081FD0AC08091B900887FA3
:103FE000883129F062E082E00E943D1E01C0C1E0FC
:103FF0008C2FCF9108951F920F920FB60F9211241C
:104000008F939F938091E1009091E100937F909333
:10401000E10083FF0FC01092E90091E09093EB0064
:104020001092EC0092E39093ED001092D10198E091
:104030009093F00082FF20C093E09093E90090916C
:10404000F200992319F09AE39093E8009091F30716
:10405000992339F09091F30791509093F3079923A6
:1040600089F19091D001992339F09091D00191502C
:104070009093D001992341F184FF10C08091E20018
:104080008E7E81608093E2008091E1008F7E80933C
:10409000E1008091F4078E7E806111C080FF16C020
:1040A0008091E2008E7E80618093E2008091E10049
:1040B0008E7E8093E1008091F4078E7E81608093F4
:1040C000F40704C05D9ACDCF289AD6CF9F918F91E7
:1040D0000F900FBE0F901F9018951F920F920FB662
:1040E0000F921124CF92DF92EF92FF920F931F93C2
:1040F0002F933F934F935F936F937F938F939F93F0
:10410000AF93BF93EF93FF93CF93DF93CDB7DEB71A
:104110006C97DEBFCDBF1092E9008091E80083FF6D
:10412000EDC168E0CE0145960E94952482EF809310
:10413000E8008D8987FF05C09091E80090FFFCCFD3
:1041400003C09EEF9093E800982F907609F0C6C0C8
:104150009E892F89188D91110CC0803829F4809187
:10416000F7078093F10002C01092F1001092F10065
:1041700048C1422F50E0512B913051F4811141C17F
:104180004130510509F03DC18091F7078D7F0BC08B
:10419000933061F4811135C14130510509F031C1CD
:1041A0008091F70782608093F7072BC1953041F427
:1041B0008091E80080FFFCCF20682093E30021C1BC
:1041C000963009F05FC0EB8CFC8C1092E9001092E5
:1041D000F2071092F107123091F51092F007109249
:1041E000EF070E940C1F99E0BE016F5F7F4FDB015C
:1041F000E92F1D92EA95E9F799831A8391E09E834E
:1042000090EA98879AEF99872091F1073091F20709
:10421000275F3F4F3C832B838D831092E9001092E0
:10422000F2071092F107F092F007E092EF0749E0F1
:1042300050E080E00E942E240E940C1FE2C0F09209
:10424000F007E092EF070E94A224DC011296ED90A5
:10425000FC901397E114F10409F4C0C0D701ED916B
:10426000FC910480F581E02DBE016B5E7F4FC7019C
:104270000995009719F00CF0C4C0C7C0F701E0849D
:10428000F184E8CF973009F4C0C0983021F481E080
:104290008093F100B6C0993009F0B3C0837009F083
:1042A000B4C0E7E1F1E081E021E036E390819923B9
:1042B00061F08093E9002093EB0091919093EC00E2
:1042C0003093ED008F5F873089F78EE78093EA00A7
:1042D0001092EA008F898093D10193C08B8D9C8DC1
:1042E0001092E9001092F2071092F1079093F007F4
:1042F0008093EF07898D811156C08E899D89913AEF
:1043000059F4813209F081C047E050E068E071E083
:1043100080E00E942E2475C0913209F076C083326D
:1043200089F4888D90E0982F88272F89822BA0E030
:10433000B0E080931D0190931E01A0931F01B093E4
:1043400020015FC0803269F48091E80082FFFCCFD9
:1043500067E088E091E00E9495248BEF8093E8006D
:1043600006C0823209F04DC08F8980930F01809181
:10437000F607882319F0EEEFFAE002C0E0E0F8E07B
:104380008091080190910901A0910A01B0910B015F
:10439000803B9440A105B10509F07BC080910F01DD
:1043A00080FF93C076C00E94A224DC0112960D917A
:1043B0001C9113970115110541F1D801ED91FC9164
:1043C0000190F081E02DBE016B5E7F4FC801099521
:1043D000811117C0F80100851185ECCF113009F467
:1043E0004EC0133091F48F89882309F445C0823080
:1043F00081F440E860E18AE696E00E943E1F88234F
:1044000021F08EEF8093E80079C081E28093EB0089
:1044100075C0813029F440E86BE08EE596E0EDCF81
:10442000833099F70E94A224DC011296ED90FC9053
:1044300013978E010F5F1F4F6801E114F10479F0AB
:10444000D701ED91FC910680F781E02DB801C701FD
:104450000995080F111DF701E084F184EECFD80112
:104460001C92F60101900020E9F73197BF016C1909
:104470007D0940E0C601C1CF68E476E002C06CE48B
:1044800076E06115710509F2FB01449150E080E886
:1044900040CF0FB6F894A895809160008861809312
:1044A0006000109260000FBEA895EE3F2AE0F20770
:1044B00039F08091FE0A9091FF0A91838083A1CF09
:1044C0001092FF0A1092FE0A9CCFEE3F8AE0F80796
:1044D00031F0808191819093FF0A8093FE0A87E7F3
:1044E00097E7918380839BE088E10FB6F894A895C5
:1044F000809360000FBE9093600083CF6C960FB6E0
:10450000F894DEBF0FBECDBFDF91CF91FF91EF9149
:10451000BF91AF919F918F917F916F915F914F91DB
:104520003F912F911F910F91FF90EF90DF90CF90CF
:104530000F900FBE0F901F9018952FB7F8948770AB
:104540008093E9009091E800892F807295FF04C064
:104550009091F20080E4891B2FBF0895CF92DF92E3
:10456000EF92FF920F931F93CF93DF936C017A0129
:104570008B01C0E0D0E0CE15DF0589F0D8016D9148
:104580008D01D601ED91FC910190F081E02DC601E5
:104590000995892B11F47E0102C02196ECCFC70149
:1045A000DF91CF911F910F91FF90EF90DF90CF900F
:1045B0000895CF93DF931F92CDB7DEB76983DC01F7
:1045C000ED91FC910280F381E02D41E050E0BE01CD
:1045D0006F5F7F4F09950F90DF91CF91089583E032
:1045E0008093E9008091F200882319F08AE3809398
:1045F000E800089583E00E949D2290E00895FC0168
:104600008485958597FD0BC09FB7F89482E08093D1
:10461000E9008091F2009FBF90E0019608959FB756
:10462000F89482E08093E9008091F2009FBF90E0CF
:10463000089590E0FC013197EF30F105B0F5EA5AAA
:10464000FF4F0C94892B809180008F7703C080915D
:1046500080008F7D80938000089580918000877F07
:10466000F9CF84B58F7702C084B58F7D84BD08955E
:10467000809190008F7707C0809190008F7D03C05C
:1046800080919000877F8093900008958091C00072
:104690008F7703C08091C0008F7D8093C000089504
:1046A0008091C200877F8093C20008953FB7F8943D
:1046B0008091FD079091FE07A091FF07B09100083F
:1046C00026B5A89B05C02F3F19F00196A11DB11D6D
:1046D0003FBFBA2FA92F982F8827820F911DA11DA8
:1046E000B11DBC01CD0142E0660F771F881F991FE5
:1046F0004A95D1F70895DC01FB0112968C9112972F
:1047000090E02481358182179307D1F491818081D3
:10471000813A31F481E0913091F0933089F411C005
:10472000813271F49B3021F482811F968C9305C0F5
:104730009A3031F4828150968C9381E008950895E7
:1047400080E00895DC01FB0188E4808389E48183B3
:1047500084E482831D969C911D979F709F5B938339
:104760001D968D919C911E9724E0969587952A958C
:10477000E1F78F708F5B848385E008950F931F931B
:10478000CF93DF931F92CDB7DEB78C01FC018485F8
:10479000958597FF0EC0CE0101960E944A1701979A
:1047A00019F4298130E002C02FEF3FEFF80135877F
:1047B0002487F801848595850F90DF91CF911F9113
:1047C0000F910895CF93DF931F92CDB7DEB7FC0111
:1047D0008485958597FD05C02FEF3FEF35872487AA
:1047E0000BC0CE0101960E944A17019719F48981E6
:1047F00090E002C08FEF9FEF0F90DF91CF9108956F
:104800004091F1075091F2072091EF073091F007A6
:1048100042175307B4F49091E8009570E1F390913A
:10482000E80092FD19C08093F1008091F10790910A
:10483000F20701968F739927892B19F48EEF8093D5
:10484000E8008091F1079091F20701969093F207AA
:104850008093F10781E0089580E00895DF92EF9260
:10486000FF920F931F93CF93DF93D82E8A017B0182
:10487000E40EF51EEB01CE15DF0571F0D7FE03C087
:10488000FE01849101C088810E940024219681113B
:10489000F2CF8FEF9FEF01C0C801DF91CF911F9141
:1048A0000F91FF90EF90DF900895EF92FF920F939A
:1048B0001F93CF93DF93FB012081213851F5238192
:1048C000223239F5DC0112962C9130E04481558179
:1048D00042175307F1F4EC010B851C85E12CF12CF8
:1048E0000115110591F0F8014481558162817381B0
:1048F00080E80E942E248F3FFFEF9F0769F0E80EAB
:10490000F91ED8010D911C91EBCF81E08F87C70173
:1049100005C080E090E002C08FEF9FEFDF91CF9164
:104920001F910F91FF90EF900895615030F020910A
:10493000F100FC0120830196F8CF289884E680934B
:10494000D00108958091050881110DC082E0809307
:10495000010884E080930208109204081092030872
:1049600081E08093050881E098E00895CF93DF937C
:10497000282F30E0F901E454FD4E8491F901E3560B
:10498000FD4ED491F901E258FD4EC491CC2391F033
:1049900081110E941923EC2FF0E0EE0FFF1FE05968
:1049A000FD4EA591B491EC91ED2381E090E021F4CE
:1049B00080E002C080E090E0DF91CF9108951F93E6
:1049C000CF93DF93282F30E0F901E454FD4E84911A
:1049D000F901E356FD4ED491F901E258FD4EC49120
:1049E000CC23C9F0162F81110E941923EC2FF0E07F
:1049F000EE0FFF1FEE59FD4EA591B4918FB7F894BD
:104A0000111105C09C91ED2FE095E92302C0EC91B6
:104A1000ED2BEC938FBFDF91CF911F910895CF9332
:104A2000DF9390E0FC01E356FD4E2491FC01E25837
:104A3000FD4E8491882361F190E0880F991FFC015D
:104A4000EC5AFD4EC591D491FC01EE59FD4EA59155
:104A5000B491611109C09FB7F89488812095822391
:104A60008883EC912E230BC0623061F49FB7F894D9
:104A70003881822F809583238883EC912E2B2C9371
:104A80009FBF06C08FB7F894E8812E2B28838FBF75
:104A9000DF91CF9108958F929F92AF92BF92CF9264
:104AA000DF92EF92FF926B017C010E9456234B0133
:104AB0005C01C114D104E104F104F1F00E94562319
:104AC000DC01CB0188199909AA09BB09883E9340EA
:104AD000A105B10570F321E0C21AD108E108F1087F
:104AE00088EE880E83E0981EA11CB11CC114D1046D
:104AF000E104F10419F7DDCFFF90EF90DF90CF9044
:104B0000BF90AF909F908F9008957F928F929F92C9
:104B1000AF92BF92CF92DF92EF92FF920F931F93CB
:104B2000CF93DF93C82E8B017A018091D10181113F
:104B300003C08FEF9FEF75C08091F40780FF05C021
:104B40008091E00082608093E000CE2DDF2DD12C9B
:104B50008AEF882E8C2D8770B82E8C2D8072A82E0F
:104B60008C2D8074982E9AE3792E209709F452C0E8
:104B70008C2D0E949D22282F81110AC08A948820A2
:104B8000C1F261E070E080E090E00E944B25EDCF43
:104B900090E0C817D9070CF42C2F3FB7F894B092C7
:104BA000E9008091E80085FF33C0822F90E0C81BA8
:104BB000D90BAA2029F02150A8F01092F100FBCFC8
:104BC000F801C7FE07C0215058F044914093F1000E
:104BD0003196F9CF215020F041914093F100FACF66
:104BE000080F191FDD2019F07092E8000AC08091AB
:104BF000E80085FD08C07092E800DD24D39420977A
:104C000039F0D12C05C0209719F491107092E8006A
:104C10003FBFABCFD110ACCF5D9884E68093F30754
:104C2000C701DF91CF911F910F91FF90EF90DF901F
:104C3000CF90BF90AF909F908F907F900895CF932B
:104C4000DF93EC0180910F01882331F083E00E9413
:104C500085251816190634F081E090E09B838A833D
:104C600080E090E0DF91CF9108952FB7F8946091A4
:104C7000F9077091FA078091FB079091FC072FBF0D
:104C800008951F920F920FB60F9211242F933F9306
:104C90008F939F93AF93BF938091F9079091FA07F9
:104CA000A091FB07B091FC073091F80723E0230F98
:104CB0002D3720F40196A11DB11D05C026E8230F54
:104CC0000296A11DB11D2093F8078093F9079093D8
:104CD000FA07A093FB07B093FC078091FD07909122
:104CE000FE07A091FF07B09100080196A11DB11D1C
:104CF0008093FD079093FE07A093FF07B0930008F1
:104D0000BF91AF919F918F913F912F910F900FBEC7
:104D10000F901F901895CF92DF92EF92FF920F9312
:104D20001F93CF93DF93EC0188810E94B6248C01FE
:104D30000E943526298D3A8D2115310579F42A8571
:104D40003B850217130709F0ACC021E030E03A8F31
:104D5000298F6B8F7C8F8D8F9E8FA3C02130310563
:104D600009F052C02885398502171307D9F40B8D35
:104D70001C8D2D8D3E8DAB01BC01401B510B620B78
:104D8000730B8E819F81092E000CAA0BBB0B481759
:104D900059076A077B0718F41A8E198E82C082E0C1
:104DA00090E02FC02A853B850217130709F079C0D0
:104DB0000B8D1C8D2D8D3E8DAB01BC01401B510B0D
:104DC000620B730B8C819D81092E000CAA0BBB0B0F
:104DD00084179507A607B70708F063C081E08C87A2
:104DE000E989FA89309709F00995EB89FC893097B0
:104DF00009F00995EF89F88D309709F0099586E05B
:104E000090E09A8F898F4DC02230310501F5CB8C0F
:104E1000DC8CED8CFE8CDC01CB018C199D09AE097C
:104E2000BF09CA80DB800D2C000CEE08FF08C816F5
:104E3000D906EA06FB0618F4ED85FE851EC08A85B4
:104E40009B850817190769F583E090E0DACF2330D6
:104E5000310541F4888599850817190711F5EF8503
:104E6000F8890BC026303105E1F48885998508174B
:104E7000190741F41C86ED89FE89309709F48CCF1F
:104E800009958ACF81E08C87EF89F88D309749F0BA
:104E9000DF91CF911F910F91FF90EF90DF90CF9016
:104EA0000994DF91CF911F910F91FF90EF90DF90C8
:104EB000CF900895CF93DF93EC0181E08C838D83B5
:104EC0009E01265F3F4F3F832E831986188625E972
:104ED00031E0398328831C861B861E861D868F87BA
:104EE000888B81EC8A870E94A224FC0121818C811D
:104EF00090E0820F911D089774F5A281B3811097FD
:104F000019F4D383C2830CC018968D919C91199784
:104F1000009711F0DC01F8CF1996DC93CE93189727
:104F200080818A8381818B8390818D81890F8083A9
:104F300080E09C81891778F4AE81BF81A80FB11DF4
:104F40009C91A181B0E0AA5EBE4F9C9391819F5F2E
:104F500091838F5FEECFDF91CF910895CF92DF9253
:104F6000EF92FF920F931F93CF93DF931092D5018F
:104F70001092D40188EE93E0A0E0B0E08093D601D7
:104F80009093D701A093D801B093D90182E591E025
:104F90009093D3018093D2018FEF9FEF9093DF0125
:104FA0008093DE011092E4071092E30784E691E01B
:104FB0009093E2078093E1078091D907811113C094
:104FC0001092D4071092D30783E991E09093D6070B
:104FD0008093D5078FE290E09093D8078093D7070E
:104FE00081E08093D90780913302811107C082E26A
:104FF00092E00E945A2781E080933302E0912D02D3
:10500000F0912E02309739F483ED97E090932E02C1
:1050100080932D020AC080819181009711F0FC01DC
:10502000FACF83ED97E0918380832091D707309169
:10503000D80780912F0290913002820F931F909396
:10504000300280932F0282E3C82ED12CD092140715
:10505000C092130760E08BE10E940F258BE190E086
:1050600090930E0780930D0798E5E92E92E0F92EB4
:10507000F0921007E0920F0708EE13E0109312076A
:105080000093110710922707109226071092190714
:10509000C1E0D0E0D0931607C0931507109218070F
:1050A0001092170761E00E94DF2410921D071092F2
:1050B0001C0710921F0710921E07109221071092D2
:1050C00020071092230710922207109225071092B2
:1050D0002407D0923307C092320760E08CE10E942F
:1050E0000F258CE190E090932D0780932C07F09290
:1050F0002F07E0922E07109331070093300710928C
:1051000046071092450710923807D0933507C09391
:105110003407109237071092360761E00E94DF24AF
:1051200010923C0710923B0710923E0710923D07E9
:105130001092400710923F071092420710924107C9
:10514000109244071092430710924C0710924B079D
:1051500010924E0710924D071092500710924F0771
:10516000109252071092510783E994E0E9E7F2E0C8
:10517000DF019C011D9221503040E1F710923E0268
:1051800010923D0280E791E090933C0280933B02B5
:1051900010927602109277021092780210924402D6
:1051A0001092430210924602109245021092480259
:1051B00081E08093470282E28093490210924E027E
:1051C00010924D02E2E6F2E09FEF8EE08E0F919397
:1051D0008E13FDCF81E080935F022BE439E13093A1
:1051E0005502209354028093560210925702109257
:1051F000580280E48093590210925A028DEF98E190
:10520000909371028093700280E191E0909342024A
:105210008093410282E180936D028FE392E00E94CD
:10522000891C8CE791E090933C0280933B02DF91D4
:10523000CF911F910F91FF90EF90DF90CF90089545
:10524000789484B5826084BD84B5816084BD85B561
:10525000826085BD85B5816085BD80916E0081606D
:1052600080936E0010928100809181008260809313
:105270008100809181008160809381008091800015
:105280008160809380008091910082608093910082
:105290008091910081608093910080919000816065
:1052A000809390008091C10084608093C1008091C0
:1052B000C10082608093C1008091C10081608093B1
:1052C000C1008091C30081608093C3008091C000C1
:1052D00082608093C0008091C20081608093C20090
:1052E00080917A00846080937A0080917A00826055
:1052F00080937A0080917A00816080937A00809117
:105300007A00806880937A001092D1011092F7079A
:105310001092F4078091D70081608093D70080EAD3
:105320008093D80089B5806189BD89B5826089BDC7
:1053300009B400FEFDCF61E070E080E090E00E94E3
:105340004B258091D8008F7C80618093D80080911C
:10535000E000807F8093E0008091E1008E7E80936A
:10536000E1008DE08093E200559A209AEEEFFFE78E
:10537000859194918B3F9C4D19F481E08093F607C1
:105380000E948A1F0E9435266093880670938906C2
:1053900080938A0690938B06C4E8D1E08991882394
:1053A00021F062E00E940F25F9CF61E081E10E94C7
:1053B0000F2581E080935F028CE291E090931007CB
:1053C00080930F0790932F0780932E0789EB99E026
:1053D00090931B0780931A0785EB99E090931D0724
:1053E00080931C078EEA99E0909321078093200711
:1053F0008BEA99E0909323078093220787EA99E04C
:1054000090933A078093390783EA99E090933C0799
:1054100080933B078CE999E09093400780933F0786
:1054200089E999E0909342078093410710928106A1
:1054300080914B0790914C0790934E0780934D07B6
:105440008DE990E190934C0780934B078091510731
:10545000909152079093500780934F070E94A81491
:1054600080E0C82E80E0D82E9DE9A92E90E1B92ECB
:10547000EE24E394809180068F5F809380061092E3
:105480007B068DE097E00E948B268CE297E00E94DD
:105490008B2680917B06882351F00E9435266093ED
:1054A00088067093890680938A0690938B060E94E3
:1054B0003526009188061091890620918A06309140
:1054C0008B06DC01CB01801B910BA20BB30B813C43
:1054D0009742A940B105B0F01092810680914B0728
:1054E00090914C0790934E0780934D07B0924C07D4
:1054F000A0924B07809151079091520790935007CB
:1055000080934F0780914B0790914C07009709F4C7
:1055100049C020918106211108C0E0928106E091E6
:105520004B07F0914C0709953DC020917B06211156
:10553000F4CF85529F40B1F504E811E0E801C4586A
:10554000D140F801F1908F01FF20D9F08F2D0E94FA
:10555000B624892B99F700E010E005C00F5F1F4FBC
:105560000A301105B9F062E370E080E090E00E943B
:105570004B258F2D0E94B624892B81F30430110511
:105580001CF480E090E009C0083011051CF4CE0145
:10559000019603C0CE010196806180937B06892B22
:1055A00009F0BBCF80917802811106C0E0927802A9
:1055B0008FE392E00E94891CC0914102D091420287
:1055C000E0917002F091710282E00995E091700221
:1055D000F091710281E0099520E030E044E1BE01E4
:1055E0008FE392E00E94851C22E732E047E1BE0192
:1055F0008FE392E00E94851CE0917002F0917102AD
:1056000080E0099582E896E00E94B01380918006C0
:1056100084FF05C042E06EE18EE70E94FD13E09139
:105620004F07F0915007309709F00995E0914D022E
:10563000F0914E02309719F08FE392E009950091B6
:10564000410210914202E0917002F091710282E0F9
:105650000995E0917002F091710281E0099520E0D6
:1056600030E045E1B8018FE392E00E94851CC82F2D
:10567000882341F022E732E047E1B8018FE392E06E
:105680000E94851CE0917002F091710280E0099502
:10569000C111B8CFC114D10409F4ECCE0E940000AE
:1056A000E9CEF999FECF92BD81BDF89A992780B5D0
:1056B0000895262FF999FECF1FBA92BD81BD20BD56
:1056C0000FB6F894FA9AF99A0FBE01960895A1E2DE
:1056D0001A2EAA1BBB1BFD010DC0AA1FBB1FEE1F6C
:1056E000FF1FA217B307E407F50720F0A21BB30BB7
:1056F000E40BF50B661F771F881F991F1A9469F733
:1057000060957095809590959B01AC01BD01CF018E
:105710000895EE0FFF1F0590F491E02D099481E0AC
:1057200090E0F8940C94A22EFB01DC0104C08D9152
:105730000190801921F441505040C8F7881B990B03
:105740000895FB01DC0102C001900D9241505040D0
:10575000D8F708956817790768F4FB01DC01E40FB6
:10576000F51FA40FB51F02C002900E924150504089
:10577000D8F708950C94A12BDC0101C06D93415022
:105780005040E0F70895FB01DC0101900D920020EC
:10579000E1F70895AEE0B0E0E0EDFBE20C94792E85
:1057A0000D891E8986E08C831A8309838FEF9FE71A
:1057B0009E838D83AE01475E5F4F6F89788DCE01EA
:1057C00001960E94ED2B2F813885F801E20FF31F1F
:1057D00010822E96E4E00C94952EACE0B0E0E3EF5E
:1057E000FBE20C946B2E7C016B018A01FC01178299
:1057F0001682838181FFBDC1CE0101964C01F70164
:105800009381F60193FD859193FF81916F01882328
:1058100009F4ABC1853239F493FD859193FF8191F1
:105820006F01853229F4B70190E00E94D52DE7CFB2
:10583000512C312C20E02032A0F48B3269F030F46E
:10584000803259F0833269F420612CC08D3239F0F6
:10585000803339F4216026C02260246023C0286090
:1058600021C027FD27C030ED380F3A3078F426FFED
:1058700006C0FAE05F9E300D1124532E13C08AE05B
:10588000389E300D1124332E20620CC08E3221F44C
:1058900026FD6BC1206406C08C3611F4206802C05E
:1058A000883641F4F60193FD859193FF81916F0154
:1058B0008111C1CF982F9F7D9554933028F40C5FB0
:1058C0001F4FFFE3F9830DC0833631F0833771F04A
:1058D000833509F05BC022C0F801808189830E5FA7
:1058E0001F4F44244394512C540115C03801F2E059
:1058F0006F0E711CF801A080B18026FF03C0652DDA
:1059000070E002C06FEF7FEFC5012C870E94CA2DA7
:105910002C0183012C852F77222E17C03801F2E04D
:105920006F0E711CF801A080B18026FF03C0652DA9
:1059300070E002C06FEF7FEFC5012C870E94BF2D82
:105940002C012C852068222E830123FC1BC0832D73
:1059500090E048165906B0F4B70180E290E00E944A
:10596000D52D3A94F4CFF50127FC859127FE81913E
:105970005F01B70190E00E94D52D31103A94F1E01B
:105980004F1A51084114510471F7E5C0843611F0E3
:10599000893639F5F80127FF07C06081718182815E
:1059A00093810C5F1F4F08C060817181072E000C2E
:1059B000880B990B0E5F1F4F2F76722E97FF09C031
:1059C00090958095709561957F4F8F4F9F4F206880
:1059D000722E2AE030E0A4010E940D2EA82EA818F5
:1059E00044C0853729F42F7EB22E2AE030E025C04E
:1059F000F22FF97FBF2E8F36C1F018F4883579F079
:105A0000B4C0803719F0883721F0AFC02F2F206144
:105A1000B22EB4FE0DC08B2D8460B82E09C024FFB9
:105A20000AC09F2F9660B92E06C028E030E005C05E
:105A300020E130E002C020E132E0F801B7FE07C00B
:105A400060817181828193810C5F1F4F06C06081EC
:105A5000718180E090E00E5F1F4FA4010E940D2E27
:105A6000A82EA818FB2DFF777F2E76FE0BC0372DB2
:105A70003E7FA51450F474FE0AC072FC08C0372D96
:105A80003E7E05C0BA2C372D03C0BA2C01C0B52C00
:105A900034FF0DC0FE01EA0DF11D8081803311F449
:105AA000397E09C032FF06C0B394B39404C0832F7B
:105AB000867809F0B39433FD13C030FF06C05A2C2A
:105AC000B31418F4530C5B18B32CB31468F4B70177
:105AD00080E290E03C870E94D52DB3943C85F5CFC1
