:100000000C94F4080C941C090C941C090C941C0905
:100010000C941C090C941C090C941C090C941C09CC
:100020000C941C090C941C090C94ED290C947F2849
:100030000C941C090C941C090C941C090C941C09AC
:100040000C941C090C941C090C941C090C941C099C
:100050000C941C090C941C090C941C090C94392256
:100060000C941C090C941C090C941C090C941C097C
:100070000C941C090C941C090C941C090C941C096C
:100080000C941C090C941C090C941C090C941C095C
:100090000C941C090C941C090C941C090C941C094C
:1000A0000C941C090C941C090C941C095A235D2304
:1000B0004C23502356237E237E237E2361236523F6
:1000C00069236F2373237E237923FFE0FFD1AFFFE2
:1000D00032FFD0FFFEFFE0FFD1AEFFD0FFFEFFE01A
:1000E000FFD11000FFFEFFD0FFE0FFC1FFD1AED572
:1000F00080A81FD300408D142002A1C8DA0281CF4E
:10010000D9F1DB402EA4A6AFFFD0FFFE01060C0004
:10011000FE070135026B207FFE0AFE08FE0C006020
:1001200022176780808080800080173363A0A0A0A2
:1001300002566650F85050F8500159692070A8A036
:100140007028A87020025767C8C8102040989802ED
:10015000576740A0A040A890682713638080801153
:1001600039692040408080804040201139698040BA
:100170004020202040408002576720A8702070A8AF
:10018000200355652020F820200133636060C005FE
:100190005161F8122262C0C0025767081010204057
:1001A000408012476760909090909060123767404F
:1001B000C040404040E0025767708808102040F877
:1001C000025767F8081030088870025767103050DF
:1001D00090F81010025767F880F0080888700257EE
:1001E00067304080F0888870025767F80810102048
:1001F000202002576770888870888870025767705F
:10020000888878081060122565C0C000C0C001361B
:10021000666060006060C013356520408040200447
:100220005363F800F813356580402040800257671B
:10023000708810202000200257677088B8A8B88006
:1002400070025767708888F8888888025767F04876
:1002500048704848F0025767708880808088700234
:100260005767F04848484848F0025767F88080F0E0
:100270008080F8025767F88080F08080800257679E
:1002800070888080988870025767888888F8888886
:1002900088123767E04040404040E002576738101E
:1002A00010101090600257678890A0C0A09088023C
:1002B0005767808080808080F802576788D8A88838
:1002C0008888880257678888C8A8988888025767EE
:1002D00070888888888870025767F08888F08080E6
:1002E0008002576770888888A89068025767F088EE
:1002F00088F0A09088025767708880700888700224
:100300005767F82020202020200257678888888897
:1003100088887002576788888888505020025767FD
:1003200088888888A8A850025767888850205088F5
:100330008802576788885020202020025767F808D5
:1003400010204080F8113969E080808080808080B2
:10035000E002576780404020101008113969E02002
:10036000202020202020E007536320508800516186
:10037000F81733638040200255657008788878024A
:1003800057678080F0888888F0025565708880887B
:1003900070025767080878888888780255657088E1
:1003A000F08070025767304840E040404000576797
:1003B000708888887808700257678080F0888888FD
:1003C000881237674000C0404040E0104969100083
:1003D0003010101010906002576780808890E09075
:1003E00088123767C04040404040E0025565D0A8C1
:1003F000A8A8A8025565B0C8888888025565708885
:10040000888870005767F0888888F0808000576778
:1004100078888888780808025565B0C8808080028E
:10042000556578807008F00257672020F82020205A
:1004300018025565888888986802556588888850AC
:10044000200255658888A8A850025565885020501C
:100450008800576788888850204080025565F810CA
:100460002040F81139692040404080404040202120
:100470001969808080808080808080113969804007
:100480004040204040408004536348A890FF00094A
:100490001200FC0A01F203E120FFFD0EFD0BFD003E
:1004A00000000908FD020B0B090300C0C0C0C0C05A
:1004B000C0C00000C0C0050404090207D8D8D8D8BD
:1004C000070A0A0901006C6C6CFE6C6CFE6C6C6CAB
:1004D000080B0B0900FF187EDBD8783C1E1BDB7E67
:1004E00018080A0A09000073DEDE6C1818367B7BD8
:1004F000CE080A0A09000070D8D8D87073DECCDEA6
:1005000073020404090307C0C0C0C0040C0C090234
:10051000FF306060C0C0C0C0C0C0606030040C0C60
:100520000902FFC060603030303030306060C00899
:10053000070709000118DB7E3C7EDB180807070966
:100540000001181818FF1818180304040903FEE026
:10055000E060C0060101090104FC03020209030076
:10056000E0E0080A0A0900000306060C18183060CB
:1005700060C0070A0A090100386CC6C6C6C6C6C6EE
:100580006C38080A0A090000183878D818181818A2
:1005900018FF070A0A090100386CC606060C183055
:1005A00060FE070A0A090100FE060C18380C060650
:1005B000CC78070A0A0901000C1C3C6CCCCCFE0C60
:1005C0000C0C070A0A090100FEC0C0C0F80C0606A0
:1005D000CC78070A0A0901003C60C0C0F8CCC6C646
:1005E0006C38070A0A090100FE060C0C1818303096
:1005F0003030070A0A090100386CC66C386CC6C670
:100600006C38070A0A090100386CC6C66E3E060639
:100610000C78030707090300E0E0000000E0E003B6
:1006200009090903FEE0E0000000E0E060C00609FF
:10063000090901000C183060C06030180C07040470
:10064000090102FE0000FE060909090100C0603030
:10065000180C183060C0070A0A090100386CC60679
:100660000C1830300030090A140900003E00630005
:10067000CD80D580D580D580D580CF0060003E006C
:10068000070A0A090100103838386C7C6CC6C6C6E7
:10069000070A0A090100FCC6C6C6FCC6C6C6C6FCD7
:1006A000070A0A0901003C66C0C0C0C0C0C0663C61
:1006B000070A0A090100F8CCC6C6C6C6C6C6CCF8E9
:1006C000070A0A090100FEC0C0C0F8C0C0C0C0FED1
:1006D000070A0A090100FEC0C0C0F8C0C0C0C0C0FF
:1006E000070A0A090100386CC6C0C0CEC6C66C38FD
:1006F000070A0A090100C6C6C6C6FEC6C6C6C6C6E1
:10070000060A0A090100FC3030303030303030FC4D
:10071000070A0A0901001E0C0C0C0C0C0CCCCC783E
:10072000070A0A090100C6CCD8F0E0F0D8CCC6C64A
:10073000070A0A090100C0C0C0C0C0C0C0C0C0FED6
:10074000070A0A090100C6EEFED6C6C6C6C6C6C658
:10075000070A0A090100C6C6E6F6DECEC6C6C6C648
:10076000070A0A0901007CC6C6C6C6C6C6C6C67C3C
:10077000070A0A090100F8CCC6C6CCF8C0C0C0C040
:10078000080B0B0901FF386CC6C6C6C6C6DE6C3E38
:1007900003070A0A090100FCC6C6C6C6FCD8CCC6B7
:1007A000C6070A0A0901007CC6C0C07C060606C648
:1007B0007C060A0A090100FC30303030303030301D
:1007C00030070A0A090100C6C6C6C6C6C6C6C66C38
:1007D00038070A0A090100C6C6C66C6C6C3838387E
:1007E00010070A0A090100C6C6C6C6D6D6D6FEEE4E
:1007F00044070A0A090100C6C66C381010386CC6D6
:10080000C6080A0A090000C3C3663C18181818185D
:1008100018070A0A090100FE06060C183060C0C05D
:10082000FE050C0C0902FFF8C0C0C0C0C0C0C0C0AB
:10083000C0C0F8080A0A090000C060603018180C2F
:10084000060603040C0C0902FFF030303030303063
:1008500030303030F0080404090006183C66C30844
:1008600001010900FFFF04030309020AC060300709
:1008700007070901007C06067EC6C67E070A0A092C
:100880000100C0C0C0FCC6C6C6C6C6FC0707070933
:1008900001007CC6C0C0C0C67C070A0A0901000668
:1008A00006067EC6C6C6C6C67E0707070901007CC7
:1008B000C6C6FEC0C67C060A0A090100386C6C6018
:1008C00060F060606060070A0A0901FD7ECCCCCC54
:1008D00078C07CC6C67C070A0A090100C0C0C0FCFB
:1008E000C6C6C6C6C6C6060A0A090100303000F0F0
:1008F0003030303030FC050D0D0902FD181800387D
:10090000181818181818D8D870070A0A090100C052
:10091000C0C0CCD8F0F0D8CCC6060A0A090100F055
:100920003030303030303030FC080707090000FE2E
:10093000DBDBDBDBDBC3070707090100DCE6C6C640
:10094000C6C6C6070707090100386CC6C6C66C389C
:10095000070A0A0901FDF8CCC6C6C6CCF8C0C0C05B
:10096000070A0A0901FD3E66C6C6C6663E060606B9
:10097000070707090100DC76606060606007070711
:100980000901007CC6C07C06C67C07090909010074
:100990003030FC30303030361C070707090100C604
:1009A000C6C6C6C6C67E070707090100C6C66C6C68
:1009B000383810080707090000C3C3DBDBDBFF661C
:1009C000070707090100C66C3810386CC6070A0A09
:1009D0000901FDC6C66C6C6C383830B0600607077C
:1009E000090100FC0C183060C0FC060B0B0901006B
:1009F0003C60606060C0606060603C020C0C090399
:100A0000FFC0C0C0C0C0C0C0C0C0C0C0C0060B0BCB
:100A1000090100E0303030301C30303030E0080365
:100A20000309000773DBCEFFFFFFFFFFFFFFFFFFA0
:100A3000FFFFFFFFFFFFFFFFFFFFFFFFFFFFFFFFC6
:100A4000FFFFFFFFFFFFFFFFFF070D0D0901006C18
:100A50006C00FEC0C0C0F8C0C0C0C0FE080C0C09CD
:100A600000FEFE3030303E33333333330306070E9F
:100A70000E0901000C183000FEC0C0C0C0C0C0C0CC
:100A8000C0C0070A0A0901003C66C0C0F0C0C0C06F
:100A9000663C070A0A0901007CC6C0C07C0606063F
:100AA000C67C060A0A090100FC3030303030303094
:100AB00030FC060D0D0901006C6C00FC303030304C
:100AC00030303030FC070A0A0901001E0C0C0C0CF7
:100AD0000C0CCCCC78090A140900007C006C006C6A
:100AE000006C006F006D806D806D806D80EF000880
:100AF0000A0A090000D8D8D8D8FEDBDBDBDBDE0829
:100B00000A0A090000FE3030303E333333333307F6
:100B10000E0E0901000C183000C6CCD8F0E0F0D859
:100B2000CCC6C6FF080D0D090000361C00636336F5
:100B300036361C1C18D870080C0C0900FEC3C3C341
:100B4000C3C3C3C3C3C3FF1818070A0A09010010AF
:100B50003838386C7C6CC6C6C6070A0A090100FC26
:100B6000C0C0C0FCC6C6C6C6FC070A0A090100FC14
:100B7000C6C6C6FCC6C6C6C6FC070A0A090100FEF0
:100B8000C0C0C0C0C0C0C0C0C0080C0C0900FE3E40
:100B90003636363666666666FFC3C3070A0A09013B
:100BA00000FEC0C0C0F8C0C0C0C0FE080A0A0900EC
:100BB00000DBDB7E7E3C7E7EDBDBDB070A0A090195
:100BC000007CC6060C180C0606C67C070A0A09013A
:100BD00000C6C6C6CEDEF6E6C6C6C6070D0D0901BE
:100BE000006C3800C6C6C6CEDEF6E6C6C6C6070A24
:100BF0000A090100C6CCD8F0E0F0D8CCC6C6070A76
:100C00000A0901001E3636363666666666C6070A6B
:100C10000A090100C6EEFED6C6C6C6C6C6C6070A83
:100C20000A090100C6C6C6C6FEC6C6C6C6C6070AAB
:100C30000A0901007CC6C6C6C6C6C6C6C67C070A67
:100C40000A090100FEC6C6C6C6C6C6C6C6C6070A8B
:100C50000A090100F8CCC6C6CCF8C0C0C0C0070A5B
:100C60000A0901003C66C0C0C0C0C0C0663C060A9C
:100C70000A090100FC303030303030303030080AA2
:100C80000A09000063633636361C1C18D870080A3F
:100C90000A090000187EDBDBDBDBDBDB7E18080AE1
:100CA0000A090000C3C3663C18183C66C3C3070C9E
:100CB0000C0901FECCCCCCCCCCCCCCCCCCFE0606EA
:100CC000070A0A090100C6C6C6C67E06060606064B
:100CD000080A0A090000DBDBDBDBDBDBDBDBDBFF3D
:100CE000090C180900FEDB00DB00DB00DB00DB0089
:100CF000DB00DB00DB00DB00FF8001800180080AF5
:100D00000A090000F03030303C363333363C080AF4
:100D10000A090000C3C3C3C3F3DBDBDBDBF3080A50
:100D20000A090000C0C0C0C0FCC6C3C3C6FC070A95
:100D30000A09010078CC06061E060606CC78080AC9
:100D40000A090000CEDBDBDBFBDBDBDBDBCE070AEB
:100D50000A0901007EC6C6C6C67E3666C6C6070735
:100D6000070901007C06067EC6C67E070A0A09013D
:100D7000000C78C0FCC6C6C6C6C67C0707070901BA
:100D800000FCC6C6FCC6C6FC070707090100FEC07A
:100D9000C0C0C0C0C00708080901FF3C2C6C6CCC67
:100DA000CCFE820807070900003C66C3FFC0633E13
:100DB000080707090000DBDB7E3C7EDBDB0707075B
:100DC0000901007CC6061C06C67C0707070901004E
:100DD000C6C6CED6E6C6C6070A0A0901006C3800A8
:100DE000C6C6CED6E6C6C6070707090100C6CCD8D8
:100DF000F0D8CCC60707070901001E3636666666BE
:100E0000C6070707090100C6EEFED6C6C6C6070715
:100E100007090100C6C6C6FEC6C6C6070707090100
:100E2000007CC6C6C6C6C67C070707090100FEC609
:100E3000C6C6C6C6C6070A0A0901FDFCC6C6C6C69E
:100E4000C6FCC0C0C00707070901007CC6C0C0C0FF
:100E5000C67C080707090000FF181818181818079B
:100E60000A0A0901FDC6C6C6C6C6C67E06867C0835
:100E70000D0D0900FD1818187EDBDBDBDBDB7E18AF
:100E80001818080707090000C3663C183C66C3072A
:100E900009090901FEC6C6C6C6C6C6FE060607077C
:100EA00007090100C6C6C67E060606080707090030
:100EB00000DBDBDBDBDBDBFF0809090900FEDBDB3A
:100EC000DBDBDBDBFF0303080707090000F0303042
:100ED0003E33333E080707090000C3C3C3F3DBDB1F
:100EE000F3070707090100C0C0C0FCC6C6FC07071E
:100EF000070901007CC6061E06C67C080707090014
:100F000000CEDBDBFBDBDBCE0707070901007EC67B
:100F1000C67E3666C6090A14090000F000F000D843
:100F200000D800DB00DF80DF80DB00D800DF800737
:100F30000A0A0901006666007CC6C6FEC0C67C07B8
:100F40000C0C0901FE60F8607C66666666666606E3
:100F50001C070B0B0901000C183000FEC0C0C0C0FC
:100F6000C0C00707070901007CC2C0F0C0C27C07EF
:100F700007070901007CC2C07C06867C060A0A09B4
:100F80000100303000703030303030FC060A0A0981
:100F90000100CCCC00703030303030FC060D0D0933
:100FA00001FD0C0C001C0C0C0C0C0CCCCCCC7809EE
:100FB000070E0900003C006C006C006F006D80EDB6
:100FC00080CF00080707090000D8D8D8FEDBDBDE99
:100FD000070A0A09010060F8607C66666666666654
:100FE000070B0B0901000C183000C6CCD8F0D8CC88
:100FF000C6060B0B0901FF78CCC078CCCCCC780CA2
:10100000CC78070D0D0901FD6C3800C6C6C6C6C6F2
:10101000C67E06C67C0609090901FECCCCCCCCCC28
:10102000CCFC303005010906A1018502050719E055
:1010300029E71500250175019508810295017508BC
:1010400081039506750815002565050719002965B2
:101050008100C000000000000000002A2B280000D2
:101060000000000000000000000000000000000080
:101070000000002C9EB4A0A1A2A434A6A7A5AE3661
:101080002D3738271E1F20212223242526B333B6CF
:101090002EB7B89F8485868788898A8B8C8D8E8FA2
:1010A000909192939495969798999A9B9C9D2F31A5
:1010B00030A3AD350405060708090A0B0C0D0E0F09
:1010C000101112131415161718191A1B1C1DAFB185
:1010D000B0B5000000000200090F00000304010089
:1010E0000C000000000000000000000000000000F4
:1010F0000000040802011040804010204080408021
:10110000080204018040201002011080102040409D
:10111000200404040404030405020202020403027E
:10112000020202060606060606040402020204047F
:10113000000000002300260029002C002F000000E2
:101140000000250028002B002E00310000000000C8
:10115000240027002A002D003000080B00020202A4
:101160000100090400000102020000052400100132
:1011700005240101010424020605240600010705D7
:10118000810310004009040100020A000000070565
:101190000202400000070583024000001201000225
:1011A000EF020140412336800001010203011201D8
:1011B00000020000004041233680000101020301CB
:1011C00041726475696E6F204C4C430041726475C6
:1011D000696E6F204C656F6E6172646F0004030965
:1011E00004005413BB1F172511241FBECFEFDAE0F4
:1011F000DEBFCDBF12E0A0E0B1E0EEE8FBE502C04B
:1012000005900D92A032B107D9F728E0A0E2B2E034
:1012100001C01D92AF35B207E1F711E1C8EED1E18F
:1012200004C02297FE010E94A42AC23ED107C9F73A
:101230000E948E2A0C94C52D0C94000080E28093AD
:101240006006089582E280936006089581E08093AD
:10125000610684E280936006089510926106089505
:1012600081E280936006089583E28093600608958A
:1012700081E08093620685E2809360060895109273
:1012800062060895CF93DF93EC01262F4CAD6BAD32
:1012900004960E941C1A2BAD992787FD9095820F0A
:1012A000911D8BAF81E090E0DF91CF910895DC013B
:1012B000ED91FC910280F381E02D099404960C9449
:1012C0003C1AAF92BF92CF92DF92EF92FF920F93B0
:1012D0001F93CF93DF93CDB7DEB766970FB6F89421
:1012E000DEBF0FBECDBF25E231E04DE064E180E21C
:1012F00092E00E945E096CE071E084E292E00E945C
:10130000C11A81E7C82E86E0D82ECE0101967C0155
:1013100011E0B82EAF2CF60181916F01982F9F70CC
:101320009063F70191937F018823C1F085FF02C08C
:1013300043E101C04DE184FF09C04F5F02E023E0BB
:10134000612F84E292E00E94911E08C0042F23E0E6
:10135000210F612F84E292E00E94D51A1A5F19379B
:10136000D1F61D8A2B2D3A2D4CE160E080E292E00F
:101370000E945E0966960FB6F894DEBF0FBECDBF21
:10138000DF91CF911F910F91FF90EF90DF90CF9061
:10139000BF90AF9008950F931F93CF93DF93CDB776
:1013A000DEB760970FB6F894DEBF0FBECDBF409199
:1013B0005E0650915F0680E8E1E7F6E0DF011D92EE
:1013C0008A95E9F7FA01E25AFD4F8589882359F198
:1013D0004F5F5F4F80E090E0483EB3E05B07D8F49A
:1013E000FA01E25AFD4F258930E0223031058CF0B8
:1013F0002A3031054CF08034910544F4FC01EF585B
:10140000F94F2083019602C081E490E04F5F5F4F67
:10141000E3CF232B41F002E024E04EE169E784E2D0
:1014200092E00E94911E1092910621E736E043E17E
:1014300060E080E292E00E945E0980915E069091F9
:101440005F06892B41F002E024E040E069E784E296
:1014500092E00E94911E6CE071E084E292E00E94B2
:10146000C11A809168061F928F93809167061F9220
:101470008F9388E791E09F938F938E010F5F1F4FAB
:101480001F930F930E94DE2A98014EE160E080E2F4
:1014900092E00E945E090FB6F894DEBF0FBECDBF8A
:1014A00060960FB6F894DEBF0FBECDBFDF91CF912F
:1014B0001F910F9108950E9461096CE071E084E230
:1014C00092E00E94C11A2FE231E047E060E080E242
:1014D00092E00C945E090E9461096CE071E084E284
:1014E00092E00E94C11A23E331E047E060E080E22D
:1014F00092E00C945E09FC01EE52FB4FDC01AC5211
:10150000BB4F6115710529F42D913C9131832083E6
:1015100006C0208131812D933C9371836083FC014F
:10152000EA52FB4FDC01A852BB4F4115510529F48B
:101530008D919C91918380830895808191818D9379
:101540009C935183408308955D9A61E081E10E94FC
:10155000B823109264060E94832260936D067093F4
:101560006E0680936F069093700680E8E1E7F6E0E0
:10157000DF011D928A95E9F7EFE5F2E0819188237A
:1015800029F041E659E06AEE7FE008C0B2E0E337B7
:10159000FB07A1F74BEC59E06AED75E18EE592E0AF
:1015A0000C947B0AEF92FF920F931F93CF93DF93DC
:1015B00080916006823209F44BC028F48032F1F049
:1015C0008132A1F1CCC0843209F442C008F44EC08B
:1015D000853209F0C4C01092640680913207909160
:1015E00033079093310780933007809136079091AD
:1015F00037079093350780933407B1C02091640674
:101600002F3308F0ACC0822F90E0825A9D4FFC012E
:10161000ED5EFB4F3081332321F02F5F2093640672
:101620009EC0FC01EC5EFB4F108299C08091640665
:10163000815080936406813408F491C0E1E7F6E0BC
:1016400001900020E9F7E257F640E093640687C076
:101650004EE55FE066EB7BE08EE592E0DF91CF91B7
:101660001F910F91FF90EF900C947B0A10926406EB
:1016700049E05FE06AED70E18EE592E00E947B0A4E
:10168000C0915E06D0915F068091630690E001965E
:10169000FE01E25AFD4F7F01C83EF3E0DF0730F55F
:1016A000D70155964C91442309F1242F30E0281797
:1016B000390721F04130D1F02196EACFBE016F5FAA
:1016C0007F4F683EB3E07B0788F4FB01E25AFD4F91
:1016D00085898230A0F748EE53E0461B570B6D58C2
:1016E0007D4FCE018D589D4F0E94B52AE1E7F6E06F
:1016F000DF010D900020E9F78D0101571640CE0162
:10170000800F911F893E934020F008EE13E00C1BE0
:101710001D0B1016110674F4CE01800F911F48EEB8
:1017200053E0481B590BBE016D587D4F8D589D4F9E
:101730000E94BE2A809163068F5FF701858BA80106
:101740004150510961E776E0CE018C589D4FDF9101
:10175000CF911F910F91FF90EF900C94B52ADF91DC
:10176000CF911F910F91FF90EF90089580916006A7
:10177000843240F4823208F067C0803249F081320E
:10178000C9F00895843261F1853209F44FC008959B
:101790008091640690E0825A9D4FFC01ED5EFB4F04
:1017A00020812F5F203220F02F37A9F420EC13C0C6
:1017B00020E211C08091640690E0825A9D4FFC01A6
:1017C000ED5EFB4F20812150203220F02F3B19F499
:1017D0002EE701C02FEFFC01ED5EFB4F208330C0F0
:1017E000809164068F33C0F5E1E7F6E001900020B8
:1017F000E9F7E257F640EF33F10514F0EFE3F0E0DC
:1018000090E0AF01481B590B141615063CF4BC01BF
:101810006F58794F8E58994F0E94BE2AE091640606
:10182000F0E0EF58F94F81E480830AC080916406AC
:1018300090E0BC016E58794F8F58994F0E94D72A7B
:1018400081E080935C06089549E45FE062ED7AE010
:101850008EE592E00C947B0A08950F931F93CF932B
:10186000DF9380916006833209F447C030F48132FF
:1018700009F443C0823239F04CC0843221F0853201
:1018800009F047C03AC080915E0690915F06FC0166
:10189000E25AFD4F25892223E1F1BC016F5F7F4FA2
:1018A000FB01E25AFD4F2589223014F508EE13E0C2
:1018B000E801C61BD70B1C161D065CF56D587D4F45
:1018C000AE018D589D4F0E94B52A80915E06909181
:1018D0005F068C0F9D1FA801481B590B60E070E04C
:1018E0008D589D4F0E94D02A81E080935C0605C0F0
:1018F000683E23E0720790F2D9CF49E05FE06AEDDD
:1019000070E18EE592E0DF91CF911F910F910C94E1
:101910007B0ADF91CF911F910F910895809160060E
:10192000823229F128F4803259F08132A1F00895F1
:101930008432E9F008F447C0853209F444C00895C0
:10194000809163068F5F80936306843008F44CC0F7
:101950001092630608958091630681508093630618
:10196000843008F441C083E08093630608951092A8
:101970006406809163068230A9F08330F9F081110A
:1019800033C010925D061092660610926C0610929B
:101990006B0610926A061092690645E75EE067E9F9
:1019A00073E11EC080E8E1E7F6E0DF011D928A9551
:1019B000E9F74BE55AE063E270E112C04BE25EE00A
:1019C00061E472E10DC080915C06811105C04BECB1
:1019D00059E06AED75E104C04FE35EE06CE273E14B
:1019E0008EE592E00C947B0A0895FF920F931F936B
:1019F000CF93DF93CFEDD1E08E010F5D1140F990D1
:101A0000FF20D1F08F2D0E94EE23892BA9F7C0E093
:101A1000D0E004C02196CA30D105B1F062E370E095
:101A200080E090E00E94B2228F2D0E94EE23892B4D
:101A300089F3C430D1051CF480E090E008C02897F9
:101A40001CF4C801019603C0C80101968061DF91B2
:101A5000CF911F910F91FF9008958F929F92AF9217
:101A6000BF92CF92DF92EF92FF920F931F93CF938B
:101A7000DF93EC016C0129EFC21A2BEFD20AD601D9
:101A80008C918F5F8C938E010E5F1B4FF80110823B
:101A9000CE018C569B4F0E946B21CE018D549B4FE3
:101AA0000E946B21D8018C91FE01E15FFB4F7F0109
:101AB000882341F00E948322D7016D937D938D93FB
:101AC0009C9313970E948322F70180809180A280CB
:101AD000B380681979098A099B099E012E523B4FF0
:101AE0007901DE01AA52BB4F5D01613C774289401A
:101AF0009105A8F0FE01E85FFB4F1082F90180819B
:101B0000918132969183808384EA9AE0D9018D9302
:101B10009C93349680819181F50191838083F701B4
:101B2000808191810097F9F04E01F8EF8F1AFBEF59
:101B30009F0AD4012C91211108C081E0F401808317
:101B4000D701ED91FC9109950EC0F801208121117A
:101B5000F4CF8A5D954139F4CE010E94F50CD8018D
:101B60008C938111EACF80915D02811107C081E0E1
:101B700080935D0284E292E00E94391C84E292E04C
:101B80000E94681C6EE874E084E292E00E94C11A30
:101B9000D6018C9184FF08C002E022E04EE16EE79E
:101BA00084E292E00E94911ED501ED91FC91309764
:101BB00009F0099584E292E00E946D1C8111E2CF48
:101BC000DF91CF911F910F91FF90EF90DF90CF9019
:101BD000BF90AF909F908F9008958EE592E00C9407
:101BE0002D0DFF920F931F93CF93DF938B01EA018B
:101BF0006CE071E084E292E00E94C11AF801019069
:101C00000020E9F73197E01BF10B8E2F880F8E0F24
:101C1000880F90E8F92E6F2D681B980147E080E24D
:101C200092E00E945E09FE0101900020E9F73197E1
:101C3000EC1BFD0B8E2F880F8E0F880F6F2D681BEE
:101C40009E014EE180E292E0DF91CF911F910F91D2
:101C5000FF900C945E098091650684FF08C027E31D
:101C600031E045E161E080E292E00E945E0942E4F9
:101C700051E065E471E08EE592E00C94F10D809105
:101C8000650684FF08C029E431E045E161E080E2B7
:101C900092E00E945E0942E451E065E471E08EE565
:101CA00092E00C94F10D21E736E044E160E080E23F
:101CB00092E00E945E098091650684FF0EC06CE090
:101CC00071E084E292E00E94C11A27E531E040E22F
:101CD00060E080E292E00E945E0942E451E065E447
:101CE00071E08EE592E00C94F10D0F931F93CF936A
:101CF000DF93CDB7DEB7A0970FB6F894DEBF0FBE67
:101D0000CDBF8091690690916A068E010F5F1F4FCB
:101D100097FF06C066E671E0C8010E94D72A15C089
:101D200020916C062F9320916B062F939F938F9396
:101D300083E791E09F938F931F930F930E94DE2A76
:101D40000FB6F894DEBF0FBECDBF980143E161E04E
:101D500080E292E00E945E096CE071E084E292E031
:101D60000E94C11A4EE751E062EA71E08EE592E00E
:101D70000E94F10D20917106822F992787FD909581
:101D80009F932F9380915D061F928F9383E891E03C
:101D90009F938F931F930F930E94DE2A98014EE129
:101DA00061E080E292E00E945E090FB6F894DEBF27
:101DB0000FBECDBFA0960FB6F894DEBF0FBECDBF4D
:101DC000DF91CF911F910F910895FF920F931F9371
:101DD000CF93DF93EC018B01F42E62E0640F4EE1B0
:101DE00080E292E00E945E09CB5FDB4F888190E049
:101DF0008017910741F40CE02CE144E16F2D84E25F
:101E000092E00E943B1EDF91CF911F910F91FF90B6
:101E10000895209164062E3020F030E02D503109D5
:101E200002C020E030E02F58394F4DE061E080E201
:101E300092E00E945E096CE071E084E292E00E9410
:101E4000C11A2FE831E040E050E060E070E08EE53C
:101E500092E00E94E50E24E931E040E250E061E0CA
:101E600070E08EE592E00E94E50E29E931E040E461
:101E700050E062E070E08EE592E00E94E50E2EE90F
:101E800031E040E650E063E070E08EE592E00C94D3
:101E9000E50E0F93809164068E3010F08DE090E097
:101EA00069E0869F602D112400E12BE040E084E290
:101EB00092E00E943B1E0F910C94090F0F938091AA
:101EC000650684FF11C0809164068E3010F08DE0AD
:101ED00090E069E0869F602D112400E12BE040E056
:101EE00084E292E00E943B1E0F910C94090F21E7BF
:101EF00036E04EE061E080E292E00E945E096CE034
:101F000071E084E292E00E94C11A23EA31E040E0ED
:101F100050E060E070E08EE592E00E94E50E22EA7B
:101F200031E040E250E061E070E08EE592E00E9436
:101F3000E50E29E931E040E450E062E070E08EE532
:101F400092E00E94E50E27EA31E040E650E063E0CF
:101F500070E08EE592E00C94E50EFC01EA5FFB4F29
:101F600040814431A0F5DC01AE5FBB4F2C912232A1
:101F700079F030F4203281F0213279F430E00DC074
:101F8000243229F138F0253241F48FEF9FEF089584
:101F900030E303C030E101C030E2DC01A40FB11D29
:101FA000AD5EBB4F2C91222329F02073231711F033
:101FB0004F5F40832081820F911DFC01ED5EFB4F3E
:101FC00080818F5F832B808380E090E0089581E0A3
:101FD00090E008958EE592E00E94AD0F009791F198
:101FE00097FF05C04BE25EE061E472E127C044E187
:101FF00050E061E776E08FE592E00E94A82A892B05
:10200000C9F0109266068091300790913107909345
:1020100033078093320784EA9AE0909331078093E4
:10202000300780913607909137079093350780935A
:10203000340708954BEC59E06AED75E18EE592E0C6
:102040000C947B0A08958EE592E00E94AD0F97FFF5
:1020500005C047E75FE06EE87CE018C0892BD1F04F
:102060001092640684E1E1E7F6E0A1E9B6E00190B0
:102070000D928A95E1F784E1E1E7F6E0DF011D9238
:102080008A95E9F74BE65AE06BE470E18EE592E061
:102090000C947B0A08958EE592E00E94AD0F97FFA5
:1020A00005C047E75FE06EE87CE01CC0892BF1F0DB
:1020B00044E150E061E776E081E996E00E94A82AD9
:1020C000892B79F781E080935C0684E1E1E7F6E013
:1020D000AFE5B2E001900D928A95E1F74FE35EE043
:1020E0006CE273E18EE592E00C947B0A0895CF9345
:1020F000DF93FC01FC5F20813181DC01AB5FBB4FD2
:102100004C917396413068F0433048F0433049F4C5
:102110006CEA71E0CF01DF91CF910C94D72A2F5F49
:102120003F4F40E4EF0119924A95E9F7283ED3E08A
:102130003D0788F4FC01E20FF31FE589EE23B9F1B6
:102140006E2F772767FD70954C9150E04F5F5F4F82
:102150006417750751F4A9014F5F5F4FB901605CC7
:102160007F4FDC01A21BB30B1EC0E13001F1EA304E
:102170001CF446175707DCF02F5F3F4FD7CF4617A9
:102180005707A9F0FC01E40FF51FC5892C2F30E09B
:102190002032310564F0FD01E40FF51FEE5EFB4FC8
:1021A000C0834F5F5F4F483E23E0520740F3DF910B
:1021B000CF91089580916006823221F128F4803217
:1021C00049F08132A1F008958432E1F058F185326E
:1021D00049F10895809163068F5F80936306843090
:1021E00010F0109263068EE592E00C9477108091C7
:1021F00063068150809363068430A8F383E0809364
:102200006306F1CF80916306833029F443E55EE0F5
:102210006DE27CE014C01092640649E45FE062ED78
:102220007AE00DC080915C06811105C04BEC59E04D
:102230006AED75E104C04FE35EE06CE273E18EE5A8
:1022400092E00C947B0ACF93DF93FC01E65FFB4F97
:102250001082DC01A75FBB4F1C9220E030E0AC0194
:102260005C5FEC01C20FD31F6D896623A1F0613062
:1022700061F460816F5F6083EA0168817981621730
:1022800073071CF06C916F5F6C932F5F3F4F283E7C
:10229000D3E03D0731F7DF91CF91089598E04CE806
:1022A000562F5827282F30E035952795822F50FF3D
:1022B00002C0842F82276695915091F708954F921E
:1022C0005F926F927F928F929F92AF92BF92CF92C6
:1022D000DF92EF92FF920F931F93CF93DF93CDB7CF
:1022E000DEB728970FB6F894DEBF0FBECDBF5C01F6
:1022F0008B016A01FC01EA5FFB4F10824115510519
:1023000029F46C018DEEC81A8BEFD80A17FF09C0AB
:10231000F60101900020E9F78F01015011090C1915
:102320001D097901612C712C2501F3EF4F1AFBEF88
:102330005F0A4701E114F10411F476011CC0F701B2
:1023400080818823D1F341E050E0B70187EF97E027
:102350000E9457098FEFE81AF80AF4016081862D70
:102360000E944E11682E712CF2018081918101969C
:1023700091838083DECFC7018C199D098017910757
:102380004CF4F70161917F01862D0E944E11682E59
:10239000712CF1CF17FF02C000E010E0C3018F7372
:1023A0009927806489838AE08A83A801B60187EF30
:1023B00097E00E94570942E050E0BE016F5F7F4FF7
:1023C00087EF97E00E945709F501E35FFB4F0E5F2F
:1023D0001F4F80819181800F911F91838083289668
:1023E0000FB6F894DEBF0FBECDBFDF91CF911F9126
:1023F0000F91FF90EF90DF90CF90BF90AF909F90A4
:102400008F907F906F905F904F900895CF92DF9262
:10241000EF92FF920F931F93CF93DF93EC01C35082
:10242000DC4F18827C0100E010E06701F701619148
:102430007F01C8010E94DA2CF601608188810E9428
:102440004E1188830F5F1F4F0D3FF3E01F0769F7A1
:10245000682F8DEF93E00E94DA2C1882DF91CF91E4
:102460001F910F91FF90EF90DF90CF90089523E997
:1024700034E0FC01A901119241505040E1F70C9465
:102480000612809160068332D1F028F48132B9F0CF
:10249000823231F00895843219F0853201F50FC08F
:1024A0008EE592E00E9437128091300790913107BB
:1024B000909333078093320784EA9AE004C08091B6
:1024C00032079091330790933107809330078091C2
:1024D0003607909137079093350780933407089516
:1024E000BF92CF92DF92EF92FF920F931F93CF9301
:1024F000DF937C01EC01C350DC4F18826C0100E0DB
:1025000010E0C8010E94D22CF60181936F01682F60
:1025100088810E944E11B82E88830F5F1F4F0D3F98
:10252000F3E01F0771F78DEF93E00E94D22CB816ED
:1025300019F0C7010E9437121882DF91CF911F91C5
:102540000F91FF90EF90DF90CF90BF900895EF92A2
:10255000FF920F931F93CF93DF93EC010E947012B1
:102560000E948322FE01E15FFB4F608371838283BF
:1025700093830FED11E0F80181918F01882321F001
:1025800062E00E947F23F7CF61E081E10E947F2318
:1025900061E084E292E00E94951C7E01FCE6EF1A65
:1025A000FBEFFF0A6CE271E0C7010E9457218E0128
:1025B0000D541B4F6CE271E0C8010E9457216EE17F
:1025C00079E0C7010E945B2162E279E0C7010E94C5
:1025D0005F2166E279E0C7010E9463216DE279E044
:1025E000C7010E94672160E379E0C8010E945B2176
:1025F00064E379E0C8010E945F2168E379E0C801E3
:102600000E9463216FE379E0C8010E946721FE0107
:10261000E85FFB4F1082DE01AC52BB4FE653FF4F29
:102620008081918111969C938E9384EA9AE09183A4
:102630008083349614968D919C9191838083CE01F2
:10264000DF91CF911F910F91FF90EF900C94231188
:102650008EE592E00C94A71280916006823261F0C0
:1026600028F4803201F1813291F40BC0843221F0E0
:1026700040F0853261F405C08EE592E00E940612BA
:1026800006C010925C068EE592E00E9470128EE504
:1026900092E00E9423114BEC59E06AED75E18EE562
:1026A00092E00C947B0A0895CF93DF9341E050E0D1
:1026B0006BE170E082EF96E00E94092141E050E07A
:1026C0006CE170E081E197E00E94092110923107EE
:1026D000109230071092330710923207109235078C
:1026E00010923407109237071092360783E994E06E
:1026F000EEE5F2E0DF019C011D9221503040E1F750
:102700001092230210922202C0E2D2E080EF91E008
:102710009983888342E164E071E0CE010E946F16E4
:1027200088EF91E099838883DF91CF910895EF92AC
:10273000FF920F931F93CF93DF93809160068823BE
:1027400059F15D9A61E081E10E94B823109263061D
:102750001092640610925F0610925E0680E8E1E730
:10276000F6E0DF011D928A95E9F780915C06811100
:1027700005C04BEC59E06AED75E104C04FE35EE043
:102780006CE273E18EE592E0DF91CF911F910F91A2
:10279000FF90EF900C947B0A60E081E10E94B823E7
:1027A0001092660687EF97E00E940825811115C0F8
:1027B0008FEF9FEF90936C0680936B0690936A0661
:1027C00080936906F5C020E030E045EB51E06FEF03
:1027D0007FEF8EE592E00E945F1187EF97E00E9405
:1027E000512497FF02C05D9AE3C05D98209169066D
:1027F00030916A062F5F3F4F30936A062093690637
:10280000009164068A30910589F0E02FF0E0EF58DE
:10281000F94F80830F5F0093640607FFC9C01092D1
:102820006A061092690610926406C2C0033058F21C
:10283000E1E7EE2EE6E0FE2EC0E0D0E080E010E022
:1028400001501109C017D1073CF4F70161917F01D4
:102850000E944E112196F6CF10926406FE01EF58A9
:10286000F94F2081332727FD309528272F733327F1
:10287000232B11F083E48BC010828091710680625B
:10288000809371068037C9F08337B9F080915D0677
:10289000882309F47BC080917106823709F443C014
:1028A00034F4863609F46DC0803731F16FC0833758
:1028B00081F0873709F440C069C0A3E7B6E0E9E9D1
:1028C000F6E08D918F73819326E0ED3AF207C9F718
:1028D000E2CF84E1E9E9F6E0AFE5B2E001900D92E4
:1028E0008A95E1F788EE93E0E3E7F2E0DF019C01EF
:1028F0001D9221503040E1F768EE73E080E090E0F7
:102900000E94B22244E150E069E976E08FE592E06E
:102910000E94A82A892B21F481E080935D0639C0AA
:1029200010925D0633C01092730621E736E043E74C
:1029300052E068EE73E032C081E080935C068091E3
:1029400072068F7038E78302C0011124883E43E08D
:102950009407FCF49C012C0F3D1F283E334024F0CB
:10296000C8EED3E0C81BD90BC330D10594F0AE013B
:102970004250510963E776E08D589D4F0E94B52A79
:1029800008C08EE592E00E94061203C08CE480939A
:10299000710620E030E040E050E0BE018EE592E0BC
:1029A000DF91CF911F910F91FF90EF900C945F11E9
:1029B000DF91CF911F910F91FF90EF9008956F924B
:1029C0007F928F929F92AF92BF92CF92DF92EF92BF
:1029D000FF920F931F93CF93DF935C01FC01FC5F89
:1029E000C081D1815D9860E081E10E94B82381ECD3
:1029F00097E00E94D31EF501EC0FFD1F8589813001
:102A000061F42196C83E83E0D80738F4F501EC0F55
:102A1000FD1F858990E00897A4F76E01F8EECF16A8
:102A2000F3E0DF0628F0FCEB6F2EF1E07F2E0DC007
:102A3000F501EC0DFD1D85898823A9F3EFEFCE1A72
:102A4000DE0AECCF8C159D0564F0F4EC6F16F1E016
:102A50007F0609F48CC0F30121913F0130E0CE01E3
:102A6000F1CFF501E80FF91F4589552747FD50952E
:102A700001962417350731F74C01E12CF12C00E0C9
:102A800010E08C149D0434F4F501E80DF91D8589DE
:102A90008A3040F41E141F04C4F681EC97E00E94B3
:102AA000AE1FD3CF0130110561F00230110559F08E
:102AB0000115110509F057C08C3509F44FC0682F76
:102AC0001AC000E010E08A3501F158F4803391F02B
:102AD000803411F581EC97E00E94AE1FE12CF12CBF
:102AE00042C08D35F1F18A3759F08B35A9F402E0F7
:102AF00010E039C06BEC81EC97E00E94981F33C066
:102B00006CE271E080E090E004C068EE73E080E089
:102B100090E00E94B22227C09FEC980F993020F4D9
:102B2000682F6F706F53E7CFE82FEF71F0E0EC5331
:102B3000FE4F60816623B9F085FF08C081EC97E005
:102B40000E94E21EFFEFEF1AFF0A0DC081EC97E032
:102B50000E94501F81E0E81AF10805C001E010E072
:102B600002C000E010E0EFEF8E1A9E0A8ACF68ECF8
:102B700070E080E090E00E94B22281EC97E00E9439
:102B8000D41E68EC70E080E090E00E94B2225D9A72
:102B900061E081E1DF91CF911F910F91FF90EF9064
:102BA000DF90CF90BF90AF909F908F907F906F906D
:102BB0000C94B82360916006623209F446C028F490
:102BC0006032C1F0613229F150C06432F1F108F491
:102BD00040C0653209F049C01092630680E8E1E721
:102BE000F6E0DF011D928A95E9F747E75FE06EE8BE
:102BF0007CE037C080915E0690915F06019797FD5B
:102C000007C0FC01E25AFD4F25892130B9F717C0F2
:102C1000089580915E0690915F06FC01E25AFD4F97
:102C20002589222309F45AC00196883E23E09207A1
:102C300058F4FC01E25AFD4F25892230A8F7909301
:102C40005F0680935E063DC008958EE592E00C9489
:102C5000DF1410925C061092630649E05FE06AEDB3
:102C600070E18EE592E00C947B0A10925F06109260
:102C70005E0680E090E020E030E070E0A0E0462FCB
:102C80004F7050E003C0782FA92F0196883EB3E023
:102C90009B0700F5FC01E25AFD4FE589EE23A9F000
:102CA000E13099F72F5F3F4F2417350761F7909375
:102CB0005F0680935E0664FF04C08EE592E00E948A
:102CC000DF148EE592E00C94231170935E06A093BE
:102CD0005F06F7CF90935F0680935E060895FC0130
:102CE00013AE14AE15AE04960C944B1C0F93FC015E
:102CF0000150040F84A996A9941718F0081728F416
:102D000002C0081750F0041740F42150260F83A981
:102D100095A9961720F4281720F480E007C02817FB
:102D200020F481E0261710F0F8CF81E00F9108958C
:102D3000DB011496ED91FC91159720E030E061E005
:102D40000994DB011496ED91FC91159720E030E099
:102D500063E00994DB011496ED91FC91159720E056
:102D600030E040E064E00994DB011496ED91FC91C1
:102D7000159720E030E041E064E00994DB0114960F
:102D8000ED91FC91159720E030E062E00994DB01C1
:102D90001496ED91FC91159720E030E065E00994E0
:102DA000DB011496ED91FC91159766E00994AF92C2
:102DB000BF92CF92DF92EF92FF920F931F93CF9328
:102DC000DF931F92CDB7DEB75C018B017A0180E003
:102DD000F7014491811109C04F3FD9F1B801C501F4
:102DE0000E94C71681112EC039C04F3FB9F34E3F24
:102DF000B9F1403F38F5403E30F04F70B801C501A1
:102E00000E94BE161FC0403D30F04F70B801C50192
:102E10000E94A11617C0403CB8F0B801C501498313
:102E20000E94AA1649814295407F4E5FC42ED12C44
:102E3000C6010E944418B801C5010E94B416C6011B
:102E40000E94441880E006C047FDFCCF842F90E02C
:102E5000F7CF81E0FFEFEF1AFF0ABACF80E001C0A1
:102E600081E00F90DF91CF911F910F91FF90EF9034
:102E7000DF90CF90BF90AF900895CF93DF93EC0198
:102E80008BA5882381F088E70E94F017882369F0DA
:102E90008EA1811106C00E942118882331F01BA643
:102EA00002C080E4F8CF81E001C080E0DF91CF91E3
:102EB00008951F93CF93DF93142FE9016330B9F086
:102EC00050F4613079F0623009F043C0FC0146A350
:102ED00021E023A73EC0663001F1673059F165302B
:102EE000C1F50EC0FC0186A50E94BE1732C0FC01D0
:102EF00016A221E023A741112CC00E943D1829C031
:102F00000E943D17811103C00E943D1824C0812FEB
:102F10000E94211881111DC0F7CF0E943D17882300
:102F200099F31123B1F089910E942118882361F34C
:102F30001150F7CF0E943D17882331F3112349F038
:102F4000FE0184910E942118882329F021961150B6
:102F5000F5CF81E001C080E0DF91CF911F9108950E
:102F600090913A07911104C080933A076093380713
:102F7000089510923A071092380708958093390700
:102F80001092B90084FF02C08CE001C088E48093F5
:102F9000B8000C94B917CF93DF9300D0CDB7DEB74C
:102FA00020ED37E03A8329839091BC00982391F477
:102FB00029813A81232B49F48091390781FD0AC088
:102FC00081E00E94B01780E006C029813A8121503B
:102FD0003109E8CF81E00F900F90DF91CF910895F4
:102FE000CF93C82F84EA8093BC0061E080E80E9400
:102FF000CB17882309F19091B900987F983021F080
:10300000903111F061E015C0C093BB0084E880935B
:10301000BC0062E080E80E94CB17882369F08091B1
:10302000390781FD0BC08091B900887F883131F06C
:1030300062E082E00E94B01780E001C081E0CF91A1
:1030400008958093BB0084E88093BC0063E080E82F
:103050000E94CB17882369F08091390781FD0BC04E
:103060008091B900887F883231F063E082E00E946D
:10307000B01780E0089581E0089584E98093BC0052
:1030800064E080E10C94CB172EE93FE0009729F033
:10309000F9013197F1F70197F9CF0895BF92CF92D7
:1030A000DF92EF92FF920F931F93CF93DF938C01E8
:1030B000EB01B42E690180E14817B1F1841770F07B
:1030C000EAE04E133CC042E0C8010E94981646EE6A
:1030D00050E0BE01C8010E94D71631C0F1E14F1780
:1030E00031F185E148132BC0EA80FB804EED50E0C2
:1030F000C8010E94D716F7014481406BBE01C80188
:103100000E94C71641E0BE01C8010E94BE16AE0172
:10311000B801C7010E94FA1C882301F140E0BE01FA
:10312000C8010E94A1160BC045ED50E002C04AEC58
:1031300050E0BE01C8010E94D71681E010C0960180
:103140004B2DBE01C801DF91CF911F910F91FF90D0
:10315000EF90DF90CF90BF900C94721D80E0DF91D4
:10316000CF911F910F91FF90EF90DF90CF90BF9084
:103170000895FC01E60FF11D849190E0982F8827B7
:103180003196E4918E0F911D0895FC01849108956C
:103190000E94C518882311F0823011F486E008954A
:1031A00083E0089580E0089566E00C94B91868E023
:1031B0000C94B9180A96FC01849108950B96FC01B1
:1031C00084910895BF92CF92DF92EF92FF920F9376
:1031D0001F93CF93DF93EC01E62E0C811D81C80174
:1031E0000E94C518F82E8C819D810E94C818B82EA7
:1031F00021E0F21619F0CC24CA9402C05FE0C52E7B
:103200008C819D810E94DA18F82E8C819D810E940C
:10321000DE18D82E8C819D810E94D718E0E6EE152D
:1032200038F4009729F0080F191F41E6F42E10C05A
:103230008C819D810E94D418F0E4FE1538F400972B
:1032400029F0080F191F31E4F32E02C00F5E1F4F43
:10325000DE1440F4188A1B8A1C8A198A1A8A80E0B4
:1032600090E050C0DF14B0F32B2D30E0F8018491D2
:103270008F3F19F40F5F1F4F40C0FE1036C08C8186
:103280009D810E94C51898012F5F3F4FF801882348
:1032900011F0823091F484918B8BF90124912C8B65
:1032A000F8013396E491E88BF8013496E491E98BC8
:1032B000F8013596E491EA8B16C09491892F8F70AE
:1032C00082508A8B92959F70998BF9012491822F5D
:1032D0008F708C8B22952F702B8BF8013296E49196
:1032E000E295EF70E88BC8010DC0F8013296E491C9
:1032F000EC210E0F111D020F131FFD1409F4AACFAC
:10330000F394B4CFDF91CF911F910F91FF90EF9085
:10331000DF90CF90BF90089540E0E42FF0E0EE0FF3
:10332000FF1FE050FF4F208131812115310529F029
:103330008217930729F04F5FF0CF80E090E0089567
:1033400081E090E008954F925F927F928F929F92DA
:10335000AF92BF92CF92DF92EF92FF920F931F93A3
:10336000CF93DF931F92CDB7DEB72C01162F742EAB
:10337000FC018481958129830E948C192981892BE4
:1033800019F0203C08F02051622FC2010E94E2187F
:103390006C01009709F43EC0F201848195810E947E
:1033A000C818F82EF201838804899188910E8289C9
:1033B000781A172D101B282D412F692DC2010E944C
:1033C0007616882321F1CF0CD11CF7E08F0E86945E
:1033D00086948694A82CB12C1715C9F0392D760146
:1033E0008E2D8C19881578F4F701049120E0412F77
:1033F000632FC20139830E94841CFFEFEF1AFF0A7A
:103400003981385FEDCFCA0CDB1C1F5FE5CFF201BD
:10341000808901C080E00F90DF91CF911F910F91C3
:10342000FF90EF90DF90CF90BF90AF909F908F90E4
:103430007F905F904F9008950F931F93CF93DF93EA
:1034400000D01F92CDB7DEB78C01DC015596ED910F
:10345000FC9156972B834A83698309954A81480FCB
:103460002B816981C8010F900F900F90DF91CF9150
:103470001F910F910C94A319AF92BF92DF92EF921C
:10348000FF920F931F93CF93DF9300D0CDB7DEB79A
:103490008C01E62EF42EDC015596ED91FC915697A9
:1034A00029833A830995F80E2981A22E3A81B32EF9
:1034B000D12CF50121915F01222341F04F2D6E2D7A
:1034C000C8010E94A319E80ED80EF3CF8D2D0F90DE
:1034D0000F90DF91CF911F910F91FF90EF90DF90B0
:1034E000BF90AF900895DC0114968D919C91159733
:1034F000009709F43FC057962C915797FC01211172
:1035000008C03596E4915896EC935897FC013C9688
:1035100011C0213041F43F96E4915896EC935897AE
:10352000FC01709607C03D96E4915896EC9358972D
:10353000FC013E96849159968C93599758968C919C
:103540005897992787FD909559962C915997821BEA
:10355000910927FD93955A962C915A97203441F062
:10356000829FC0011124F6E096958795FA95E1F7C0
:103570005B968C93089522ED38E1FC01368B258B08
:103580000895CF93DF93EC018C819D818617970777
:1035900049F07D836C83CE010E94731A82ED98E11D
:1035A0009E8B8D8BDF91CF9108958F929F92BF92CA
:1035B000CF92DF92EF92FF920F931F93CF93DF93FF
:1035C0001F92CDB7DEB74C01162FF42E261718F434
:1035D000D62ED21A02C0D22ED61A0F1518F4EF2CFE
:1035E000E01A02C0E02EEF18DE1428F08E2DED2C2C
:1035F000D82EB12C08C0822F202F082F812F1F2DED
:10360000F82EBB24B394211730F48F2DF02E082F01
:10361000812F122F282FCE2CC694F01610F401E023
:1036200001C00FEF2F3F89F42EEF0FC0B11010C073
:103630004F2D612FC40129830E947C1C2981CD1844
:10364000C7FE02C0F00ECE0C1F5F211778F703C033
:10365000412F6F2DEFCF0F90DF91CF911F910F91E1
:10366000FF90EF90DF90CF90BF909F908F90089544
:103670001F93CF93DF93EC011D821C821F821E8259
:10368000198681E0888782E28A871F861E8680E00D
:1036900090E02FEFFE01E80FF91F23A301968E3073
:1036A0009105C1F711E018A3CE010E94BB1A1F8B30
:1036B000188E198E80E48A8F1B8E8EEA9EE19AAB5B
:1036C00089ABDF91CF911F910895DB01ED91FC91C2
:1036D0000994EF92FF921F93CF93DF9300D0CDB761
:1036E000DEB77C01DC01D196ED91FC91D29782E0AE
:1036F00069837A83099520E030E04AE069817A8124
:10370000C7010E94651B182FD701D196ED91FC913E
:10371000D29783E00995D701D196ED91FC91D2978C
:1037200080E00995812F0F900F90DF91CF911F912D
:10373000FF90EF9008950F931F93CF93DF93EC01C9
:103740008B01E9A9FAA982E00995E9A9FAA981E022
:10375000099520E030E044E1B801CE010E94651BEC
:103760009E012D5C3F4F47E1B801CE010E94651BD1
:10377000E9A9FAA980E0DF91CF911F910F910994F7
:10378000FF920F931F93CF93DF93EC018B01E9A975
:10379000FAA982E00995E9A9FAA981E0099520E052
:1037A00030E045E1B801CE010E94651BF82E882368
:1037B00041F09E012D5C3F4F47E1B801CE010E94D0
:1037C000651BE9A9FAA980E009958F2DDF91CF91BA
:1037D0001F910F91FF900895FC01448F258F9C014C
:1037E000245E3F4F42E30C94651BCF93DF931F92FF
:1037F000CDB7DEB79E012F5F3F4F46E40E94651BA9
:1038000089810F90DF91CF910895CF93DF931F921D
:10381000CDB7DEB79E012F5F3F4F47E40E94651B87
:1038200089810F90DF91CF91089520E030E048E446
:103830000C94651BCF93DF93EC016A817B810E941E
:10384000F51B88836A817B81CE010E94051C8983D8
:103850006A817B81CE010E94151C8B879E012D5CA5
:103860003F4F6A817B8147E1CE01DF91CF910C947C
:10387000651BCF93DF93EC016A817B810E94691BFA
:10388000882329F0CE010E941A1C81E001C080E04B
:10389000DF91CF910895EF92FF920F931F93CF93F3
:1038A000DF931F92CDB7DEB77C018B0149830E9465
:1038B000381BF70113830283498146A7C7010F9084
:1038C000DF91CF911F910F91FF90EF900C94391CD5
:1038D000FC01628173810C949B1BCF93DF93EC01FD
:1038E000EE85FF85309709F009956A817B81CE01CD
:1038F000DF91CF910C94C01B362F242FFC016281E5
:103900007381432F0C94EC1B0F93FC0182819381F4
:10391000648F458F278F068F9F01245E3F4F4BE3B7
:10392000BC01CF010F910C94651BFC0160A30895AD
:10393000FC01128280818150838314820895FC01EE
:1039400020818281820F82839181891760F4848132
:103950008F5F84838381820F891710F08FEF890F27
:10396000838381E0089580E00895DC011696ED914F
:10397000FC91179715968C919F01280F311DC90155
:103980001192E817F907E1F70895FC0191E08381AE
:10399000861708F490E021E0461708F020E0322F67
:1039A000392B81E05281451708F480E0832392236C
:1039B000892B0895DC01FB01108212968C911297DD
:1039C000818315968C9115978150828313968C91E3
:1039D00083830895FB0141812381213029F0233025
:1039E00031F468EF640F04C0642F485F01C0642F96
:1039F0000C94C51CFC01CB01BA012681378145819D
:103A00000C94D016DC011696ED91FC911797129646
:103A10008C91481B477081E090E0042E01C0880F14
:103A20000A94EAF7E60FF11D3081222311F0832B6F
:103A300002C08095832380830895FB014181DC01CE
:103A400012962C911297421768F013962C911397A7
:103A5000241740F0608115962C91621718F4248188
:103A60000C94021D0895CF92DF92FF920F931F9343
:103A7000CF93DF9300D0CDB7DEB78C016B01FB0194
:103A8000F2808381813039F070F0823039F08330F8
:103A900041F020E001C021E030E007C020E03FEF2E
:103AA00004C02FEFF9CF20E031E0F7FE08C0B601E7
:103AB000C80129833A830E941D1D3A812981F6019C
:103AC0008081830F80838181820F8183FF0C69F75E
:103AD0000F900F90DF91CF911F910F91FF90DF908A
:103AE000CF9008950F931F93CF93DF938901FB012C
:103AF000C281D3814233F9F068F4453109F147318D
:103B000041F1443181F5CE010E94B51CCE010E94E5
:103B1000981C29C0463411F1473411F14B3319F583
:103B2000B901CE010E94EA1C8823E9F0B801CE0158
:103B30000E94331D18C0B901CE010E941D1D13C083
:103B4000CE010E949F1C882381F0CE010E94B51CEB
:103B50000AC0B901CE010E94DA1C05C08D8101C0E6
:103B60008981F801808381E001C080E0DF91CF91FD
:103B70001F910F910895AF92BF92DF92EF92FF9243
:103B80000F931F93CF93DF931F92CDB7DEB75C01E6
:103B9000E62EF42E122F322FD62ED20E6D2D631B51
:103BA000383050F00FEF20E04F2DC50139830E94CF
:103BB000841C39813850F2CF612F687F6E0D1770E9
:103BC00079F087E081278F5F87700FEF10E001C0E9
:103BD000000F8A95EAF720E04F2DC5010E94841C52
:103BE0000F90DF91CF911F910F91FF90EF90DF9099
:103BF000BF90AF900895AF92BF92DF92EF92FF9285
:103C00000F931F93CF93DF931F92CDB7DEB75C0165
:103C1000F62EE42E122F322FD42ED20E4D2D431B12
:103C2000383050F00FEF21E06F2DC50139830E942D
:103C3000841C39813850F2CF412F487F4E0D1770C8
:103C400079F087E081278F5F87700FEF10E001C068
:103C5000000F8A95EAF721E06F2DC5010E94841CB0
:103C60000F90DF91CF911F910F91FF90EF90DF9018
:103C7000BF90AF900895DF92EF92FF920F931F9342
:103C8000CF93DF93EC01162FF42EE22ED02E0E945C
:103C90007616882319F12E2D4F2D612FCE010E940B
:103CA000BB1D2D2D4F2D612FCE010E94FB1D6FEFEF
:103CB0006E0D610F2D2D4F2DCE010E94FB1D4FEF7C
:103CC0004D0D4F0D2E2D612FCE01DF91CF911F9104
:103CD0000F91FF90EF90DF900C94BB1DDF91CF917F
:103CE0001F910F91FF90EF90DF900895EF92FF9258
:103CF0000F931F93CF93DF93EC01F62EE22E142F38
:103D0000040F2E2D412F6F2DCE010E94BB1D1F5F72
:103D10000113F7CFDF91CF911F910F91FF90EF909B
:103D20000895DF92EF92FF920F931F93CF93DF934B
:103D3000EC01162FF42EE22E0E947616882331F025
:103D40002E2D4F2D612FCE010E94761EDF91CF9137
:103D50001F910F91FF90EF90DF9008950895FC015F
:103D60001382128220E032E0318320838091CD07DC
:103D7000811113C01092BC071092BB0784E290E13E
:103D80009093BE078093BD078FE290E09093C007A9
:103D90008093BF0781E08093CD070E94FB206BEBEF
:103DA00077E00C948C2008950895CF93DF93EB0176
:103DB0000E94FB2028E030E0AE0162E0DF91CF916D
:103DC0000C94A920CF93DF93DC01683818F0E8E762
:103DD000E60F25C0E62FF0E067FF11C0E058F109BB
:103DE00081E090E001C0880FEA95EAF714969C9173
:103DF0001497982B14969C931497E0E010C0ED5AFA
:103E0000FF4EE491EE2309F440C0E7FF08C014968A
:103E10008C911497826014968C931497EF77169672
:103E20008C9116978E1741F117968C9117978E17D4
:103E300019F118968C9118978E17F1F019968C91AC
:103E400019978E17C9F01A968C911A978E17A1F0B0
:103E50001B968C911B978E1779F080E090E0ED0116
:103E6000C80FD91F2E81211102C0EE8305C0019613
:103E700086309105A1F709C0BD016C5F7F4FCD0170
:103E80000E94D51E81E090E008C081E090E013968A
:103E90009C938E93129780E090E0DF91CF910895EC
:103EA000683818F0E8E7E60F25C0E62FF0E067FF76
:103EB00012C0E058F10921E030E001C0220FEA957C
:103EC000EAF72095DC0114963C911497322314965E
:103ED0003C93E0E00FC0ED5AFF4EE491EE2329F150
:103EE000E7FF08C0DC0114962C9114972D7F1496DF
:103EF0002C93EF7720E030E0EE2351F0DC01A20FAD
:103F0000B31F16964C9116974E1302C016961C922C
:103F10002F5F3F4F2630310579F7BC016C5F7F4F33
:103F20000E94D51E81E090E0089580E090E0089521
:103F3000FF920F931F93CF93DF93EC01F62E0E9415
:103F4000E21E8C016F2DCE010E94501FC8019927DF
:103F5000DF91CF911F910F91FF900895FC01168280
:103F6000178210861186128613861482BC016C5F3C
:103F70007F4F0C94D51E81EC97E00C94AF1EFB0193
:103F800028E4208329E4218324E42283DC011D9694
:103F90002C911D972F702F5B23831D968D919C91E3
:103FA0001E9724E0969587952A95E1F78F708F5B91
:103FB000848385E00895CF93DF93CDB7DEB769970B
:103FC0000FB6F894DEBF0FBECDBFFC01DB018C91B4
:103FD0008F5F8C93BE016F5F7F4F89E1DB011D9284
:103FE0008A95E9F799E0998384E08A8321E02D831B
:103FF00083E08E839A8791E29B872C872D872F877A
:1040000092E2988B97E09B8B95E09C8B8E8B80E463
:1040100090E0988F8F8B298F82818B839585868501
:10402000998B8A8B838180688D8B49E150E080E099
:104030000E941B2869960FB6F894DEBF0FBECDBF55
:10404000DF91CF910895DC01FB0112962C9112971C
:1040500030E08481958128173907D1F491818081DE
:10406000813A31F481E0913091F0933089F411C0BC
:10407000813271F49B3021F482811F968C9305C0AC
:104080009A3031F4828150968C9381E0089508959E
:1040900080E00895EF92FF920F931F93CF93DF93E9
:1040A0007C01FB018081813871F58381823259F571
:1040B000D70112968C91129790E0248135812817B0
:1040C000390709F51B96CD91DC911C9700E010E0B3
:1040D000209789F04C815D816A817B8180E80E9414
:1040E0001B288F3FBFEF9B0759F0080F191F09903E
:1040F000D881C02DEDCF81E0F7018787C80105C0C9
:104100008FEF9FEF02C080E090E0DF91CF911F9191
:104110000F91FF90EF900895FC01A385B48510974F
:1041200019F47487638709C08D919C91119700974A
:1041300011F0DC01F9CF6D937C9385859685DB01C9
:1041400014962D913C911597820F931F9687858722
:104150000895AF92BF92CF92DF92EF92FF920F93AA
:104160001F93CF93DF931F92CDB7DEB77C01698396
:104170006A01590141E050E0BE016F5F7F4FFC01D1
:1041800083810E9480278C0197FD0BC0F7018381FA
:10419000A501B60180640E94802797FD02C0800FB0
:1041A000911F0F90DF91CF911F910F91FF90EF9092
:1041B000DF90CF90BF90AF900895CF93DF93EC0145
:1041C00021E02C832D830A969F838E83198618867F
:1041D00088E092E0998388831C861B861E861D8654
:1041E0002F87288B81EC8A870E940226BE01DF91EF
:1041F000CF910C94BB258091E607811107C085ED16
:1042000097E00E94DD2081E08093E60785ED97E04E
:104210000895CF92DF92FF920F931F93CF93DF9376
:104220001F92CDB7DEB76C01F62E8A0122E330E093
:10423000FC013783268360E08F2D79830E947F23E2
:10424000F601F0827981718328E532E0338322839D
:1042500028EE33E035832483128E118E1486012BD1
:1042600059F021E030E0318720871386128661E023
:104270008F2D0E94B82307C0F6011186108681E0B9
:1042800090E093878287F601108A1786128A118A36
:10429000148A138A168A158A108E178A0F90DF9156
:1042A000CF911F910F91FF90DF90CF900895FC0167
:1042B000738362830895FC01768765870895FC0106
:1042C000708B67870895FC01748B638B0895FC01E4
:1042D000768B658B0895CF92DF92EF92FF920F93CA
:1042E0001F93CF93DF93EC0188810E94EE238C0112
:1042F0000E948322298D3A8D2115310579F42A8572
:104300003B850217130709F0ABC021E030E03A8F7C
:10431000298F6B8F7C8F8D8F9E8FA2C021303105AE
:1043200009F050C02885398502171307C9F40B8D91
:104330001C8D2D8D3E8DAB01BC01401B510B620BC2
:10434000730B8E819F81AA2797FDA095BA2F4817DE
:1043500059076A077B0708F471C082E090E02FC01C
:104360002A853B850217130709F07AC00B8D1C8D37
:104370002D8D3E8DAB01BC01401B510B620B730BAD
:104380008C819D81AA2797FDA095BA2F8417950748
:10439000A607B70708F064C081E08C87E989FA892D
:1043A000309709F00995EB89FC89309709F0099558
:1043B000EF89F88D309709F0099586E090E09A8FA3
:1043C000898F4EC02230310501F5CB8CDC8CED8C11
:1043D000FE8CDC01CB018C199D09AE09BF094A8115
:1043E0005B81662757FD6095762F481759076A0746
:1043F0007B0718F4ED85FE851EC08A859B8508170E
:10440000190771F583E090E0DACF2330310541F4EC
:10441000888599850817190719F5EF85F8890BC064
:1044200026303105E9F4888599850817190749F47C
:104430001C86ED89FE89309709F009951A8E198E30
:104440000FC081E08C87EF89F88D309749F0DF91BC
:10445000CF911F910F91FF90EF90DF90CF90099433
:10446000DF91CF911F910F91FF90EF90DF90CF9050
:1044700008951F920F920FB60F9211242F933F931E
:104480008F939F93AF93BF938091EF079091F00725
:10449000A091F107B091F2073091EE0723E0230FCE
:1044A0002D3720F40196A11DB11D05C026E8230F6C
:1044B0000296A11DB11D2093EE078093EF07909304
:1044C000F007A093F107B093F2078091F307909162
:1044D000F407A091F507B091F6070196A11DB11D53
:1044E0008093F3079093F407A093F507B093F60732
:1044F000BF91AF919F918F913F912F910F900FBEE0
:104500000F901F9018952FB7F8946091EF07709156
:10451000F0078091F1079091F2072FBF08953FB700
:10452000F8948091F3079091F407A091F507B0916A
:10453000F60726B5A89B05C02F3F19F00196A11DCF
:10454000B11D3FBF6627782F892F9A2F620F711DEB
:10455000811D911D42E0660F771F881F991F4A95A4
:10456000D1F708958F929F92AF92BF92CF92DF9230
:10457000EF92FF926B017C010E948F224B015C0144
:10458000C114D104E104F104F1F00E94A12A0E94B7
:104590008F22681979098A099B09683E7340810551
:1045A000910570F321E0C21AD108E108F10888EE04
:1045B000880E83E0981EA11CB11CC114D104E10433
:1045C000F10429F7DDCFFF90EF90DF90CF90BF90FF
:1045D000AF909F908F900895789484B5826084BD49
:1045E00084B5816084BD85B5826085BD85B58160F7
:1045F00085BDEEE6F0E0808181608083E1E8F0E057
:104600001082808182608083808181608083E0E885
:10461000F0E0808181608083E1E9F0E08081826068
:104620008083808181608083E0E9F0E08081816027
:104630008083E1ECF0E0808184608083808182600F
:104640008083808181608083E3ECF0E08081816001
:104650008083E0ECF0E0808182608083E2ECF0E037
:10466000808181608083EAE7F0E0808184608083DC
:104670008081826080838081816080838081806886
:104680008083089590E0FC013197EF30F105B0F59B
:10469000EA5AFF4F0C94A22A809180008F7703C0C2
:1046A000809180008F7D80938000089580918000AC
:1046B000877FF9CF84B58F7702C084B58F7D84BDA5
:1046C0000895809190008F7707C0809190008F7D32
:1046D00003C080919000877F80939000089580911F
:1046E000C0008F7703C08091C0008F7D8093C00091
:1046F00008958091C200877F8093C2000895CF9370
:10470000DF9390E0FC01EE50FF4E2491FC01EF5E40
:10471000FE4E8491882349F190E0880F991FFC0197
:10472000E45BFE4EA591B491825C9E4EFC01C59166
:10473000D4919FB7611108C0F8948C912095822381
:104740008C93888182230AC0623051F4F8948C9152
:10475000322F309583238C938881822B888304C0E9
:10476000F8948C91822B8C939FBFDF91CF91089509
:104770000F931F93CF93DF931F92CDB7DEB7282FF0
:1047800030E0F901ED52FF4E8491F901EE50FF4EF9
:104790001491F901EF5EFE4E04910023C9F08823C5
:1047A00021F069830E9442236981E02FF0E0EE0F3F
:1047B000FF1FE25CFE4EA591B4919FB7F8948C91D7
:1047C000611103C01095812301C0812B8C939FBF81
:1047D0000F90DF91CF911F910F910895CF93DF93A9
:1047E000282F30E0F901ED52FF4E8491F901EE508F
:1047F000FF4ED491F901EF5EFE4EC491CC2391F0AF
:1048000081110E944223EC2FF0E0EE0FFF1FE05DCC
:10481000FE4EA591B4912C912D2381E090E021F4DE
:1048200080E002C080E090E0DF91CF910895CF93C7
:10483000DF931F92CDB7DEB76983DC01ED91FC9168
:104840000280F381E02D41E050E0BE016F5F7F4FB9
:1048500009950F90DF91CF910895CF93DF93EC01ED
:104860008C859D8597FF05C082E00E944F279D871C
:104870008C878C859D85DF91CF91089583E00C9482
:10488000E329FC018485958597FD06C082E00E949E
:10489000F72690E00196089582E00E94F72690E0C6
:1048A0000895FC018485958597FD05C02FEF3FEFA6
:1048B00035872487089582E00C944F27CF93DF93A8
:1048C000EC0180911D01882331F083E00E94802754
:1048D0001816190634F081E090E09B838A8380E00B
:1048E00090E0DF91CF910895FC0120812E5F20831D
:1048F00042E450E06AE571E180E80C941B28FC0179
:1049000021818081813A59F4213209F04BC047E07E
:1049100050E066E171E080E00E941B285EC08132B9
:1049200009F040C0233289F4838190E0982F8827D2
:104930003281832BA0E0B0E08093120190931301A9
:10494000A0931401B09315010FC0203239F467E031
:1049500070E086E191E00E944C2809C0223221F4E7
:10496000828180931D0103C02D7F2032B1F580919B
:104970004708811103C0E0E0F8E002C0EEEFFAE082
:104980008091160190911701A0911801B091190121
:10499000803B9440A105B10511F580911D0180FF78
:1049A00003C01DC080E00895EE3F2AE0F20731F019
:1049B000808191819093FF0A8093FE0A87E797E7B1
:1049C000918380832BE088E190E00FB6F894A8955E
:1049D000809360000FBE2093600081E0089588E11D
:1049E0000FB6F89480936000109260000FBEA895F7
:1049F000EE3F8AE0F80739F08091FE0A9091FF0AB5
:104A000091838083EACF1092FF0A1092FE0AE5CFCD
:104A1000CF93C0911D016AE070E080E090E00E94B9
:104A2000B22281E0C11101C080E0CF9108951092BF
:104A3000FA071092F90788EE93E0A0E0B0E08093C7
:104A4000FB079093FC07A093FD07B093FE0784E15A
:104A500092E09093F8078093F7078FEF9FEF909382
:104A60000408809303080895EF92FF920F931F9319
:104A7000CF93DF937B01FC01C281D38100E010E082
:104A8000209781F0E881F9810280F381E02DB70160
:104A9000CE01099597FD08C0080F191F0884D98514
:104AA000C02DEECFC80102C08FEF9FEFDF91CF91F5
:104AB0001F910F91FF90EF9008950F931F93CF9345
:104AC000DF938B01FC01C281D381209771F0E881D3
:104AD000F9810480F581E02DB801CE010995009798
:104AE00031F40884D985C02DF0CF80E090E0DF91CB
:104AF000CF911F910F9108950F931F93CF93DF9341
:104B00008B01FC01C281D381209771F0E881F9818A
:104B10000680F781E02DB801CE010995080F111D1F
:104B20000884D985C02DF0CFF8011082DF91CF9194
:104B30001F910F9108950F931F93CF93DF938B01D4
:104B4000FC01C281D381209771F0E881F981019045
:104B5000F081E02DB801CE010995811106C00884CD
:104B6000D985C02DF0CF80E001C081E0DF91CF91E9
:104B70001F910F910895CF93DF93FC01DB012181F9
:104B800014968C91149790E0820F911D0897B4F5BC
:104B9000C281D381209719F47383628308C088850A
:104BA0009985009711F0EC01FACFB987A887808129
:104BB00012968C931297818113968C931397808110
:104BC00015969C911597890F808380E014969C918F
:104BD0001497891788F41696CD91DC911797C80F12
:104BE000D11D9881C181D0E0C25EDE4F9883918152
:104BF0009F5F91838F5FEACF81E001C080E0DF910A
:104C0000CF91089580914C0881110DC082E080936E
:104C1000480884E08093490810924B0810924A0893
:104C200081E080934C0888E498E00895CF92DF9269
:104C3000EF92FF920F931F93CF93DF937C016A0152
:104C4000EB0100E010E00C151D0571F06991D70132
:104C5000ED91FC910190F081E02DC7010995892B20
:104C600019F00F5F1F4FEFCFC801DF91CF911F9158
:104C70000F91FF90EF90DF90CF900895615030F04A
:104C80002091F100FC0120830196F8CF289884E65A
:104C900080935D08089540915808509159082091DB
:104CA00056083091570842175307B4F49091E80022
:104CB0009570E1F39091E80092FD19C08093F100A6
:104CC000809158089091590801968F739927892BE4
:104CD00019F48EEF8093E80080915808909159085C
:104CE0000196909359088093580881E0089580E0D8
:104CF0000895CF92DF92EF92FF920F931F93CF937D
:104D0000DF931F92CDB7DEB7082F162FF42E862F14
:104D1000880F8E5F99830E944B2683E00E944B266A
:104D2000E02EC02E9981D92E8C2D8E19811798F4E2
:104D3000F601F7FE02C0849101C080810E944B26DB
:104D4000082F80E00E944B268023FFEFCF1ADF0A56
:104D50008111EACF01C081E00F90DF91CF911F91C7
:104D60000F91FF90EF90DF90CF9008958091D70042
:104D700081608093D70080EA8093D80089B58061F4
:104D800089BD89B5826089BD09B400FEFDCF61E0AF
:104D900070E080E090E00E94B2228091D8008F7C89
:104DA00080618093D8008091E000807F8093E00054
:104DB0000895CF93DF931F92CDB7DEB71982CE014E
:104DC00001960E9474240E940226BE016F5F7F4FED
:104DD0000E94342589810F90DF91CF9108952FB7DC
:104DE000FC012083F89467706093E9000895CF93E5
:104DF000DF931F92CDB7DEB7682FCE0101960E94D8
:104E0000EF268091F20099819FBF0F90DF91CF91A3
:104E10000895FF920F931F93CF93DF9300D0CDB7E8
:104E2000DEB7F62E8A0190915C08992311F057FFA6
:104E300003C08FEF9FEF2BC0682FCE0101967A83BE
:104E40000E94EF268091F20090E0A8017A818017FD
:104E500091070CF4AC01EF2DF72FF40E84E6FE164B
:104E600039F0289880935D089091F1009193F7CFE5
:104E70004115510521F08091F200882321F08981AC
:104E80008FBFCA0104C08BE68093E800F8CF0F9073
:104E90000F90DF91CF911F910F91FF900895CF93C5
:104EA000DF931F92CDB7DEB741E050E0BE016F5FE8
:104EB0007F4F0E940927019719F4898190E002C071
:104EC0008FEF9FEF0F90DF91CF910895CF93DF93F6
:104ED0001F92CDB7DEB7682FCE0101960E94EF2654
:104EE0009091E800892F807295FF04C09091F200A4
:104EF00080E4891B99819FBF0F90DF91CF91089526
:104F00006F927F928F929F92AF92BF92CF92DF92D9
:104F1000EF92FF920F931F93CF93DF931F92CDB722
:104F2000DEB7782E7B01C42EB52E80915C088823D5
:104F300069F0042F152F8AEFD82E872D8072982EB6
:104F40009AE3A92E872D8074882E11C08FEF9FEFD2
:104F500057C0872D0E946627682E81110CC0DA94F5
:104F6000A9F361E070E080E090E00E94B2220115B8
:104F7000110579F73BC0282F30E0021713070CF416
:104F8000602E672DCE0101960E94EF268091E800E9
:104F900085FF29C0262D30E0021B130B992039F024
:104FA0006A948FEF6816B1F01092F100F9CFF70113
:104FB000862D77FE07C0815058F094919093F100B0
:104FC0003196F9CF815020F091919093F100FACF72
:104FD000E20EF31E8091E80085FF0FC00115110558
:104FE00011F481100AC089818FBFC1CF5D9884E61A
:104FF00080935E088C2D9B2D03C0A092E800F3CF18
:105000000F90DF91CF911F910F91FF90EF90DF9064
:10501000CF90BF90AF909F908F907F906F900895AA
:105020001092E9001092590810925808909357086E
:10503000809356080895CF92DF92FF920F931F93AB
:10504000CF93DF9300D0CDB7DEB7F82E8A016B0186
:1050500001151105B1F0F601F7FE02C0849101C0FF
:10506000808149835A830E944B2601501109FFEF2A
:10507000CF1ADF0A49815A818111EACF8FEF9FEF62
:1050800001C0CA010F900F90DF91CF911F910F9136
:10509000FF90DF90CF900895BF92CF92DF92EF9272
:1050A000FF920F931F93CF93DF936C018B01EB0162
:1050B0003BEFB32E2097C1F07E01C134D1051CF027
:1050C00020E4E22EF12C8091E80082FFFCCFC801A1
:1050D0008C1B9D0B6E2D8C0D9D1D0E943E26B0924B
:1050E000E800CE19DF09E6CFC801DF91CF911F910B
:1050F0000F91FF90EF90DF90CF90BF9008951F9297
:105100000F920FB60F921124DF92EF92FF920F933E
:105110001F932F933F934F935F936F937F938F933F
:105120009F93AF93BF93EF93FF93CF93DF93CDB74D
:10513000DEB76C97DEBFCDBF1092E9008091E8002A
:1051400083FF23C168E0CE0145960E943E2682EF90
:105150008093E8003D8937FF05C08091E80080FF1B
:10516000FCCF03C08EEF8093E800832F807609F098
:10517000F0C02E894F89D88C21110CC0303829F409
:1051800080915B088093F10002C01092F1001092B0
:10519000F100F4C0842F90E09D29213049F43111B1
:1051A000EDC0019709F0EAC080915B088D7F0AC0CD
:1051B000233059F43111E2C0019709F0DFC080912A
:1051C0005B08826080935B08D9C0253041F48091F0
:1051D000E80080FFFCCF40684093E300CFC026305A
:1051E00009F08DC0EB8CFC8C22E0D2122CC080E048
:1051F00090E00E9410280E94D92699E08E010F5F4E
:105200001F4FF801292F11922A95E9F79983DA8225
:1052100091E09E8390EA98879AEF998720915808A9
:1052200030915908275F3F4F3C832B838D83C70103
:105230000E94102849E050E0B80180E00E941B283D
:105240000E94D9269BC0C7010E9410280E940226F6
:10525000BE016B5E7F4F0E945D25009719F00CF038
:105260008DC090C081E0D8120EC08B8D9C8D0897A8
:1052700019F481E0809355088091550881112FC061
:105280006EEA71E131C0E3E0DE127CC08F898823D1
:1052900049F1823029F440E860E18CEC91E11CC0D6
:1052A000813029F440E86BE080EC91E115C0833057
:1052B00009F068C00E9402268E010F5F1F4FB801DF
:1052C0000E947C25F80101900020E9F73197E01B4E
:1052D000F10B40E06E2FC8010E9479264DC06CE9A9
:1052E00071E102C06DED71E16115710509F44AC00B
:1052F000FB01449150E080E80E941B283FC027300A
:1053000009F440C0283021F481E08093F10036C0D8
:105310002930A1F53370B1F5EFE1F1E081E021E052
:1053200036E39081992361F08093E9002093EB00AC
:1053300091919093EC003093ED008F5F873089F767
:105340008EE78093EA001092EA008F8980935C08D0
:1053500015C08B8D9C8D0E941028898D811105C0F0
:10536000CE0145960E947F2407C00E940226BE01FE
:105370006B5E7F4F0E949B25882321F08EEF8093E8
:10538000E80003C081E28093EB006C960FB6F894BE
:10539000DEBF0FBECDBFDF91CF91FF91EF91BF91E7
:1053A000AF919F918F917F916F915F914F913F91BD
:1053B0002F911F910F91FF90EF90DF900F900FBEF4
:1053C0000F901F9018958093E9008091F200882338
:1053D00019F08AE38093E80008951F920F920FB6A8
:1053E0000F9211242F933F934F935F936F937F936B
:1053F0008F939F93AF93BF93CF93EF93FF93C091FE
:10540000E1008091E100837F8093E1008093E100DF
:10541000C3FF0FC01092E90081E08093EB0010926F
:10542000EC0082E38093ED0010925C0888E08093AA
:10543000F000C2FF19C083E00E94E32980915E085A
:10544000882339F080915E08815080935E0888231C
:1054500089F180915D08882339F080915D08815041
:1054600080935D08882341F1C4FF10C08091E20061
:105470008E7E81608093E2008091E1008F7E809338
:10548000E10080915A088E7E806111C0C0FF16C075
:105490008091E2008E7E80618093E2008091E10045
:1054A0008E7E8093E10080915A088E7E8160809389
:1054B0005A0804C05D9ACDCF289AD6CFFF91EF91BC
:1054C000CF91BF91AF919F918F917F916F915F919C
:1054D0004F913F912F910F900FBE0F901F901895F5
:1054E00010925C0810925B0810925A080E94B6262F
:1054F0008091E1008E7E8093E1008DE08093E20058
:10550000559A209AEEEFFFE7859194918B3F9C4D41
:1055100019F481E080934708089508950E94EC22D1
:105520000E948D2A84E598E00E94702A0E94281328
:10553000C0E0D0E00E94ED0D2097E1F30E94000052
:10554000F9CF0895EE0FFF1F0590F491E02D099417
:10555000FB01DC0104C08D910190801921F44150C0
:105560005040C8F7881B990B0895FB01DC0102C06D
:1055700001900D9241505040D8F70895681779076F
:1055800068F4FB01DC01E40FF51FA40FB51F02C096
:1055900002900E9241505040D8F708950C94B52ACD
:1055A000DC0101C06D9341505040E0F70895FB01CC
:1055B000DC0101900D920020E1F70895AEE0B0E02B
:1055C000E4EEFAE20C949C2D0D891E8986E08C8312
:1055D0001A8309838FEF9FE79E838D83AE01475E19
:1055E0005F4F6F89788DCE0101960E94002BEF816D
:1055F000F885E00FF11F10822E96E4E00C94B82D90
:10560000ACE0B0E0E6E0FBE20C948E2D7C016B0197
:105610008A01FC0117821682838181FFBDC1CE0100
:1056200001964C01F7019381F60193FD859193FF5B
:1056300081916F01882309F4ABC1853239F493FD60
:10564000859193FF81916F01853229F4B70190E034
:105650000E94FE2CE7CF512C312C20E02032A0F408
:105660008B3269F030F4803259F0833269F4206172
:105670002CC08D3239F0803339F4216026C022608D
:10568000246023C0286021C027FD27C030ED380FDB
:105690003A3078F426FF06C0FAE05F9E300D112400
:1056A000532E13C08AE0389E300D1124332E206211
:1056B0000CC08E3221F426FD6BC1206406C08C36EE
:1056C00011F4206802C0883641F4F60193FD8591FB
:1056D00093FF81916F018111C1CF982F9F7D9554C8
:1056E000933028F40C5F1F4FFFE3F9830DC083361E
:1056F00031F0833771F0833509F05BC022C0F801C7
:10570000808189830E5F1F4F44244394512C5401A0
:1057100015C03801F2E06F0E711CF801A080B18055
:1057200026FF03C0652D70E002C06FEF7FEFC5015B
:105730002C870E94F32C2C0183012C852F77222E9D
:1057400017C03801F2E06F0E711CF801A080B18023
:1057500026FF03C0652D70E002C06FEF7FEFC5012B
:105760002C870E94E82C2C012C852068222E830196
:1057700023FC1BC0832D90E048165906B0F4B701F6
:1057800080E290E00E94FE2C3A94F4CFF50127FCD1
:10579000859127FE81915F01B70190E00E94FE2C68
:1057A00031103A94F1E04F1A51084114510471F745
:1057B000E5C0843611F0893639F5F80127FF07C0B6
:1057C00060817181828193810C5F1F4F08C060816D
:1057D0007181882777FD8095982F0E5F1F4F2F7658
:1057E000B22E97FF09C090958095709561957F4F77
:1057F0008F4F9F4F2068B22E2AE030E0A4010E9414
:10580000302DA82EA81844C0853729F42F7EB22E3B
:105810002AE030E025C0F22FF97FBF2E8F36C1F08D
:1058200018F4883579F0B4C0803719F0883721F042
:10583000AFC02F2F2061B22EB4FE0DC08B2D84601F
:10584000B82E09C024FF0AC09F2F9660B92E06C04B
:1058500028E030E005C020E130E002C020E132E085
:10586000F801B7FE07C060817181828193810C5F6E
:105870001F4F06C06081718180E090E00E5F1F4F76
:10588000A4010E94302DA82EA818FB2DFF77BF2E53
:10589000B6FE0BC02B2D2E7FA51450F4B4FE0AC00B
:1058A000B2FC08C02B2D2E7E05C07A2C2B2D03C0F8
:1058B0007A2C01C0752C24FF0DC0FE01EA0DF11DEC
:1058C0008081803311F4297E09C022FF06C07394C1
:1058D000739404C0822F867809F0739423FD13C05B
:1058E00020FF06C05A2C731418F4530C5718732C4D
:1058F000731468F4B70180E290E02C870E94FE2CBC
:1059000073942C85F5CF731410F4371801C0312C23
:1059100024FF12C0B70180E390E02C870E94FE2C88
:105920002C8522FF17C021FF03C088E590E002C04C
:1059300088E790E0B7010CC0822F867859F021FDEE
:1059400002C080E201C08BE227FD8DE2B70190E04A
:105950000E94FE2CA51438F4B70180E390E00E9469
:10596000FE2C5A94F7CFAA94F401EA0DF11D808120
:10597000B70190E00E94FE2CA110F5CF332009F46E
:1059800051CEB70180E290E00E94FE2C3A94F6CF0F
:10599000F7018681978102C08FEF9FEF2C96E2E19D
:1059A0000C94AA2DF999FECF92BD81BDF89A992742
:1059B00080B50895262FF999FECF1FBA92BD81BDFB
:1059C00020BD0FB6F894FA9AF99A0FBE0196089581
:1059D000FC010590615070400110D8F780959095BA
:1059E0008E0F9F1F0895FC016150704001900110BF
:1059F000D8F7809590958E0F9F1F08950F931F9352
:105A0000CF93DF93182F092FEB018B8181FD03C00A
:105A10008FEF9FEF20C082FF10C04E815F812C81ED
:105A20003D81421753077CF4E881F9819F012F5F84
:105A30003F4F39832883108306C0E885F985812F7D
:105A40000995892B29F72E813F812F5F3F4F3F8397
:105A50002E83812F902FDF91CF911F910F91089569
:105A6000FA01AA27283051F1203181F1E8946F938F
:105A70006E7F6E5F7F4F8F4F9F4FAF4FB1E03ED035
:105A8000B4E03CD0670F781F891F9A1FA11D680FD3
:105A9000791F8A1F911DA11D6A0F711D811D911D06
:105AA000A11D20D009F468943F912AE0269F11247B
:105AB0003019305D3193DEF6CF010895462F4770DF
:105AC000405D4193B3E00FD0C9F7F6CF462F4F703A
:105AD000405D4A3318F0495D31FD4052419302D098
