:100000000C9451090C9479090C9479090C94790990
:100010000C9479090C9479090C9479090C94790958
:100020000C9479090C9479090C94F21F0C946420B7
:100030000C9479090C9479090C9479090C94790938
:100040000C9479090C9479090C9479090C94790928
:100050000C9479090C9479090C9479090C9438263C
:100060000C9479090C9479090C9479090C94790908
:100070000C9479090C9479090C9479090C947909F8
:100080000C9479090C9479090C9479090C947909E8
:100090000C9479090C9479090C9479090C947909D8
:1000A0000C9479090C9479090C94790928232B2351
:1000B0001A231E2324234C234C234C232F23332386
:1000C00037233D2341234C234723312E35005061F4
:1000D0007373776F72643F00436C65617220616C6B
:1000E0006C3F0044454C210050617373004E616DBC
:1000F000650053686F770053617665206368616EB1
:100100006765733F0044656C657465207265636F55
:1001100072643F00434C5221005061737300545489
:100120005900555342004E657700527074000A3EE4
:10013000003A20000A526563000A3F2C4D6F766535
:100140003A552C752C442C642C5365744D61696EA2
:10015000506173733A572C4164645265633A412C81
:1001600044656C5265633A452C53657420436D6E4B
:10017000743A432C4E616D653A4E2C506173733A5C
:10018000502C56616C3A312D390053746F70003128
:100190002E350005010906A1018502050719E02990
:1001A000E715002501750195088102950175088103
:1001B0000395067508150025650507190029658151
:1001C00000C001060C00FE070135026B207FFE0A0D
:1001D000FE08FE0C0060221767808080808000800F
:1001E000173363A0A0A002566650F85050F8500193
:1001F00059692070A8A07028A87020025767C8C845
:10020000102040989802576740A0A040A890682707
:100210001363808080113969204040808080404095
:1002200020113969804040202020404080025767DB
:1002300020A8702070A8200355652020F8202001F8
:1002400033636060C0055161F8122262C0C002577A
:10025000670810102040408012476760909090908F
:10026000906012376740C040404040E002576770DE
:100270008808102040F8025767F808103008887086
:1002800002576710305090F81010025767F880F04E
:1002900008088870025767304080F08888700257DD
:1002A00067F808101020202002576770888870882F
:1002B000887002576770888878081060122565C0BA
:1002C000C000C0C00136666060006060C013356564
:1002D0002040804020045363F800F81335658040C7
:1002E0002040800257677088102020002002576746
:1002F0007088B8A8B88070025767708888F88888B6
:1003000088025767F04848704848F002576770887D
:100310008080808870025767F04848484848F0025B
:100320005767F88080F08080F8025767F88080F087
:100330008080800257677088808098887002576735
:10034000888888F8888888123767E04040404040B5
:10035000E0025767381010101090600257678890BD
:10036000A0C0A09088025767808080808080F802BB
:10037000576788D8A8888888880257678888C8A857
:1003800098888802576770888888888870025767BD
:10039000F08888F080808002576770888888A890ED
:1003A00068025767F08888F0A090880257677088C5
:1003B0008070088870025767F820202020202002D3
:1003C00057678888888888887002576788888888EF
:1003D00050502002576788888888A8A8500257671D
:1003E00088885020508888025767888850202020AD
:1003F00020025767F80810204080F8113969E08022
:10040000808080808080E00257678040402010100C
:1004100008113969E020202020202020E0075363C4
:10042000205088005161F8173363804020025565E1
:1004300070087888780257678080F0888888F00292
:1004400055657088808870025767080878888888A2
:10045000780255657088F08070025767304840E038
:100460004040400057677088888878087002576756
:100470008080F0888888881237674000C0404040FC
:10048000E01049691000301010101090600257679A
:1004900080808890E09088123767C040404040409C
:1004A000E0025565D0A8A8A8A8025565B0C88888FC
:1004B000880255657088888870005767F08888883A
:1004C000F08080005767788888887808080255652A
:1004D000B0C880808002556578807008F002576748
:1004E0002020F82020201802556588888898680206
:1004F000556588888850200255658888A8A85002CC
:10050000556588502050880057678888885020405B
:1005100080025565F8102040F811396920404040AC
:1005200080404040202119698080808080808080C8
:10053000801139698040404020404040800453632E
:1005400048A890FFFFE0FFD1AFFF32FFD0FFFEFFD2
:10055000E0FFD1AEFFD0FFFEFFE0FFD11000FFFEB5
:10056000FFD0FFE0FFC1FFD1AED580A81FD3004070
:100570008D142002A1C8DA0281CFD9F1DB402EA46C
:10058000A6AFFFD0FFFE00000000000000002A2BF5
:100590002800000000000000000000000000000033
:1005A0000000000000002C9EB4A0A1A2A434A6A7C5
:1005B000A5AE362D3738271E1F20212223242526BD
:1005C000B333B62EB7B89F8485868788898A8B8C8B
:1005D0008D8E8F909192939495969798999A9B9CD3
:1005E0009D2F3130A3AD350405060708090A0B0C11
:1005F0000D0E0F101112131415161718191A1B1CB3
:100600001DAFB1B0B500080B0002020201000904E1
:100610000000010202000005240010010524010170
:1006200001042402060524060001070581031000C9
:100630004009040100020A00000007050202400010
:1006400000070583024000000403090412010002B0
:10065000EF02014041233680000101020301417293
:100660006475696E6F204C4C430041726475696E0D
:100670006F204C656F6E6172646F004E6F0059653C
:10068000730000091200FC0A01F203E120FFFD0ED5
:10069000FD0BFD0000000908FD020B0B090300C063
:1006A000C0C0C0C0C0C00000C0C00504040902072B
:1006B000D8D8D8D8070A0A0901006C6C6CFE6C6C9B
:1006C000FE6C6C6C080B0B0900FF187EDBD8783CC5
:1006D0001E1BDB7E18080A0A09000073DEDE6C1898
:1006E00018367B7BCE080A0A09000070D8D8D8706B
:1006F00073DECCDE73020404090307C0C0C0C0046B
:100700000C0C0902FF306060C0C0C0C0C0C0606097
:1007100030040C0C0902FFC06060303030303030E3
:100720006060C008070709000118DB7E3C7EDB180B
:10073000080707090001181818FF181818030404FF
:100740000903FEE0E060C0060101090104FC0302A8
:1007500002090300E0E0080A0A0900000306060C8B
:100760001818306060C0070A0A090100386CC6C654
:10077000C6C6C6C66C38080A0A090000183878D8F8
:100780001818181818FF070A0A090100386CC6065D
:10079000060C183060FE070A0A090100FE060C1854
:1007A000380C0606CC78070A0A0901000C1C3C6CC0
:1007B000CCCCFE0C0C0C070A0A090100FEC0C0C01C
:1007C000F80C0606CC78070A0A0901003C60C0C094
:1007D000F8CCC6C66C38070A0A090100FE060C0CE4
:1007E000181830303030070A0A090100386CC66C1E
:1007F000386CC6C66C38070A0A090100386CC6C6D0
:100800006E3E06060C78030707090300E0E00000CF
:1008100000E0E00309090903FEE0E0000000E0E079
:1008200060C00609090901000C183060C06030186A
:100830000C070404090102FE0000FE060909090173
:1008400000C06030180C183060C0070A0A090100A7
:10085000386CC6060C1830300030090A1409000044
:100860003E006300CD80D580D580D580D580CF0077
:1008700060003E00070A0A090100103838386C7C15
:100880006CC6C6C6070A0A090100FCC6C6C6FCC675
:10089000C6C6C6FC070A0A0901003C66C0C0C0C043
:1008A000C0C0663C070A0A090100F8CCC6C6C6C625
:1008B000C6C6CCF8070A0A090100FEC0C0C0F8C0CD
:1008C000C0C0C0FE070A0A090100FEC0C0C0F8C0CF
:1008D000C0C0C0C0070A0A090100386CC6C0C0CE3B
:1008E000C6C66C38070A0A090100C6C6C6C6FEC6D7
:1008F000C6C6C6C6060A0A090100FC3030303030D0
:10090000303030FC070A0A0901001E0C0C0C0C0CDC
:100910000CCCCC78070A0A090100C6CCD8F0E0F06C
:10092000D8CCC6C6070A0A090100C0C0C0C0C0C0F2
:10093000C0C0C0FE070A0A090100C6EEFED6C6C640
:10094000C6C6C6C6070A0A090100C6C6E6F6DECE56
:10095000C6C6C6C6070A0A0901007CC6C6C6C6C600
:10096000C6C6C67C070A0A090100F8CCC6C6CCF880
:10097000C0C0C0C0080B0B0901FF386CC6C6C6C694
:10098000C6DE6C3E03070A0A090100FCC6C6C6C6DD
:10099000FCD8CCC6C6070A0A0901007CC6C0C07CC8
:1009A000060606C67C060A0A090100FC3030303013
:1009B0003030303030070A0A090100C6C6C6C6C644
:1009C000C6C6C66C38070A0A090100C6C6C66C6CE2
:1009D0006C38383810070A0A090100C6C6C6C6D6E0
:1009E000D6D6FEEE44070A0A090100C6C66C3810C6
:1009F00010386CC6C6080A0A090000C3C3663C1852
:100A00001818181818070A0A090100FE06060C181B
:100A10003060C0C0FE050C0C0902FFF8C0C0C0C0A9
:100A2000C0C0C0C0C0C0F8080A0A090000C06060A9
:100A30003018180C060603040C0C0902FFF03030C5
:100A40003030303030303030F008040409000618FF
:100A50003C66C30801010900FFFF04030309020A01
:100A6000C060300707070901007C06067EC6C67E07
:100A7000070A0A090100C0C0C0FCC6C6C6C6C6FC3B
:100A80000707070901007CC6C0C0C0C67C070A0A68
:100A90000901000606067EC6C6C6C6C67E0707074B
:100AA0000901007CC6C6FEC0C67C060A0A09010010
:100AB000386C6C6060F060606060070A0A0901FDD4
:100AC0007ECCCCCC78C07CC6C67C070A0A09010063
:100AD000C0C0C0FCC6C6C6C6C6C6060A0A09010012
:100AE000303000F03030303030FC050D0D0902FDA3
:100AF00018180038181818181818D8D870070A0AC3
:100B0000090100C0C0C0CCD8F0F0D8CCC6060A0A93
:100B1000090100F03030303030303030FC08070749
:100B2000090000FEDBDBDBDBDBC307070709010095
:100B3000DCE6C6C6C6C6C6070707090100386CC68C
:100B4000C6C66C38070A0A0901FDF8CCC6C6C6CC71
:100B5000F8C0C0C0070A0A0901FD3E66C6C6C666DF
:100B60003E060606070707090100DC766060606044
:100B7000600707070901007CC6C07C06C67C070920
:100B8000090901003030FC30303030361C070707CF
:100B9000090100C6C6C6C6C6C67E0707070901000A
:100BA000C6C66C6C383810080707090000C3C3DBE1
:100BB000DBDBFF66070707090100C66C3810386CDD
:100BC000C6070A0A0901FDC6C66C6C6C383830B01D
:100BD00060060707090100FC0C183060C0FC060B1A
:100BE0000B0901003C60606060C0606060603C02B6
:100BF0000C0C0903FFC0C0C0C0C0C0C0C0C0C0C092
:100C0000C0060B0B090100E0303030301C303030B2
:100C100030E008030309000773DBCEFFFFFFFFFF8F
:100C2000FFFFFFFFFFFFFFFFFFFFFFFFFFFFFFFFD4
:100C3000FFFFFFFFFFFFFFFFFFFFFFFFFF070D0DA0
:100C40000901006C6C00FEC0C0C0F8C0C0C0C0FE8E
:100C5000080C0C0900FEFE3030303E3333333333A2
:100C60000306070E0E0901000C183000FEC0C0C0BC
:100C7000C0C0C0C0C0C0070A0A0901003C66C0C0AD
:100C8000F0C0C0C0663C070A0A0901007CC6C0C0AB
:100C90007C060606C67C060A0A090100FC303030D4
:100CA0003030303030FC060D0D0901006C6C00FC5A
:100CB0003030303030303030FC070A0A0901001E75
:100CC0000C0C0C0C0C0CCCCC78090A140900007C20
:100CD000006C006C006C006F006D806D806D806D2D
:100CE00080EF00080A0A090000D8D8D8D8FEDBDB5C
:100CF000DBDBDE080A0A090000FE3030303E333309
:100D0000333333070E0E0901000C183000C6CCD85F
:100D1000F0E0F0D8CCC6C6FF080D0D090000361C67
:100D20000063633636361C1C18D870080C0C09009A
:100D3000FEC3C3C3C3C3C3C3C3C3FF1818070A0A90
:100D4000090100103838386C7C6CC6C6C6070A0A20
:100D5000090100FCC0C0C0FCC6C6C6C6FC070A0A22
:100D6000090100FCC6C6C6FCC6C6C6C6FC070A0A00
:100D7000090100FEC0C0C0C0C0C0C0C0C0080C0C8B
:100D80000900FE3E3636363666666666FFC3C30722
:100D90000A0A090100FEC0C0C0F8C0C0C0C0FE08F9
:100DA0000A0A090000DBDB7E7E3C7E7EDBDBDB07A4
:100DB0000A0A0901007CC6060C180C0606C67C0748
:100DC0000A0A090100C6C6C6CEDEF6E6C6C6C607D2
:100DD0000D0D0901006C3800C6C6C6CEDEF6E6C6AB
:100DE000C6C6070A0A090100C6CCD8F0E0F0D8CC84
:100DF000C6C6070A0A0901001E363636366666661A
:100E000066C6070A0A090100C6EEFED6C6C6C6C6F1
:100E1000C6C6070A0A090100C6C6C6C6FEC6C6C6B9
:100E2000C6C6070A0A0901007CC6C6C6C6C6C6C62B
:100E3000C67C070A0A090100FEC6C6C6C6C6C6C6E3
:100E4000C6C6070A0A090100F8CCC6C6CCF8C0C05D
:100E5000C0C0070A0A0901003C66C0C0C0C0C0C0CB
:100E6000663C060A0A090100FC3030303030303070
:100E70003030080A0A09000063633636361C1C1835
:100E8000D870080A0A090000187EDBDBDBDBDBDB3D
:100E90007E18080A0A090000C3C3663C18183C669D
:100EA000C3C3070C0C0901FECCCCCCCCCCCCCCCC35
:100EB000CCFE0606070A0A090100C6C6C6C67E069B
:100EC00006060606080A0A090000DBDBDBDBDBDBC3
:100ED000DBDBDBFF090C180900FEDB00DB00DB00BD
:100EE000DB00DB00DB00DB00DB00DB00FF800180E0
:100EF0000180080A0A090000F03030303C363333F4
:100F0000363C080A0A090000C3C3C3C3F3DBDBDBBA
:100F1000DBF3080A0A090000C0C0C0C0FCC6C3C396
:100F2000C6FC070A0A09010078CC06061E0606065A
:100F3000CC78080A0A090000CEDBDBDBFBDBDBDB5D
:100F4000DBCE070A0A0901007EC6C6C6C67E366623
:100F5000C6C60707070901007C06067EC6C67E07CF
:100F60000A0A0901000C78C0FCC6C6C6C6C67C07C2
:100F70000707090100FCC6C6FCC6C6FC070707092F
:100F80000100FEC0C0C0C0C0C00708080901FF3C86
:100F90002C6C6CCCCCFE820807070900003C66C3B1
:100FA000FFC0633E080707090000DBDB7E3C7EDBF9
:100FB000DB0707070901007CC6061C06C67C07077D
:100FC00007090100C6C6CED6E6C6C6070A0A090149
:100FD000006C3800C6C6CED6E6C6C60707070901AC
:100FE00000C6CCD8F0D8CCC60707070901001E36CA
:100FF00036666666C6070707090100C6EEFED6C656
:10100000C6C6070707090100C6C6C6FEC6C6C6078C
:1010100007070901007CC6C6C6C6C67C07070709C4
:101020000100FEC6C6C6C6C6C6070A0A0901FDFCFF
:10103000C6C6C6C6C6FCC0C0C00707070901007CFB
:10104000C6C0C0C0C67C080707090000FF181818F2
:10105000181818070A0A0901FDC6C6C6C6C6C67E04
:1010600006867C080D0D0900FD1818187EDBDBDBF9
:10107000DBDB7E181818080707090000C3663C1858
:101080003C66C30709090901FEC6C6C6C6C6C6FE38
:101090000606070707090100C6C6C67E060606083B
:1010A0000707090000DBDBDBDBDBDBFF08090909E5
:1010B00000FEDBDBDBDBDBDBFF03030807070900EC
:1010C00000F030303E33333E080707090000C3C349
:1010D000C3F3DBDBF3070707090100C0C0C0FCC690
:1010E000C6FC0707070901007CC6061E06C67C0869
:1010F0000707090000CEDBDBFBDBDBCE07070709B8
:1011000001007EC6C67E3666C6090A14090000F0D4
:1011100000F000D800D800DB00DF80DF80DB00D8E3
:1011200000DF80070A0A0901006666007CC6C6FE69
:10113000C0C67C070C0C0901FE60F8607C66666620
:10114000666666061C070B0B0901000C183000FED2
:10115000C0C0C0C0C0C00707070901007CC2C0F002
:10116000C0C27C0707070901007CC2C07C06867CE0
:10117000060A0A090100303000703030303030FC8F
:10118000060A0A090100CCCC00703030303030FC47
:10119000060D0D0901FD0C0C001C0C0C0C0C0CCCEC
:1011A000CCCC7809070E0900003C006C006C006F85
:1011B000006D80ED80CF00080707090000D8D8D85F
:1011C000FEDBDBDE070A0A09010060F8607C666668
:1011D00066666666070B0B0901000C183000C6CC6A
:1011E000D8F0D8CCC6060B0B0901FF78CCC078CC60
:1011F000CCCC780CCC78070D0D0901FD6C3800C6FD
:10120000C6C6C6C6C67E06C67C0609090901FECC4E
:10121000CCCCCCCCCCFC303000000000240027002B
:101220002A002D00300000000000250028002B00BF
:101230002E003100000000002300260029002C00B1
:101240002F00040404040403040502020202040340
:101250000202020206060606060604040202020450
:1012600004040802011040804010204080408008A3
:101270000204018040201002011080102040402014
:101280000000000200090F0000030401000C000030
:10129000000000000000000000000000000000004E
:1012A000A52711241FBECFEFDAE0DEBFCDBF11E0CE
:1012B000A0E0B1E0E6E3FDE502C005900D92A43D9B
:1012C000B107D9F728E0A4EDB1E001C01D92A1312A
:1012D000B207E1F719E0C1E5D9E004C02197FE01AA
:1012E0000E94802BC035D107C9F70E9417290C94A2
:1012F000992E0C94000010928106089581E080934D
:10130000810685E280937F06089583E280937F06BD
:10131000089581E280937F060895109280060895D3
:1013200081E08093800684E280937F06089582E2C4
:1013300080937F06089580E280937F060895089544
:1013400080E090E0089581EA91E00C94011885EA2C
:1013500091E00C94011880917F068232F9F028F414
:10136000803259F0813289F008958432B9F008F45E
:1013700052C0853209F44FC00895809182068F5F74
:10138000843048F010928206089580918206815040
:10139000843008F083E080938206089510928306DB
:1013A000809182068130B9F028F0823019F18330C3
:1013B00069F1089510927C061092850610928B06B2
:1013C00010928A06109289061092880667EA79E0E0
:1013D00087EB91E12DC01092850610928B0610923A
:1013E0008A06109289061092880663EA79E088E8F6
:1013F0009BE01EC080E8E0E9F6E0DF011D928A95DF
:10140000E9F766E371E18EE19EE012C06BE97EE0F0
:101410008FEB9DE00DC080917B06811105C064E9D2
:101420007FE087E09FE004C067E97EE087E79EE019
:101430000C94251480917F06833279F028F4813250
:1014400061F0823231F00895843219F0853259F416
:1014500004C00E949118892B31F063ED7EE088E191
:1014600090E10C942514089580917F06843240F415
:10147000823208F067C0803249F08132C9F00895A5
:10148000843261F1853209F44FC00895809183065A
:1014900090E083589D4FFC01ED5EFB4F20812F5F54
:1014A000203220F02F37A9F420EC13C020E211C025
:1014B0008091830690E083589D4FFC01ED5EFB4FC9
:1014C00020812150203220F02F3B19F42EE701C05B
:1014D0002FEFFC01ED5EFB4F208330C0809183062F
:1014E0008F33B0F5E0E9F6E001900020E9F7AF01B5
:1014F000415956404F33510514F04FE350E090E00E
:10150000481B590B141615063CF4BC016057794F63
:101510008F56994F0E94A12BE0918306F0E0E0578F
:10152000F94F81E480830AC08091830690E0BC017A
:101530006F56794F8057994F0E94BA2B81E0809364
:101540007B0608956EE670E189EA9AE00C94251412
:101550000895EF92FF920F931F93CF93DF938091A3
:101560007F06823209F44CC028F48032F1F08132D7
:10157000A1F1C7C0843209F443C008F44DC08532DC
:1015800009F0BFC0109283068091510790915207D5
:101590009093500780934F0780915507909156077D
:1015A0009093540780935307ACC0209183062F3348
:1015B00008F0A7C0822F90E083589D4FFC01ED5E9C
:1015C000FB4F3081332321F02F5F2093830699C096
:1015D000FC01EC5EFB4F108294C080918306815029
:1015E00080938306813408F48CC0E0E9F6E0019032
:1015F0000020E9F7CF01815996408093830681C08E
:1016000069E570E184E39AE0DF91CF911F910F913A
:10161000FF90EF900C9425141092830663ED7EE00A
:1016200088E190E10E94251400917D0610917E06CC
:101630008091820690E00196980123583D4F7901F0
:10164000083E33E0130730F5F7012589222311F115
:10165000422F50E04817590729F02130D9F00F5F89
:101660001F4FEACFB8016F5F7F4F683EF3E07F07FF
:1016700089F0FB01E358FD4F85898230A0F748EEE1
:1016800053E0461B570B6E567D4FC8018E569D4F3B
:101690000E94982BC0E9D6E009900020E9F7C059D4
:1016A000D640C8018C0F9D1F893E934020F0C8EEA4
:1016B000D3E0C01BD10B1C161D0674F4C8018C0F9F
:1016C0009D1F48EE53E0481B590BB8016E567D4FE5
:1016D0008E569D4F0E94A12B809182068F5FF7014D
:1016E000858BAE014150510960E976E0C8018D5605
:1016F0009D4FDF91CF911F910F91FF90EF900C9430
:10170000982BDF91CF911F910F91FF90EF9008954B
:101710002F923F924F925F926F927F928F929F9201
:10172000AF92BF92CF92DF92EF92FF920F931F93EF
:10173000CF93DF93CDB7DEB7A3970FB6F894DEBF94
:101740000FBECDBF5524539428EEA22E23E0B22E17
:1017500034E1432E42E9242E42E0342E5AE0C52ED5
:10176000D12CE12CF12C0E945617181619060CF0FA
:10177000EDC180E996E00E947918E0E9F6E0019079
:101780000020E9F7CF018159964020918A063091D7
:101790008B06820F931F90938B0680938A0620916D
:1017A0007D0630917E0680919006853409F497C0BD
:1017B00074F4813409F458C0843409F46FC08F3351
:1017C00009F0DCC089E391E00E94581835C18735E3
:1017D00009F488C044F4853509F0D0C010927E0623
:1017E00010927D0629C1843621F1853709F0C6C0E3
:1017F0001216130634F42150310930937E062093DB
:101800007D0680917D0690917E06382F292F18162F
:1018100019062CF090937E0680937D060DC10197EA
:10182000FC01E358FD4F4689413079F730937D063E
:1018300053C0F901E358FD4F8589882311F02F5FCC
:101840003F4F283E43E034070CF0F6C0F901E3585F
:10185000FD4F8589882309F4EFC0813081F73093EB
:101860007E0620937D06E8C050927B06F101019030
:101870000020E9F78F0103591240093D53E0150795
:101880000CF0DAC069EA71E0C8018E569D4F0E94E3
:10189000BA2B10937E0600937D06CEC0F901E35863
:1018A000FD4F8589882319F0C901019601C0C9013E
:1018B000422F232F883EA3E09A0764F4FC01E358EB
:1018C000FD4F3589332331F0313011F4482F292F62
:1018D0000196F0CF40937D0620937E06ADC00E9416
:1018E0009118AAC050927B06EEE7F2E0242D1192E7
:1018F0002A95E9F76091830670E09EE7692E92E0F1
:10190000792E41E050E0461757070CF095C0FA01D8
:10191000E057F94F9080FA0181E090E0092D10E046
:101920003196E617F7078CF49C01240F351F2057DA
:10193000394FD9012C91022E000C330B02171307DB
:1019400021F401968F30910559F7B5E59B1651F0BA
:1019500025E7921629F034E4931205C0806103C094
:10196000806201C08063D3018D933D01B2E96B16A3
:10197000B2E07B0609F460C0AF01C5CF01E010E022
:10198000F801EF5DFE4F9081981350C001301105B2
:1019900011F02F5F3F4F283EF3E03F070CF04CC0A3
:1019A000F901E358FD4F4F018589482F50E040175A
:1019B000510719F0823068F718C0B9016F5F7F4F87
:1019C000683EF3E07F0731F0FB01E358FD4F858966
:1019D0008A30A0F76E567D4FC9018E569D4F2BA3BE
:1019E0003AA30E94BA2B3AA12BA150927B06809178
:1019F0008306823008F1A9014E565D4F3A01D901A4
:101A0000A80FB11DCD01A5014A1B5B0BB3018E567A
:101A10009D4F0E94A12B4091830650E060E976E043
:101A2000C3010E94982BF401058B06C00F5F1F4F66
:101A30000A30110509F0A4CF80918A0690918B0697
:101A4000079690938B0680938A060E948A1484E3FB
:101A500091E00E9458182091860630E040E050E066
:101A600019A28E010F5D1F4FCA01B901A70196018E
:101A70000E945E2B605DD8016E938D0121153105AA
:101A80004105510589F7CD010E94791881E391E064
:101A90000E94581800917D0610917E06812C912C91
:101AA000083EB3E01B070CF041C0F801E358FD4FBE
:101AB00025892223D9F1213031F48928B9F58824E8
:101AC0008394912C0EC02A3000F56CE286ED91E0F3
:101AD0002BA30E94D02260E286ED91E00E94D022EA
:101AE0002BA1E22FF0E0EF5DFE4F608186ED91E0EB
:101AF0000E94D0226AE386ED91E00E94D02280917C
:101B00008A0690918B0602960AC0622F86ED91E0BC
:101B10000E94D02280918A0690918B060196909324
:101B20008B0680938A060F5F1F4FBACF8EE291E03B
:101B30000E94581880918A0690918B060296909385
:101B40008B0680938A06109283060DCEA3960FB65D
:101B5000F894DEBF0FBECDBFDF91CF911F910F91E3
:101B6000FF90EF90DF90CF90BF90AF909F908F90BD
:101B70007F906F905F904F903F902F90089580914D
:101B80007F06833211F128F48132F9F0823231F08C
:101B90000895843219F0853241F517C083E994E045
:101BA000EDE7F2E0DF019C011D9221503040E1F7AA
:101BB0000E94FE1680914F07909150079093520714
:101BC000809351078FE790E104C080915107909175
:101BD00052079093500780934F078091550790913B
:101BE0005607909354078093530708950E94511409
:101BF00097FF05C06FE97EE08BEA99E01CC0892B56
:101C0000E1F044E150E060E976E080EB96E00E948C
:101C10008B2B892B79F781E080937B0684E1E0E9C7
:101C2000F6E0AEE7B2E001900D928A95E1F767E940
:101C30007EE087E79EE00C94251408950E945114DD
:101C400097FF05C06FE97EE08BEA99E018C0892B09
:101C5000C1F01092830684E1E0E9F6E0A0EBB6E083
:101C600001900D928A95E1F784E1E0E9F6E0DF0169
:101C70001D928A95E9F76AE271E186EF9DE00C9486
:101C8000251408950E945114009781F197FF05C013
:101C90006BE97EE08FEB9DE027C044E150E060E916
:101CA00076E08EE792E00E948B2B892BC9F0109290
:101CB000850680914F07909150079093520780932B
:101CC00051078FE790E19093500780934F078091E1
:101CD00055079091560790935407809353070895A2
:101CE00064E97FE087E09FE00C94251408958091DB
:101CF0007F06823261F028F48032C1F0813271F4C3
:101D000009C0843221F030F0853241F403C00E94D2
:101D1000FE1604C010927B060E94811F0E948A1446
:101D200064E97FE087E09FE00C942514089587EF35
:101D300090E00C94721F88ED90E00C94721F40E9C3
:101D400056E06EE081E00E945E1382EC91E00E941A
:101D5000921342E251E060E070E080E090E00E9487
:101D6000FF154EE151E060E270E081E090E00E94FA
:101D7000FF1549E151E060E470E082E090E00E94EC
:101D8000FF1544E151E060E670E083E090E00C94E0
:101D9000FF1540E956E064E180E00E945E1385E0B3
:101DA00091E00C94721F409183064E3020F050E079
:101DB0004D50510902C040E050E04057594F6DE08E
:101DC00081E00E945E1382EC91E00E94921342EF48
:101DD00050E060E070E080E090E00E94FF154DEE82
:101DE00050E060E270E081E090E00E94FF1548EE74
:101DF00050E060E470E082E090E00E94FF1543EE66
:101E000050E060E670E083E090E00C94FF15809174
:101E10007F06823209F445C028F48032B9F081325D
:101E200021F14BC08432E9F1F0F1853209F045C06F
:101E30001092820680E8E0E9F6E0DF011D928A95C3
:101E4000E9F76FE97EE08BEA99E035C080917D0685
:101E500090917E06019797FD07C0FC01E358FD4F66
:101E600025892130B9F717C0089580917D0690919A
:101E70007E06FC01E358FD4F2589222309F453C057
:101E80000196883E23E0920758F4FC01E358FD4F89
:101E900025892230A8F790937E0680937D0638C06E
:101EA00008950C94AD1410927B061092820663ED97
:101EB0007EE088E190E10C94251410927E06109249
:101EC0007D0620E030E040E050E090E0E0E0682F68
:101ED0006F7070E004C0922FE32F2F5F3F4F283EBA
:101EE000B3E03B07E1F0D901A358BD4F5596FC91F3
:101EF000FF2381F0F13089F74F5F5F4F4617570797
:101F000051F730937E0620937D0684FD0E94AD1428
:101F10000C948A1490937D06E0937E06F9CF30935B
:101F20007E0620937D0608950F931F93CF93DF9332
:101F3000CDB7DEB760970FB6F894DEBF0FBECDBF4A
:101F400080917D0690917E0620E8E0E9F6E0DF01D1
:101F50001D922A95E9F7FC01E358FD4F25892223BC
:101F600041F1019620E030E0883EB3E09B07E0F4C9
:101F7000FC01E358FD4F6589462F50E04230510582
:101F80008CF04A30510554F0203431054CF4F901FD
:101F9000E057F94F60832F5F3F4F02C021E430E0EC
:101FA0000196E2CF452B29F044E06EE189E70E94DB
:101FB000DF131092B00640E956E063E180E00E9432
:101FC0005E1380917D0690917E06892B29F044E076
:101FD00060E089E70E94DF1382EC91E00E94921397
:101FE000809187061F928F93809186061F928F9310
:101FF0008EEC91E09F938F938E010F5F1F4F1F9385
:102000000F930E94C12BA8016EE180E00E945E1335
:102010000FB6F894DEBF0FBECDBF60960FB6F89432
:10202000DEBF0FBECDBFDF91CF911F910F910895FD
:1020300080917F068232F1F028F4803249F08132BB
:1020400081F008958432B1F028F1853219F10895B4
:10205000809182068F5F843050F0109282060C943B
:102060001C16809182068150843008F083E08093B2
:102070008206F5CF80918206833029F469EC7EE0F8
:102080008AE19AE014C0109283066EE670E189EA54
:102090009AE00DC080917B06811105C064E97FE064
:1020A00087E09FE004C067E97EE087E79EE00C944C
:1020B00025148091840684FF0FC0809183068E30A2
:1020C00010F08DE090E020E14BE060E099E0989F17
:1020D000802D11240E94C9150C94D30E8091830683
:1020E0008E3010F08DE090E020E14BE060E099E070
:1020F000989F802D11240E94C9150C94D30E5D9ACF
:1021000061E081E10E94D624109283060E942C2671
:1021100060938C0670938D0680938E0690938F0645
:1021200080E8E0E9F6E0DF011D928A95E9F7EEE745
:10213000F2E08191882329F06BEA70E182E49EE06D
:1021400008C0B2E0E239FB07A1F764E97FE087E06D
:102150009FE00C9425148F929F92AF92BF92CF92E2
:10216000DF92EF92FF920F931F93CF93DF93CDB740
:10217000DEB766970FB6F894DEBF0FBECDBF4EEC4C
:1021800050E06DE084E10E94FE1382EC91E00E9439
:1021900092134AEC50E067E08EE60E94FE1330E9AD
:1021A000A32E36E0B32ECE0101966C0111E04C0156
:1021B000F50181915F01982F9F709063F6019193D3
:1021C0006F01882359F185FD03C02DE1F22E02C075
:1021D00093E1F92E84FF07C061E06F0D43E0812F8A
:1021E0000E94DF131BC0012F83E0E82EE10EE116F1
:1021F00010F40E2DE12EE01688F0609145027091EA
:10220000460200935F02F09260022FE532E042E363
:1022100083E492E00E94671C0F5FEDCF1A5F1937CD
:1022200039F61D8AA4016CE180E00E945E13669677
:102230000FB6F894DEBF0FBECDBFDF91CF911F91D7
:102240000F91FF90EF90DF90CF90BF90AF909F9055
:102250008F9008950E94AB1082EC91E00E9492133F
:102260004AE251E067E080E00C94FE130E94AB105C
:1022700082EC91E00E94921346E251E067E080E038
:102280000C94FE13CF92DF92EF92FF920F931F9365
:10229000CF93DF931F92CDB7DEB76C01DC01DC96E4
:1022A0001C91DC97DB960C917C01B4E0EB0EF11CE9
:1022B000DC015996ED91FC915A97C7016983099504
:1022C000482F410F2981602FC7010E94D51CF601BC
:1022D00023AD082E000C990B820F911D83AF81E076
:1022E00090E00F90DF91CF911F910F91FF90EF90B1
:1022F000DF90CF900895DB011496ED91FC91159736
:1023000020E030E065E009940F93FC010150040FD8
:1023100084A996A9941718F0081728F402C0081782
:1023200050F0041740F42150260F83A995A9961761
:1023300020F4281720F480E007C0281720F481E05B
:10234000261710F0F8CF81E00F91089598E04CE83F
:10235000562F5827282F30E035952795822F50FF8C
:1023600002C0842F82276695915091F708950F93AC
:102370001F93CF93DF930E945617181619060CF07F
:10238000C7C000918306033038F0C0E0D0E080E0A1
:1023900010E00150110909C040E050E06EEA71E020
:1023A0008FEF9FEF0E946D16E6CFC017D10744F460
:1023B000FE01E057F94F60810E94A6112196F5CFEA
:1023C00010928306FE01E057F94F2081022E000C87
:1023D000330BA9014827CA018F739927892B11F064
:1023E00083E489C010828091900680628093900679
:1023F0008037C9F08337B9F080917C06882309F4CF
:1024000079C080919006823709F443C034F486364F
:1024100009F46DC0803731F16DC0833781F08737A3
:1024200009F440C067C0E8EBF6E0DF0196978C91B5
:102430008F73819356E0EC3CF507B9F7E2CF84E166
:10244000E8EBF6E0AEE7B2E001900D928A95E1F795
:1024500088EE93E0E2E9F2E0DF019C011D92215059
:102460003040E1F76CED75E080E090E00E9442259D
:1024700044E150E068EB76E08EE792E00E948B2B1F
:10248000892B21F481E080937C0637C010927C0672
:1024900031C01092920640E956E062E972E088EE9F
:1024A00093E030C081E080937B06809191068F702D
:1024B00038E78302C0011124883E43E09407ECF41E
:1024C0009C012C0F3D1F283E334024F0C8EED3E082
:1024D000C81BD90BC330D10584F0AE01425051095D
:1024E00062E976E08E569D4F0E94982B06C00E94AE
:1024F000FE1603C08CE48093900640E050E060E05C
:1025000070E0CE01DF91CF911F910F910C946D1669
:10251000DF91CF911F910F910895AB01E091D6010A
:10252000F091D7010280F381E02DBC0186ED91E0AE
:102530000994EF92FF920F931F93CF93DF93D82FBD
:10254000062FC42F142FF82EF40EEE24EA948F2DAC
:10255000811B1830A8F0609145027091460280936B
:102560005F020093600210926202E09261022FE526
:1025700032E04BE383E492E00E94671C1850E7CFFF
:102580008C2F887FD80F4C2F477019F197E049277F
:102590006091450270914602D0935F020093600201
:1025A000109262024F5F47708FEF90E001C0880F7A
:1025B0004A95EAF7809361022FE532E04BE383E42A
:1025C00092E0DF91CF911F910F91FF90EF900C94CB
:1025D000671CDF91CF911F910F91FF90EF900895AD
:1025E0001F93CF93DF93D82FC62F142F0E949912D9
:1025F00061E06C0F412F8D2FDF91CF911F910C94D3
:102600009912DF92EF92FF920F931F93CF93DF9374
:10261000082FD62FC42F142FF62EF40EEE24E39499
:10262000DD24DA948F2D811B1830A8F060914502CB
:102630007091460200935F0280936002E092620212
:10264000D09261022FE532E04BE383E492E00E94F6
:10265000671C1850E7CF8C2F887FD80F4C2F4770FE
:1026600029F197E049276091450270914602009355
:102670005F02D093600281E0809362024F5F4770F7
:102680008FEF90E001C0880F4A95EAF780936102CE
:102690002FE532E04BE383E492E0DF91CF911F918D
:1026A0000F91FF90EF90DF900C94671CDF91CF911A
:1026B0001F910F91FF90EF90DF900895CF92DF92DE
:1026C000FF920F931F93CF93DF9300D0CDB7DEB768
:1026D000F82E062FE0915802F091590283E492E01F
:1026E00049835A830995080F4981C42E5A81D52EF2
:1026F00010E0F60121916F01222349F0402F6F2D48
:1027000083E492E00E94D51CF80E180FF2CF812FBF
:102710000F900F90DF91CF911F910F91FF90DF905D
:10272000CF90089520914702309148022817390729
:1027300009F444C09093480280934702009709F43B
:1027400037C020915A02FC01211107C03596E4914F
:10275000E0935B02FC013C960FC0213039F43F96B8
:10276000E491E0935B02FC01709606C03D96E49113
:10277000E0935B02FC013E96849180935C02809121
:102780005B02082E000C990B20915C02821B9109C0
:1027900027FD939520915D02203441F0829FC00176
:1027A000112426E0969587952A95E1F780935E029D
:1027B0008DE299E1909359028093580208950F9306
:1027C0001F93CF93DF93C82FD62F142F02E0242F0F
:1027D000462F682F83E492E00E948411882349F0F9
:1027E000412F6D2F8C2FDF91CF911F910F910C9462
:1027F000F012DF91CF911F910F910895FF920F93E7
:102800001F93CF93DF93D82FF62E8A01E0915802C1
:10281000F091590283E492E00995F80EC0E0F801C6
:102820002491222359F04F2D6D2F83E492E00E94D2
:10283000D51CD80FC80F0F5F1F4FF1CF8C2FDF9122
:10284000CF911F910F91FF900895009729F48091E7
:1028500051079091520708C020914F0730915007BF
:1028600030935207209351079093500780934F075E
:102870006115710549F48091550790915607909321
:1028800054078093530708958091530790915407FC
:10289000909356078093550770935407609353079E
:1028A000089520918306243178F580917F06823245
:1028B00079F030F4803251F0813269F490E00BC04D
:1028C000843211F138F0853211F105C090E203C075
:1028D00090E301C090E1E22FF0E0E057F94F8081F2
:1028E000882331F08073891719F02F5F20938306B6
:1028F000E0918306F0E0E057F94F80818F5F892BEC
:10290000808380E090E0089581E090E008958FEF6B
:102910009FEF0895109287061092860630E060912E
:102920007D0670917E0620E080E090E0FC01E35897
:10293000FD4F4589442361F0413029F43F5F68171A
:1029400079070CF02F5F0196883E43E0940771F7FA
:10295000309387062093860608958F929F92AF92B8
:10296000BF92CF92DF92EF92FF920F931F93CF937C
:10297000DF9300917D0610917E065D9860E081E115
:102980000E94D624F801E358FD4F8589813061F417
:102990000F5F1F4F083E83E0180730F4F801E3583B
:1029A000FD4F85898A30A0F75801E8EEAE16E3E0C6
:1029B000BE0628F026E4822E21E0922E0DC0F501FD
:1029C000E358FD4F85898230A8F39FEFA91AB90A11
:1029D000ECCFCA15DB055CF08EE4881681E0980622
:1029E00009F4BAC0F40181914F01E801F2CFFE0170
:1029F000E358FD4F958921968913EBCFC12CD12C3B
:102A0000E12CF12CCA15DB0534F4FE01E358FD4F2F
:102A100085898A30C0F41C141D04F4F61092EB076B
:102A20001092EC071092ED071092EE071092EF074C
:102A30001092F0071092E90769EE77E085EE97E0D3
:102A40000E94761BC9CFF1E0EF16F10469F092E025
:102A5000E916F10459F0E114F10409F07BC08C355A
:102A600009F471C0682F3FC0E12CF12C8A3509F4BC
:102A700041C018F58A33B1F128F4803309F041C020
:102A80006BEC31C08B33A1F18034D9F51092EB0798
:102A90001092EC071092ED071092EE071092EF07DC
:102AA0001092F0071092E90769EE77E085EE97E063
:102AB0000E94761BC12CD12C4DC08C3559F008F4E6
:102AC00046C08D3561F08A37E1F46CE271E080E058
:102AD00090E014C06CE585EE97E00E94511CE12C5B
:102AE000F12C38C06CEC85EE97E00E94511C32C08E
:102AF0006DECF9CF68EE73E080E090E00E94422533
:102B000029C09FEC980F993020F4682F6F706F5395
:102B1000EACFE82FEF71F0E0E55DFE4F60816623BC
:102B2000C9F085FF08C085EE97E00E94E71BEFEF34
:102B3000CE1ADE0A0FC085EE97E00E94A41BF1E0DA
:102B4000CF1AD10807C0EE24E394F12C03C082E031
:102B5000E82EF12C219656CF68EC70E080E090E0F2
:102B60000E94422568EC70E080E090E00E944225DF
:102B70005D9A61E081E1DF91CF911F910F91FF900C
:102B8000EF90DF90CF90BF90AF909F908F900C947C
:102B9000D624FF920F931F93CF93DF93182FC62F46
:102BA000F42ED22F022F242F462F682F83E492E099
:102BB0000E9484118823E9F04F2D6C2F812F0E94F1
:102BC00099124D2F6C2F812F0E9401138FEF8F0DC3
:102BD0004D2F6C2F810F0E940113D1506D2F6C0F60
:102BE0004F2D812FDF91CF911F910F91FF900C946A
:102BF0009912DF91CF911F910F91FF9008950F933C
:102C00001F93CF938C01C62F6EE182E08C0F0E9440
:102C1000FE132091820630E02017310749F42CE0A2
:102C20004CE164E18C2FCF911F910F910C94C91549
:102C3000CF911F910F91089580917D0690917E060E
:102C400020918206213058F0233040F0233039F4AF
:102C500065EB71E080E996E00C94BA2B019630E4C4
:102C6000E0E9F6E0DF011D923A95E9F730E02F5FE9
:102C70003F4F883EB3E09B0768F4FC01E358FD4FEB
:102C80004589442349F1642F042E000C770B621709
:102C9000730741F49C012F5F3F4FE0E9F6E0805C51
:102CA0009F4F16C04130C1F04A301CF42617370739
:102CB0009CF00196DECF2817390771F0D901A3588F
:102CC000BD4F55964C91403238F041932F5F3F4FA6
:102CD000283E43E0340778F308958F929F92AF9295
:102CE000BF92CF92DF92EF92FF920F931F93CF93F9
:102CF000DF93CDB7DEB728970FB6F894DEBF0FBECF
:102D0000CDBF8C016B0110928306672B21F480E903
:102D1000C82E86E0D82E17FF08C0F60101900020CB
:102D2000E9F731978F010C191D095A01E12CF12C9B
:102D30004501A114B10411F456011DC0F5018081B3
:102D40008823D1F361E070E0C5010E948D128FEFFE
:102D5000A81AB80AF40160818E2D0E94A611E82EEF
:102D6000F12C80918A0690918B06019690938B06A8
:102D700080938A06DDCFC5018C199D0980179107C4
:102D80004CF4F50161915F018E2D0E94A611E82E91
:102D9000F12CF1CF17FF02C000E010E0C7018F73E4
:102DA0009927806489838AE08A83B801C6010E94DA
:102DB0008D1262E070E0CE0101960E948D120E5FCE
:102DC0001F4F80918A0690918B06080F191F109350
:102DD0008B0600938A0628960FB6F894DEBF0FBEC6
:102DE000CDBFDF91CF911F910F91FF90EF90DF90BA
:102DF000CF90BF90AF909F908F900895EF92FF92E9
:102E00000F931F93CF93DF9310927A060DE712E092
:102E1000C0E0D0E07801F80161918F01CE010E94FD
:102E2000502BF701608180917A060E94A611809351
:102E30007A062196CD3FF3E0DF0761F7682F8DEF2B
:102E400093E00E94502B10927A06DF91CF911F9150
:102E50000F91FF90EF900895FC018091D5018111B1
:102E600003C08FEF9FEF08959FB7F89482E080939F
:102E7000E9002091F20030E01216130614F421E06C
:102E800030E02115310559F0289884E68093D4016B
:102E90008091F10080838091F200882319F09FBF18
:102EA000C90108958BE68093E800F9CFCF93809114
:102EB0007F06882321F15D9A61E081E10E94D6249A
:102EC000109282061092830610927E0610927D0662
:102ED00080E8E0E9F6E0DF011D928A95E9F780914C
:102EE0007B06811105C064E97FE087E09FE004C0B4
:102EF00067E97EE087E79EE00E94251432C060E02B
:102F000081E10E94D62410928506C0910F016AE0EB
:102F100070E080E090E00E944225C1111BC08FEF5D
:102F20009FEF90938B0680938A06909389068093F7
:102F3000880617C0AE2FB0E0A057B94F8C93EF5F53
:102F4000E0938306E03830F01092890610928806EC
:102F50001092830686ED91E00E94B52397FF04C08E
:102F60005D9A80E090E016C05D98209188063091CF
:102F700089062F5F3F4F3093890620938806E091A2
:102F800083068A309105B1F6F0E0E057F94F1082E0
:102F900081E090E0CF9108950F931F93CF93DF933B
:102FA0008C01EB0182EC91E00E94921320E030E072
:102FB000F801E20FF31FE491EE2319F02F5F3F4F6A
:102FC000F7CF8AEF289F802D1124A80167E0805851
:102FD0000E94FE1380E090E0FE01E80FF91FE491EB
:102FE000EE2311F00196F8CF9AEF899F802D1124DE
:102FF000AE016EE18058DF91CF911F910F910C943B
:10300000FE130F931F93CF93DF93CDB7DEB7A09737
:103010000FB6F894DEBF0FBECDBF20918806309169
:1030200089068E010F5F1F4F37FF11C09F938F934B
:103030008EEB91E09F938F931F930F930E94C12B70
:103040000F900F900F900F900F900F9017C040911E
:103050008B064F9340918A064F933F932F939F93F4
:103060008F938AEC91E09F938F931F930F930E940D
:10307000C12B0FB6F894DEBF0FBECDBFA80163E130
:1030800081E00E945E1382EC91E00E9492136AE854
:1030900071E08FE891E00E94CC17A0960FB6F894EB
:1030A000DEBF0FBECDBFDF91CF911F910F9108956D
:1030B0000F931F93CF93DF938C01C0E0D0E0F80112
:1030C000EC0FFD1F6491662371F0E091D601F09141
:1030D000D7010190F081E02D86ED91E00995892BD3
:1030E00011F02196ECCFCE01DF91CF911F910F917E
:1030F0000895BC01009791F0FC0101900020E9F7D0
:103100003197AF01481B590BE091D601F091D701DF
:103110000280F381E02D86ED91E0099480E090E05B
:1031200008950F931F93CF93DF9380917D06909125
:103130007E06FC01E358FD4F2589222391F1BC0155
:103140006F5F7F4FFB01E358FD4F2589223020F54B
:1031500008EE13E0E801C61BD70B1C161D060CF584
:103160006E567D4FAE018E569D4F0E94982B8091DA
:103170007D0690917E068C0F9D1FA801481B590B60
:1031800060E070E08E569D4F0E94B32B81E08093EB
:103190007B0681E090E007C0683E23E0720780F282
:1031A000D7CF80E090E0DF91CF911F910F910895EC
:1031B000FC0182818F5BFB01808381E0089508958B
:1031C000DC011696ED91FC91179712968C91481B95
:1031D000477081E090E001C0880F4A95EAF7E60F5A
:1031E000F11D3081222311F0832B02C080958323AF
:1031F00080830895FB014181DC0112962C91129786
:10320000421768F013962C911397241740F06081B1
:1032100015962C91621718F424810C94E0180895E7
:10322000FC0180819281980F92832181921760F432
:1032300094819F5F94839381890F821710F08FEFA1
:10324000820F838381E0089580E00895FC0112825B
:103250008081815083831482089580E008950B96C5
:10326000FC01849108950A96FC0184910895FC0163
:10327000849108950E943719882321F0823011F03B
:1032800083E0089586E00895FC01E60FF11D849126
:1032900090E0982F88273196E4918E0F911D089524
:1032A00068E00C94441966E00C9444192EE93FE060
:1032B000009729F0F9013197F1F70197F9CF0895B7
:1032C0001092F2071092F10708958093F907109277
:1032D000B90084FF02C08CE001C088E48093B8008C
:1032E0000C946019CF93DF93CDB7DEB769970FB613
:1032F000F894DEBF0FBECDBFFC01DB018C918F5F68
:103300008C93BE016F5F7F4F89E1DB011D928A952F
:10331000E9F729E0298384E08A8391E09D8383E0B3
:103320008E832A8721E22B879C879D879F8722E2B5
:10333000288B27E02B8B25E02C8B8E8B20E430E034
:10334000388F2F8B998F82818B8395858685998B7A
:103350008A8B838180688D8B49E150E080E00E94F8
:10336000252469960FB6F894DEBF0FBECDBFDF915E
:10337000CF910895CF92DF92EF92FF920F931F9318
:10338000CF93DF938C017B016A0180E0F601C49149
:1033900081110BC0CF3F09F457C04C2FB701C801B2
:1033A0000E947B1181114EC054C0CF3F11F44FEFEA
:1033B000F5CFCE3F09F44FC0C03F08F043C0C03E38
:1033C00058F04C2F4F70D7011496ED91FC91159742
:1033D00020E030E062E00CC0C03D68F04C2F4F7040
:1033E000D7011496ED91FC91159720E030E063E051
:1033F000C801099527C0C03CF8F0D7011496ED919B
:10340000FC91159720E030E040E064E0C8010995A8
:10341000C295C07FCE5FD0E0CE010E945619D70181
:103420001496ED91FC91159720E030E041E064E0C6
:10343000C8010995CE0104C0C7FD04C08C2F90E0DF
:103440000E94561980E001C081E0BFEFCB1ADB0A71
:103450009DCF80E001C081E0DF91CF911F910F915E
:10346000FF90EF90DF90CF9008958F929F92AF9250
:10347000BF92CF92DF92FF920F931F93CF93DF9370
:1034800000D0CDB7DEB76C018B01F42E490120E1ED
:10349000421709F456C02417A0F03AE043135BC06A
:1034A000DB011496ED91FC91159720E030E042E0AD
:1034B00061E0099540E655E0B801C6010E94BA19DD
:1034C0004AC081E1481709F43FC0A5E14A1343C04F
:1034D000FB01A280B38048E555E0C6010E94BA19FD
:1034E000D50114964C91406BB801C6010E947B1126
:1034F000D8011496ED91FC91159720E030E041E061
:1035000062E0C6010995F50126813781D80114963C
:10351000ED91FC911597D50115964C9166E0C60189
:103520000995811102C080E0D3C0D8011496ED91B5
:10353000FC91159720E030E040E063E0C60109957A
:103540000AC04FE455E002C044E455E0B801C601AA
:103550000E94BA19BCC0F80102811381F2E3FF1680
:1035600009F479C0FF15B8F025E1F21609F480C01E
:1035700037E1F31609F492C084E1F812A8C0D8012B
:103580001696ED91FC91179715968C919F01280F37
:10359000311DC90165C0A6E4FA1609F48FC0B7E46D
:1035A000FB1609F48FC0EBE3FE1291C0D401119613
:1035B0008C91119713969C91913029F0933031F4AE
:1035C000482F885004C048E0480F01C0482F21E030
:1035D000F8013381381708F420E031E0D801129661
:1035E0005C91451708F430E051E0481708F050E0CE
:1035F000822F852B382319F4252309F468C0F401A0
:10360000F280913051F030F0923049F0933051F423
:103610002FEF09C020E031E007C021E004C020E026
:103620003FEF02C020E030E0F7FE08C0B401C8015F
:103630002A8339830E94FA1839812A81D4018C9116
:10364000830F8C9311968C911197820F11968C9306
:10365000FF0C51F73CC0B401C8010E94FA1837C0F2
:103660001192E817F907E1F7C8010E9426192FC047
:10367000C8010E941019882309F455CFD801169665
:10368000ED91FC91179715968C919F01280F311D94
:10369000C9011192E817F907E1F719C0D4011C928A
:1036A000F801828111968C93119785818150129631
:1036B0008C931297838113968C9309C0D801159629
:1036C0008C9103C0D80111968C91F401808381E024
:1036D0000F900F90DF91CF911F910F91FF90DF908E
:1036E000CF90BF90AF909F908F9008950F931F93AE
:1036F000CF93DF931F92CDB7DEB78B018091370256
:10370000811107C086E292E00E94512781E08093F8
:10371000370282E0898341E050E0BE016F5F7F4F56
:10372000809129020E947C2597FD08C08091290282
:1037300048E050E0B80180640E947C250F90DF9142
:10374000CF911F910F910895DC01683810F06858EF
:1037500025C0E62FF0E067FF12C0E058F10981E0D4
:1037600090E001C0880FEA95EAF7809514969C9145
:103770001497892314968C93149760E00FC0EA572E
:10378000FA4F6491662301F167FF08C014968C918B
:1037900014978D7F14968C9314976F77FD0136964E
:1037A00086E0662321F09081961301C0108281503B
:1037B00031968111F6CFCD01BD016C5F7F4F0E9424
:1037C000761B81E090E0089580E090E00895DC01B0
:1037D000683810F068582DC0E62FF0E067FF11C080
:1037E000E058F10981E090E001C0880FEA95EAF71E
:1037F00014969C911497892B14968C93149760E0DF
:1038000018C0EA57FA4F6491611109C081E090E055
:1038100013969C938E93129780E090E0089567FF33
:1038200008C014968C911497826014968C93149708
:103830006F7716968C911697861751F117968C9183
:103840001797861729F118968C911897861701F10A
:1038500019968C9119978617D9F01A968C911A9708
:103860008617B1F01B968C911B97861789F0FD0186
:10387000369680E090E02191211105C0FD01E80F0E
:10388000F91F668305C0019686309105A1F7BECF6A
:10389000CD01BD016C5F7F4F0E94761B81E090E0FF
:1038A0000895EF92FF921F93CF93DF93EC01162FB1
:1038B0000E94E71B7C01612FCE010E94A41BC7015F
:1038C0009927DF91CF911F91FF90EF900895DB0131
:1038D000ED91FC910994EF92FF920F931F93CF9378
:1038E000DF931F92CDB7DEB78C01DC011296ED900D
:1038F000FC901397D196ED91FC91D29782E00995B7
:1039000020E030E04AE0B701C8010E94671CF82EB1
:10391000D801D196ED91FC91D29783E00995D80119
:10392000D196ED91FC91D29780E00995FF20A1F10D
:10393000F801628173819E012F5F3F4F46E4C80109
:103940000E94671C8981D8018C9312966D917C919D
:1039500013979E012F5F3F4F47E4C8010E94671CE9
:103960008981F80181836281738120E030E048E43D
:10397000C8010E94671CD8011B968C931B97980165
:103980002D5C3F4F12966D917C91139747E1C801D2
:103990000E94671C81E001C080E00F90DF91CF9111
:1039A0001F910F91FF90EF9008952F923F925F9299
:1039B0006F927F928F929F92AF92BF92CF92DF923F
:1039C000EF92FF920F931F93CF93DF931F92CDB788
:1039D000DEB71C01C62E142F022FDC011496ED90C9
:1039E000FC90159780E0E82FF0E0EE0FFF1FEC57FA
:1039F000FE4F208131812115310541F0E216F30699
:103A000011F08F5FF0CF003C08F00051C7010E9419
:103A10003719D82EF101848195810E943A19982E88
:103A2000F1E0DF1203C02FE0A22E02C0AA24AA9464
:103A3000D10114968D919C9115970E943319D82E1F
:103A4000F101848195810E942F19B82ED10114961D
:103A50008D919C9115970E945019013638F000976E
:103A600029F0E80EF91E91E6D92E11C0F1018481EA
:103A700095810E945319013438F0009729F0E80E1F
:103A8000F91E81E4D82E03C0F1E1EF0EF11CB0164F
:103A900080F4D10150961C92509753961C925397E4
:103AA00054961C92549751961C92519752961C9280
:103AB000C7C0BD1470F3892D90E0F70124912F3F0A
:103AC00021F4FFEFEF1AFF0A5AC0D0124FC0D10104
:103AD00014968D919C9115970E94371997012F5F2D
:103AE0003F4FF701882311F08230E1F48491D10136
:103AF00053968C935397F901249154962C93549791
:103B0000F7013396E4915096EC935097F701349671
:103B1000E4915196EC935197F7013596E4915296C2
:103B2000EC9320C08491982F9F709250D1015296AF
:103B30009C93529782958F7051968C935197F9016F
:103B40002491822F8F7054968C93549722952F70C6
:103B500053962C935397F7013296E491E295EF70C8
:103B60005096EC93E114F10479F46AC0F7013296AF
:103B7000E491EA219C012E0F311DE20EF31EDB14AD
:103B800009F487CFD39499CFF101848195810E9464
:103B90003A19B82ED10153969C9053975496DC90C5
:103BA000549751968C915197C80E52969C919D0DA9
:103BB000512E591A0D2D292D452D6C2DC1010E9414
:103BC00084118823D1F1C7018B0D911D5C0187E021
:103BD000890DF82EF694F694F694D50C41019CE1EB
:103BE000890E911C6F2C712C5D1439F15C2D8501AF
:103BF000802F8A198F15E8F4F8018491D10112966B
:103C00006D917C9113975C965C935C975D965C924A
:103C10005D975F961C925F975E968C9394014BE341
:103C2000C10159830E94671C0F5F1F4F5981585F64
:103C3000DFCFA60CB71C5394D7CFF101808901C008
:103C400080E00F90DF91CF911F910F91FF90EF9047
:103C5000DF90CF90BF90AF909F908F907F906F90AC
:103C60005F903F902F9008959091F207911104C0BA
:103C70008093F2076093F10708951F93CF93DF932A
:103C800000D0CDB7DEB720ED37E03A83298390919D
:103C9000BC00982399F429813A81232B51F4809117
:103CA000F907182F127081FD09C081E00E94341EAF
:103CB00006C029813A8121503109E7CF11E0812FD7
:103CC0000F900F90DF91CF911F91089584E9809319
:103CD000BC0064E080E10C943D1ECF938093BB0058
:103CE00084E88093BC0063E080E80E943D1EC82FFA
:103CF000882389F08091F907C82FC27081FD0AC01E
:103D00008091B900887F883229F063E082E00E94C8
:103D1000341E01C0C1E08C2FCF910895CF93DF9363
:103D2000FC0123A5222379F0EC010E94BB1F811125
:103D300002C080E009C08EA1811180E40E946D1E46
:103D40008823B9F31BA681E0DF91CF9108950F93EB
:103D50001F93CF93C42F89016330C1F050F46130B9
:103D600081F0623009F048C0FC0146A321E023A79E
:103D700043C0663011F1673079F1653009F03CC01D
:103D80000EC0FC0186A50E94651936C0FC0116A272
:103D900021E023A7411130C00E94661E2DC00E9461
:103DA0008E1E811104C00E94661E80E026C08C2FEA
:103DB0000E946D1E811120C0F6CF0E948E1E8823A6
:103DC00091F3CC23C9F0F80181918F010E946D1EFF
:103DD000882349F3C150F5CF0E948E1E882319F322
:103DE000CC2351F0F80184910E946D1E882329F0A4
:103DF0000F5F1F4FC150F4CF81E0CF911F910F9102
:103E000008950E94862B0F931F93CF93DF931F92E9
:103E1000CDB7DEB782E0898342E450E066E076E029
:103E200080E80E9425240E949924DC0112960D91BD
:103E30001C9113970115110569F0D801ED91FC91C2
:103E40000280F381E02DBE016F5F7F4FC8010995AD
:103E500097FF07C089810F90DF91CF911F910F913C
:103E60000895F80100851185E5CFCF92DF92EF929A
:103E7000FF920F931F93CF93DF931F92CDB7DEB7BF
:103E8000182F062FE42E862F880F8E5F99830E94AD
:103E9000F72383E00E94F723F12EC12E9981D92EBA
:103EA0008C2D8F19801798F4F601E7FE02C08491DB
:103EB00001C080810E94F723182F80E00E94F72321
:103EC0008123FFEFCF1ADF0A8111EACF01C081E021
:103ED0000F90DF91CF911F910F91FF90EF90DF90A6
:103EE000CF9008952091840624FF05C0AC0165E1C0
:103EF00081E00E94FE136BE776E08EE796E00C947B
:103F0000CC17EF92FF921F93CF93DF9310927A0614
:103F10008DE7E82E82E0F82EC0E0D0E0CE010E94CE
:103F2000482BD7018D937D01682F80917A060E94DE
:103F3000A611182F80937A062196CD3FB3E0DB07B8
:103F400069F78DEF93E00E94482B181761F083E921
:103F500094E0EDE7F2E0DF019C011D92215030403A
:103F6000E1F70E94FE1610927A06DF91CF911F9121
:103F7000FF90EF900895CF9384EA8093BC0061E0B6
:103F800080E80E943D1E882359F08091B900887F07
:103F9000883041F0803131F061E082E00E94341ECF
:103FA000C0E01DC088E78093BB0084E88093BC001C
:103FB00062E080E80E943D1E882391F38091F9071A
:103FC000C82FC27081FD0AC08091B900887F8831F6
:103FD00029F062E082E00E94341E01C0C1E08C2F13
:103FE000CF9108951F920F920FB60F9211248F93C5
:103FF0009F938091E1009091E100937F9093E10085
:1040000083FF0FC01092E90091E09093EB001092B3
:10401000EC0092E39093ED001092D50198E090931C
:10402000F00082FF20C093E09093E9009091F200AD
:10403000992319F09AE39093E8009091F707992358
:1040400039F09091F70791509093F707992389F1F0
:104050009091D401992339F09091D401915090938B
:10406000D401992341F184FF10C08091E2008E7E3B
:1040700081608093E2008091E1008F7E8093E10077
:104080008091F8078E7E806111C080FF16C08091FC
:10409000E2008E7E80618093E2008091E1008E7E5E
:1040A0008093E1008091F8078E7E81608093F8070D
:1040B00004C05D9ACDCF289AD6CF9F918F910F9053
:1040C0000FBE0F901F9018951F920F920FB60F9270
:1040D0001124CF92DF92EF92FF920F931F932F93B1
:1040E0003F934F935F936F937F938F939F93AF9380
:1040F000BF93EF93FF93CF93DF93CDB7DEB76C976A
:10410000DEBFCDBF1092E9008091E80083FFEDC1D2
:1041100068E0CE0145960E948C2482EF8093E800EF
:104120008D8987FF05C09091E80090FFFCCF03C008
:104130009EEF9093E800982F907609F0C6C09E8974
:104140002F89188D91110CC0803829F48091FB07BC
:104150008093F10002C01092F1001092F10048C16A
:10416000422F50E0512B913051F4811141C1413027
:10417000510509F03DC18091FB078D7F0BC0933045
:1041800061F4811135C14130510509F031C180918F
:10419000FB0782608093FB072BC1953041F480912F
:1041A000E80080FFFCCF20682093E30021C1963017
:1041B00009F05FC0EB8CFC8C1092E9001092F607BE
:1041C0001092F507123091F51092F4071092F30750
:1041D0000E94031F99E0BE016F5F7F4FDB01E92F53
:1041E0001D92EA95E9F799831A8391E09E8390EAFC
:1041F00098879AEF99872091F5073091F607275F06
:104200003F4F3C832B838D831092E9001092F60779
:104210001092F507F092F407E092F30749E050E0BE
:1042200080E00E9425240E94031FE2C0F092F40760
:10423000E092F3070E949924DC011296ED90FC9025
:104240001397E114F10409F4C0C0D701ED91FC917A
:104250000480F581E02DBE016B5E7F4FC70109959B
:10426000009719F00CF0C4C0C7C0F701E084F184D6
:10427000E8CF973009F4C0C0983021F481E08093F2
:10428000F100B6C0993009F0B3C0837009F0B4C032
:10429000E7E1F1E081E021E036E39081992361F0EC
:1042A0008093E9002093EB0091919093EC00309380
:1042B000ED008F5F873089F78EE78093EA001092D8
:1042C000EA008F898093D50193C08B8D9C8D1092CD
:1042D000E9001092F6071092F5079093F407809387
:1042E000F307898D811156C08E899D89913A59F4C1
:1042F000813209F081C047E050E068E071E080E081
:104300000E94252475C0913209F076C0833289F469
:10431000888D90E0982F88272F89822BA0E0B0E02D
:1043200080931D0190931E01A0931F01B093200163
:104330005FC0803269F48091E80082FFFCCF67E0C3
:1043400088E091E00E948C248BEF8093E80006C007
:10435000823209F04DC08F8980930F018091FA0756
:10436000882319F0EEEFFAE002C0E0E0F8E0809177
:10437000080190910901A0910A01B0910B01803BC5
:104380009440A105B10509F07BC080910F0180FF29
:1043900093C076C00E949924DC0112960D911C9165
:1043A00013970115110541F1D801ED91FC91019090
:1043B000F081E02DBE016B5E7F4FC8010995811130
:1043C00017C0F80100851185ECCF113009F44EC0FB
:1043D000133091F48F89882309F445C0823081F429
:1043E00040E860E18AE696E00E94351F882321F0CC
:1043F0008EEF8093E80079C081E28093EB0075C076
:10440000813029F440E86BE08EE596E0EDCF833013
:1044100099F70E949924DC011296ED90FC90139775
:104420008E010F5F1F4F6801E114F10479F0D7018D
:10443000ED91FC910680F781E02DB801C701099547
:10444000080F111DF701E084F184EECFD8011C9212
:10445000F60101900020E9F73197BF016C197D0941
:1044600040E0C601C1CF68E476E002C06CE476E0CB
:104470006115710509F2FB01449150E080E840CFDD
:104480000FB6F894A89580916000886180936000D1
:10449000109260000FBEA895EE3F2AE0F20739F0B7
:1044A0008091FE0A9091FF0A91838083A1CF1092A0
:1044B000FF0A1092FE0A9CCFEE3F8AE0F80731F027
:1044C000808191819093FF0A8093FE0A87E797E7A6
:1044D000918380839BE088E10FB6F894A895809340
:1044E00060000FBE9093600083CF6C960FB6F89477
:1044F000DEBF0FBECDBFDF91CF91FF91EF91BF9196
:10450000AF919F918F917F916F915F914F913F916B
:104510002F911F910F91FF90EF90DF90CF900F9010
:104520000FBE0F901F9018952FB7F8948770809347
:10453000E9009091E800892F807295FF04C0909166
:10454000F20080E4891B2FBF0895CF92DF92EF9293
:10455000FF920F931F93CF93DF936C017A018B012E
:10456000C0E0D0E0CE15DF0589F0D8016D918D0156
:10457000D601ED91FC910190F081E02DC6010995E5
:10458000892B11F47E0102C02196ECCFC701DF9187
:10459000CF911F910F91FF90EF90DF90CF900895F2
:1045A000CF93DF931F92CDB7DEB76983DC01ED9126
:1045B000FC910280F381E02D41E050E0BE016F5F8D
:1045C0007F4F09950F90DF91CF91089583E08093FD
:1045D000E9008091F200882319F08AE38093E800D3
:1045E000089583E00E94942290E00895FC01848560
:1045F000958597FD0BC09FB7F89482E08093E90002
:104600008091F2009FBF90E0019608959FB7F894C3
:1046100082E08093E9008091F2009FBF90E00895CE
:1046200090E0FC013197EF30F105B0F5EA5AFF4F09
:104630000C94802B809180008F7703C08091800044
:104640008F7D80938000089580918000877FF9CFCF
:1046500084B58F7702C084B58F7D84BD0895809125
:1046600090008F7707C0809190008F7D03C080916C
:104670009000877F8093900008958091C0008F778D
:1046800003C08091C0008F7D8093C0000895809109
:10469000C200877F8093C20008953FB7F89480914D
:1046A000010890910208A0910308B091040826B572
:1046B000A89B05C02F3F19F00196A11DB11D3FBF5A
:1046C000BA2FA92F982F8827820F911DA11DB11DE8
:1046D000BC01CD0142E0660F771F881F991F4A95E4
:1046E000D1F70895DC01FB0112968C91129790E0AE
:1046F0002481358182179307D1F491818081813A99
:1047000031F481E0913091F0933089F411C081321D
:1047100071F49B3021F482811F968C9305C09A30EE
:1047200031F4828150968C9381E00895089580E061
:104730000895DC01FB0188E4808389E4818384E4BB
:1047400082831D969C911D979F709F5B93831D96FE
:104750008D919C911E9724E0969587952A95E1F777
:104760008F708F5B848385E00895CF93DF931F92D2
:10477000CDB7DEB7FC018485958597FD05C02FEF89
:104780003FEF358724870BC0CE0101960E942C177E
:10479000019719F4898190E002C08FEF9FEF0F908D
:1047A000DF91CF9108950F931F93CF93DF931F92C3
:1047B000CDB7DEB78C01FC018485958597FF0EC0CF
:1047C000CE0101960E942C17019719F4298130E03F
:1047D00002C02FEF3FEFF80135872487F801848569
:1047E00095850F90DF91CF911F910F910895409182
:1047F000F5075091F6072091F3073091F40742171F
:104800005307B4F49091E8009570E1F39091E800BB
:1048100092FD19C08093F1008091F5079091F60701
:1048200001968F739927892B19F48EEF8093E800F6
:104830008091F5079091F60701969093F607809383
:10484000F50781E0089580E00895DF92EF92FF92EE
:104850000F931F93CF93DF93D82E8A017B01E40E31
:10486000F51EEB01CE15DF0571F0D7FE03C0FE018A
:10487000849101C088810E94F72321968111F2CF93
:104880008FEF9FEF01C0C801DF91CF911F910F9172
:10489000FF90EF90DF900895EF92FF920F931F9398
:1048A000CF93DF93FB012081213851F52381223200
:1048B00039F5DC0112962C9130E044815581421784
:1048C0005307F1F4EC010B851C85E12CF12C01154B
:1048D000110591F0F801448155816281738180E86E
:1048E0000E9425248F3FFFEF9F0769F0E80EF91E15
:1048F000D8010D911C91EBCF81E08F87C70105C0D6
:1049000080E090E002C08FEF9FEFDF91CF911F9189
:104910000F91FF90EF900895615030F02091F100D9
:10492000FC0120830196F8CF289884E68093D40177
:1049300008958091090881110DC082E080930508D7
:1049400084E080930608109208081092070881E01E
:104950008093090885E098E00895CF93DF93282F8E
:1049600030E0F901E058FD4E8491F901EF59FD4E18
:10497000D491F901EE5BFD4EC491CC2391F08111ED
:104980000E941023EC2FF0E0EE0FFF1FEC5CFD4EB9
:10499000A591B491EC91ED2381E090E021F480E0C9
:1049A00002C080E090E0DF91CF9108951F93CF93F4
:1049B000DF93282F30E0F901E058FD4E8491F90192
:1049C000EF59FD4ED491F901EE5BFD4EC491CC231D
:1049D000C9F0162F81110E941023EC2FF0E0EE0F8A
:1049E000FF1FEA5DFD4EA591B4918FB7F8941111A8
:1049F00005C09C91ED2FE095E92302C0EC91ED2BD1
:104A0000EC938FBFDF91CF911F910895CF93DF93E8
:104A100090E0FC01EF59FD4E2491FC01EE5BFD4E50
:104A20008491882361F190E0880F991FFC01E85E72
:104A3000FD4EC591D491FC01EA5DFD4EA591B49166
:104A4000611109C09FB7F8948881209582238883DB
:104A5000EC912E230BC0623061F49FB7F89438813B
:104A6000822F809583238883EC912E2B2C939FBFDC
:104A700006C08FB7F894E8812E2B28838FBFDF9173
:104A8000CF9108958F929F92AF92BF92CF92DF9273
:104A9000EF92FF926B017C010E944D234B015C0160
:104AA000C114D104E104F104F1F00E944D23DC01B2
:104AB000CB0188199909AA09BB09883E9340A10531
:104AC000B10570F321E0C21AD108E108F10888EEBF
:104AD000880E83E0981EA11CB11CC114D104E1040E
:104AE000F10419F7DDCFFF90EF90DF90CF90BF90EA
:104AF000AF909F908F9008957F928F929F92AF92E8
:104B0000BF92CF92DF92EF92FF920F931F93CF93BA
:104B1000DF93C82E8B017A018091D501811103C0EA
:104B20008FEF9FEF75C08091F80780FF05C08091DF
:104B3000E00082608093E000CE2DDF2DD12C8AEF43
:104B4000882E8C2D8770B82E8C2D8072A82E8C2DDF
:104B50008074982E9AE3792E209709F452C08C2DF8
:104B60000E949422282F81110AC08A948820C1F2C1
:104B700061E070E080E090E00E944225EDCF90E09F
:104B8000C817D9070CF42C2F3FB7F894B092E9005E
:104B90008091E80085FF33C0822F90E0C81BD90BBD
:104BA000AA2029F02150A8F01092F100FBCFF801C3
:104BB000C7FE07C0215058F044914093F100319650
:104BC000F9CF215020F041914093F100FACF080F26
:104BD000191FDD2019F07092E8000AC08091E800EA
:104BE00085FD08C07092E800DD24D394209739F049
:104BF000D12C05C0209719F491107092E8003FBFA6
:104C0000ABCFD110ACCF5D9884E68093F707C70196
:104C1000DF91CF911F910F91FF90EF90DF90CF9098
:104C2000BF90AF909F908F907F900895CF93DF9328
:104C3000EC0180910F01882331F083E00E947C25F4
:104C40001816190634F081E090E09B838A8380E097
:104C500090E0DF91CF9108952FB7F8946091FD0710
:104C60007091FE078091FF07909100082FBF089573
:104C70001F920F920FB60F9211242F933F938F9391
:104C80009F93AF93BF938091FD079091FE07A091F2
:104C9000FF07B09100083091FC0723E0230F2D3768
:104CA00020F40196A11DB11D05C026E8230F029630
:104CB000A11DB11D2093FC078093FD079093FE0773
:104CC000A093FF07B093000880910108909102081B
:104CD000A0910308B09104080196A11DB11D809315
:104CE000010890930208A0930308B0930408BF91B1
:104CF000AF919F918F913F912F910F900FBE0F9089
:104D00001F901895CF92DF92EF92FF920F931F930F
:104D1000CF93DF93EC0188810E94AD248C010E9427
:104D20002C26298D3A8D2115310579F42A853B856C
:104D30000217130709F0ACC021E030E03A8F298F49
:104D40006B8F7C8F8D8F9E8FA3C02130310509F032
:104D500052C02885398502171307D9F40B8D1C8D95
:104D60002D8D3E8DAB01BC01401B510B620B730BB3
:104D70008E819F81092E000CAA0BBB0B4817590787
:104D80006A077B0718F41A8E198E82C082E090E0C1
:104D90002FC02A853B850217130709F079C00B8DB8
:104DA0001C8D2D8D3E8DAB01BC01401B510B620B48
:104DB000730B8C819D81092E000CAA0BBB0B8417F1
:104DC0009507A607B70708F063C081E08C87E989DB
:104DD000FA89309709F00995EB89FC89309709F039
:104DE0000995EF89F88D309709F0099586E090E0F4
:104DF0009A8F898F4DC02230310501F5CB8CDC8C28
:104E0000ED8CFE8CDC01CB018C199D09AE09BF092C
:104E1000CA80DB800D2C000CEE08FF08C816D906EE
:104E2000EA06FB0618F4ED85FE851EC08A859B8583
:104E30000817190769F583E090E0DACF23303105D0
:104E400041F4888599850817190711F5EF85F889C8
:104E50000BC026303105E1F48885998508171907BC
:104E600041F41C86ED89FE89309709F48CCF0995B1
:104E70008ACF81E08C87EF89F88D309749F0DF91F8
:104E8000CF911F910F91FF90EF90DF90CF900994F9
:104E9000DF91CF911F910F91FF90EF90DF90CF9016
:104EA0000895CF93DF93EC0181E08C838D839E0185
:104EB000265F3F4F3F832E831986188629E931E00C
:104EC000398328831C861B861E861D868F87888BC8
:104ED00081EC8A870E949924FC0121818C8190E0D9
:104EE000820F911D089774F5A281B381109719F470
:104EF000D383C2830CC018968D919C91199700970B
:104F000011F0DC01F8CF1996DC93CE9318978081CD
:104F10008A8381818B8390818D81890F808380E05A
:104F20009C81891778F4AE81BF81A80FB11D9C9137
:104F3000A181B0E0AA5EBE4F9C9391819F5F918357
:104F40008F5FEECFDF91CF910895CF92DF92EF92F6
:104F5000FF920F931F93CF93DF931092D90110927A
:104F6000D80188EE93E0A0E0B0E08093DA0190935E
:104F7000DB01A093DC01B093DD0182E591E0909329
:104F8000D7018093D6018FEF9FEF9093E301809339
:104F9000E2011092E8071092E70784E691E090930F
:104FA000E6078093E5078091DD07811113C0109219
:104FB000D8071092D70783E991E09093DA0780939E
:104FC000D9078FE290E09093DC078093DB0781E0C4
:104FD0008093DD0780913702811107C086E292E05D
:104FE0000E94512781E080933702E0913102F091D5
:104FF0003202309739F487ED97E090933202809334
:1050000031020AC080819181009711F0FC01FACF32
:1050100087ED97E0918380832091DB073091DC0757
:105020008091330290913402820F931F9093340247
:105030008093330282E3C82ED12CD0921807C092FD
:10504000170760E08BE10E9406258BE190E09093CA
:1050500012078093110798E5E92E92E0F92EF0925D
:105060001407E092130708EE13E01093160700935D
:10507000150710922B0710922A0710921D07C1E006
:10508000D0E0D0931A07C093190710921C07109212
:105090001B0761E00E94D62410922107109220077E
:1050A00010922307109222071092250710922407CE
:1050B00010922707109226071092290710922807AE
:1050C000D0923707C092360760E08CE10E94062537
:1050D0008CE190E09093310780933007F092330792
:1050E000E0923207109335070093340710924A0775
:1050F0001092490710923C07D0933907C0933807A4
:1051000010923B0710923A0761E00E94D624109259
:10511000400710923F0710924207109241071092E9
:1051200044071092430710924607109245071092C9
:105130004807109247071092500710924F0710929D
:105140005207109251071092540710925307109271
:1051500056071092550783E994E0EDE7F2E0DF018E
:105160009C011D9221503040E1F7109242021092B2
:10517000410280E791E09093400280933F021092B9
:105180007A0210927B0210927C02109248021092D6
:10519000470210924A021092490210924C0281E09A
:1051A00080934B0282E280934D0210925202109241
:1051B0005102E6E6F2E09FEF8EE08E0F91938E13A0
:1051C000FDCF81E0809363022DE239E130935902F3
:1051D0002093580280935A0210925B0210925C0254
:1051E00080E480935D0210925E028FED98E19093CF
:1051F00075028093740280E191E09093460280935F
:10520000450282E18093710283E492E00E946B1C6C
:105210008CE791E09093400280933F02DF91CF9121
:105220001F910F91FF90EF90DF90CF9008957894A9
:1052300084B5826084BD84B5816084BD85B582609B
:1052400085BD85B5816085BD80916E00816080934C
:105250006E001092810080918100826080938100B5
:1052600080918100816080938100809180008160C5
:105270008093800080919100826080939100809162
:105280009100816080939100809190008160809373
:1052900090008091C10084608093C1008091C10022
:1052A00082608093C1008091C10081608093C100C1
:1052B0008091C30081608093C3008091C0008260B0
:1052C0008093C0008091C20081608093C200809171
:1052D0007A00846080937A0080917A008260809363
:1052E0007A0080917A00816080937A0080917A00C0
:1052F000806880937A001092D5011092FB0710927B
:10530000F8078091D70081608093D70080EA80936E
:10531000D80089B5806189BD89B5826089BD09B42D
:1053200000FEFDCF61E070E080E090E00E94422549
:105330008091D8008F7C80618093D8008091E000BC
:10534000807F8093E0008091E1008E7E8093E10079
:105350008DE08093E200559A209AEEEFFFE7859169
:1053600094918B3F9C4D19F481E08093FA070E9441
:10537000811F0E942C2660938C0670938D0680936B
:105380008E0690938F06C8E8D1E08991882321F09A
:1053900062E00E940625F9CF61E081E10E940625C6
:1053A00081E0809363028CE291E0909314078093F4
:1053B000130790933307809332078BE999E090931A
:1053C0001F0780931E0787E999E090932107809338
:1053D000200780E999E090932507809324078DE8C2
:1053E00099E0909327078093260789E899E09093A6
:1053F0003E0780933D0785E899E0909340078093AE
:105400003F078EE799E090934407809343078BE72B
:1054100099E0909346078093450710928506809106
:105420004F079091500790935207809351078FE751
:1054300090E19093500780934F078091550790918A
:10544000560790935407809353070E948A1480E074
:10545000C82E80E0D82E9FE7A92E90E1B92EEE2429
:10546000E394809184068F5F8093840610927F0678
:1054700081E197E00E94822680E397E00E948226E5
:1054800080917F06882351F00E942C2660938C0621
:1054900070938D0680938E0690938F060E942C2623
:1054A00000918C0610918D0620918E0630918F060A
:1054B000DC01CB01801B910BA20BB30B813C97420B
:1054C000A940B105B0F01092850680914F079091E8
:1054D00050079093520780935107B0925007A092C3
:1054E0004F078091550790915607909354078093EA
:1054F000530780914F0790915007009709F449C0D6
:1055000020918506211108C0E0928506E0914F07A1
:10551000F091500709953DC020917F062111F4CFED
:1055200087509F40B1F508E811E0E801C858D14024
:10553000F801F1908F01FF20D9F08F2D0E94AD244A
:10554000892B99F700E010E005C00F5F1F4F0A306C
:105550001105B9F062E370E080E090E00E9442251E
:105560008F2D0E94AD24892B81F3043011051CF48A
:1055700080E090E009C0083011051CF4CE010196CE
:1055800003C0CE010196806180937F06892B09F0CC
:10559000BBCF80917C02811106C0E0927C0283E443
:1055A00092E00E946B1CC0914502D0914602E091AE
:1055B0007402F091750282E00995E0917402F09115
:1055C000750281E0099520E030E044E1BE0183E40A
:1055D00092E00E94671C26E732E047E1BE0183E4C7
:1055E00092E00E94671CE0917402F091750280E0E5
:1055F000099582E896E00E9492138091840684FFC8
:1056000005C042E06EE18EE70E94DF13E091530790
:10561000F0915407309709F00995E0915102F0910B
:105620005202309719F083E492E009950091450207
:1056300010914602E0917402F091750282E00995A2
:10564000E0917402F091750281E0099520E030E06C
:1056500045E1B80183E492E00E94671CC82F8823CB
:1056600041F026E732E047E1B80183E492E00E948E
:10567000671CE0917402F091750280E00995C111F8
:10568000B8CFC114D10409F4ECCE0E940000E9CED9
:10569000F999FECF92BD81BDF89A992780B50895FA
:1056A000262FF999FECF1FBA92BD81BD20BD0FB63E
:1056B000F894FA9AF99A0FBE01960895A1E21A2E6B
:1056C000AA1BBB1BFD010DC0AA1FBB1FEE1FFF1FA6
:1056D000A217B307E407F50720F0A21BB30BE40BF6
:1056E000F50B661F771F881F991F1A9469F760953D
:1056F0007095809590959B01AC01BD01CF010895F7
:10570000EE0FFF1F0590F491E02D099481E090E0E9
:10571000F8940C94992EFB01DC0104C08D9101904A
:10572000801921F441505040C8F7881B990B089507
:10573000FB01DC0102C001900D9241505040D8F7AE
:1057400008956817790768F4FB01DC01E40FF51F81
:10575000A40FB51F02C002900E9241505040D8F7DE
:1057600008950C94982BDC0101C06D93415050407A
:10577000E0F70895FB01DC0101900D920020E1F7B4
:105780000895AEE0B0E0E7ECFBE20C94702E0D89DA
:105790001E8986E08C831A8309838FEF9FE79E839F
:1057A0008D83AE01475E5F4F6F89788DCE01019684
:1057B0000E94E42B2F813885F801E20FF31F10823D
:1057C0002E96E4E00C948C2EACE0B0E0EAEEFBE226
:1057D0000C94622E7C016B018A01FC0117821682F7
:1057E000838181FFBDC1CE0101964C01F7019381F8
:1057F000F60193FD859193FF81916F01882309F450
:10580000ABC1853239F493FD859193FF81916F018E
:10581000853229F4B70190E00E94CC2DE7CF512CBE
:10582000312C20E02032A0F48B3269F030F4803249
:1058300059F0833269F420612CC08D3239F0803305
:1058400039F4216026C02260246023C0286021C072
:1058500027FD27C030ED380F3A3078F426FF06C018
:10586000FAE05F9E300D1124532E13C08AE0389E5B
:10587000300D1124332E20620CC08E3221F426FD0F
:105880006BC1206406C08C3611F4206802C08836D3
:1058900041F4F60193FD859193FF81916F01811190
:1058A000C1CF982F9F7D9554933028F40C5F1F4FE4
:1058B000FFE3F9830DC0833631F0833771F0833510
:1058C00009F05BC022C0F801808189830E5F1F4F01
:1058D00044244394512C540115C03801F2E06F0E5A
:1058E000711CF801A080B18026FF03C0652D70E017
:1058F00002C06FEF7FEFC5012C870E94C12D2C01E4
:1059000083012C852F77222E17C03801F2E06F0E0D
:10591000711CF801A080B18026FF03C0652D70E0E6
:1059200002C06FEF7FEFC5012C870E94B62D2C01BE
:105930002C852068222E830123FC1BC0832D90E040
:1059400048165906B0F4B70180E290E00E94CC2DD1
:105950003A94F4CFF50127FC859127FE81915F01F0
:10596000B70190E00E94CC2D31103A94F1E04F1A2B
:1059700051084114510471F7E5C0843611F089369D
:1059800039F5F80127FF07C0608171818281938119
:105990000C5F1F4F08C060817181072E000C880BBF
:1059A000990B0E5F1F4F2F76722E97FF09C09095AF
:1059B0008095709561957F4F8F4F9F4F2068722E15
:1059C0002AE030E0A4010E94042EA82EA81844C0AA
:1059D000853729F42F7EB22E2AE030E025C0F22F41
:1059E000F97FBF2E8F36C1F018F4883579F0B4C036
:1059F000803719F0883721F0AFC02F2F2061B22EE9
:105A0000B4FE0DC08B2D8460B82E09C024FF0AC0DF
:105A10009F2F9660B92E06C028E030E005C020E137
:105A200030E002C020E132E0F801B7FE07C060813B
:105A30007181828193810C5F1F4F06C060817181EB
:105A400080E090E00E5F1F4FA4010E94042EA82E5C
:105A5000A818FB2DFF777F2E76FE0BC0372D3E7FDB
:105A6000A51450F474FE0AC072FC08C0372D3E7EA7
:105A700005C0BA2C372D03C0BA2C01C0B52C34FF99
:105A80000DC0FE01EA0DF11D8081803311F4397ED5
:105A900009C032FF06C0B394B39404C0832F867844
:105AA00009F0B39433FD13C030FF06C05A2CB31471
:105AB00018F4530C5B18B32CB31468F4B70180E2EC
:105AC00090E03C870E94CC2DB3943C85F5CFB31475
:105AD00010F43B1801C0312C34FF12C0B70180E331
