:100000000C945C090C9484090C9484090C94840964
:100010000C9484090C9484090C9484090C9484092C
:100020000C9484090C9484090C94972D0C94292C1D
:100030000C9484090C9484090C9484090C9484090C
:100040000C9484090C9484090C9484090C948409FC
:100050000C9484090C9484090C9484090C94002554
:100060000C9484090C9484090C9484090C948409DC
:100070000C9484090C9484090C9484090C948409CC
:100080000C9484090C9484090C9484090C948409BC
:100090000C9484090C9484090C9484090C948409AC
:1000A0000C9484090C9484090C9484092126242638
:1000B000132617261D2645264526452628262C26A6
:1000C000302636263A2645264026596573004E6F5F
:1000D000000A3E003A20000A526563000A3F2C4D98
:1000E0006F76653A552C752C442C642C5365744DF1
:1000F00061696E506173733A572C41646452656351
:100100003A412C44656C5265633A452C5365742022
:10011000436D6E743A432C4E616D653A4E2C5061BE
:1001200073733A502C56616C3A312D3900312E34AC
:100130000053746F7000527074004E657700434C2A
:1001400052210050617373005454590055534200BA
:1001500044656C657465207265636F72643F00531B
:10016000617665206368616E6765733F0044454C46
:10017000210050617373004E616D650053686F77A5
:1001800000436C65617220616C6C3F00312E34005D
:1001900050617373776F72643F00FFE0FFD1AFFF70
:1001A00032FFD0FFFEFFE0FFD1AEFFD0FFFEFFE049
:1001B000FFD11000FFFEFFD0FFE0FFC1FFD1AED5A1
:1001C00080A81FD300408D142002A1C8DA0281CF7D
:1001D000D9F1DB402EA4A6AFFFD0FFFE01060C0034
:1001E000FE070135026B207FFE0AFE08FE0C006050
:1001F00022176780808080800080173363A0A0A0D2
:1002000002566650F85050F8500159692070A8A065
:100210007028A87020025767C8C81020409898021C
:10022000576740A0A040A890682713638080801182
:1002300039692040408080804040201139698040E9
:100240004020202040408002576720A8702070A8DE
:10025000200355652020F820200133636060C0052D
:100260005161F8122262C0C0025767081010204086
:10027000408012476760909090909060123767407E
:10028000C040404040E0025767708808102040F8A6
:10029000025767F80810300888700257671030500E
:1002A00090F81010025767F880F00808887002571D
:1002B00067304080F0888870025767F80810102077
:1002C000202002576770888870888870025767708E
:1002D000888878081060122565C0C000C0C001364B
:1002E000666060006060C013356520408040200477
:1002F0005363F800F813356580402040800257674B
:10030000708810202000200257677088B8A8B88035
:1003100070025767708888F8888888025767F048A5
:1003200048704848F0025767708880808088700263
:100330005767F04848484848F0025767F88080F00F
:100340008080F8025767F88080F0808080025767CD
:1003500070888080988870025767888888F88888B5
:1003600088123767E04040404040E002576738104D
:1003700010101090600257678890A0C0A09088026B
:100380005767808080808080F802576788D8A88867
:100390008888880257678888C8A89888880257671D
:1003A00070888888888870025767F08888F0808015
:1003B0008002576770888888A89068025767F0881D
:1003C00088F0A09088025767708880700888700253
:1003D0005767F820202020202002576788888888C7
:1003E000888870025767888888885050200257672D
:1003F00088888888A8A85002576788885020508825
:100400008802576788885020202020025767F80804
:1004100010204080F8113969E080808080808080E1
:10042000E002576780404020101008113969E02031
:10043000202020202020E0075363205088005161B5
:10044000F817336380402002556570087888780279
:1004500057678080F0888888F002556570888088AA
:100460007002576708087888888878025565708810
:10047000F08070025767304840E0404040005767C6
:10048000708888887808700257678080F08888882C
:10049000881237674000C0404040E01049691000B2
:1004A0003010101010906002576780808890E090A4
:1004B00088123767C04040404040E0025565D0A8F0
:1004C000A8A8A8025565B0C88888880255657088B4
:1004D000888870005767F0888888F08080005767A8
:1004E00078888888780808025565B0C880808002BE
:1004F000556578807008F00257672020F82020208A
:1005000018025565888888986802556588888850DB
:10051000200255658888A8A850025565885020504B
:100520008800576788888850204080025565F810F9
:100530002040F8113969204040408040404020214F
:100540001969808080808080808080113969804036
:100550004040204040408004536348A890FF000979
:100560001200FC0A01F203E120FFFD0EFD0BFD006D
:1005700000000908FD020B0B090300C0C0C0C0C089
:10058000C0C00000C0C0050404090207D8D8D8D8EC
:10059000070A0A0901006C6C6CFE6C6CFE6C6C6CDA
:1005A000080B0B0900FF187EDBD8783C1E1BDB7E96
:1005B00018080A0A09000073DEDE6C1818367B7B07
:1005C000CE080A0A09000070D8D8D87073DECCDED5
:1005D00073020404090307C0C0C0C0040C0C090264
:1005E000FF306060C0C0C0C0C0C0606030040C0C90
:1005F0000902FFC060603030303030306060C008C9
:10060000070709000118DB7E3C7EDB180807070995
:100610000001181818FF1818180304040903FEE055
:10062000E060C0060101090104FC030202090300A5
:10063000E0E0080A0A0900000306060C18183060FA
:1006400060C0070A0A090100386CC6C6C6C6C6C61D
:100650006C38080A0A090000183878D818181818D1
:1006600018FF070A0A090100386CC606060C183084
:1006700060FE070A0A090100FE060C18380C06067F
:10068000CC78070A0A0901000C1C3C6CCCCCFE0C8F
:100690000C0C070A0A090100FEC0C0C0F80C0606CF
:1006A000CC78070A0A0901003C60C0C0F8CCC6C675
:1006B0006C38070A0A090100FE060C0C18183030C5
:1006C0003030070A0A090100386CC66C386CC6C69F
:1006D0006C38070A0A090100386CC6C66E3E060669
:1006E0000C78030707090300E0E0000000E0E003E6
:1006F00009090903FEE0E0000000E0E060C006092F
:10070000090901000C183060C06030180C0704049F
:10071000090102FE0000FE060909090100C060305F
:10072000180C183060C0070A0A090100386CC606A8
:100730000C1830300030090A140900003E00630034
:10074000CD80D580D580D580D580CF0060003E009B
:10075000070A0A090100103838386C7C6CC6C6C616
:10076000070A0A090100FCC6C6C6FCC6C6C6C6FC06
:10077000070A0A0901003C66C0C0C0C0C0C0663C90
:10078000070A0A090100F8CCC6C6C6C6C6C6CCF818
:10079000070A0A090100FEC0C0C0F8C0C0C0C0FE00
:1007A000070A0A090100FEC0C0C0F8C0C0C0C0C02E
:1007B000070A0A090100386CC6C0C0CEC6C66C382C
:1007C000070A0A090100C6C6C6C6FEC6C6C6C6C610
:1007D000060A0A090100FC3030303030303030FC7D
:1007E000070A0A0901001E0C0C0C0C0C0CCCCC786E
:1007F000070A0A090100C6CCD8F0E0F0D8CCC6C67A
:10080000070A0A090100C0C0C0C0C0C0C0C0C0FE05
:10081000070A0A090100C6EEFED6C6C6C6C6C6C687
:10082000070A0A090100C6C6E6F6DECEC6C6C6C677
:10083000070A0A0901007CC6C6C6C6C6C6C6C67C6B
:10084000070A0A090100F8CCC6C6CCF8C0C0C0C06F
:10085000080B0B0901FF386CC6C6C6C6C6DE6C3E67
:1008600003070A0A090100FCC6C6C6C6FCD8CCC6E6
:10087000C6070A0A0901007CC6C0C07C060606C677
:100880007C060A0A090100FC30303030303030304C
:1008900030070A0A090100C6C6C6C6C6C6C6C66C67
:1008A00038070A0A090100C6C6C66C6C6C383838AD
:1008B00010070A0A090100C6C6C6C6D6D6D6FEEE7D
:1008C00044070A0A090100C6C66C381010386CC605
:1008D000C6080A0A090000C3C3663C18181818188D
:1008E00018070A0A090100FE06060C183060C0C08D
:1008F000FE050C0C0902FFF8C0C0C0C0C0C0C0C0DB
:10090000C0C0F8080A0A090000C060603018180C5E
:10091000060603040C0C0902FFF030303030303092
:1009200030303030F0080404090006183C66C30873
:1009300001010900FFFF04030309020AC060300738
:1009400007070901007C06067EC6C67E070A0A095B
:100950000100C0C0C0FCC6C6C6C6C6FC0707070962
:1009600001007CC6C0C0C0C67C070A0A0901000697
:1009700006067EC6C6C6C6C67E0707070901007CF6
:10098000C6C6FEC0C67C060A0A090100386C6C6047
:1009900060F060606060070A0A0901FD7ECCCCCC83
:1009A00078C07CC6C67C070A0A090100C0C0C0FC2A
:1009B000C6C6C6C6C6C6060A0A090100303000F01F
:1009C0003030303030FC050D0D0902FD18180038AC
:1009D000181818181818D8D870070A0A090100C082
:1009E000C0C0CCD8F0F0D8CCC6060A0A090100F085
:1009F0003030303030303030FC080707090000FE5E
:100A0000DBDBDBDBDBC3070707090100DCE6C6C66F
:100A1000C6C6C6070707090100386CC6C6C66C38CB
:100A2000070A0A0901FDF8CCC6C6C6CCF8C0C0C08A
:100A3000070A0A0901FD3E66C6C6C6663E060606E8
:100A4000070707090100DC76606060606007070740
:100A50000901007CC6C07C06C67C070909090100A3
:100A60003030FC30303030361C070707090100C633
:100A7000C6C6C6C6C67E070707090100C6C66C6C97
:100A8000383810080707090000C3C3DBDBDBFF664B
:100A9000070707090100C66C3810386CC6070A0A38
:100AA0000901FDC6C66C6C6C383830B060060707AB
:100AB000090100FC0C183060C0FC060B0B0901009A
:100AC0003C60606060C0606060603C020C0C0903C8
:100AD000FFC0C0C0C0C0C0C0C0C0C0C0C0060B0BFB
:100AE000090100E0303030301C30303030E0080395
:100AF0000309000773DBCEFFFFFFFFFFFFFFFFFFD0
:100B0000FFFFFFFFFFFFFFFFFFFFFFFFFFFFFFFFF5
:100B1000FFFFFFFFFFFFFFFFFF070D0D0901006C47
:100B20006C00FEC0C0C0F8C0C0C0C0FE080C0C09FC
:100B300000FEFE3030303E33333333330306070ECE
:100B40000E0901000C183000FEC0C0C0C0C0C0C0FB
:100B5000C0C0070A0A0901003C66C0C0F0C0C0C09E
:100B6000663C070A0A0901007CC6C0C07C0606066E
:100B7000C67C060A0A090100FC30303030303030C3
:100B800030FC060D0D0901006C6C00FC303030307B
:100B900030303030FC070A0A0901001E0C0C0C0C26
:100BA0000C0CCCCC78090A140900007C006C006C99
:100BB000006C006F006D806D806D806D80EF0008AF
:100BC0000A0A090000D8D8D8D8FEDBDBDBDBDE0858
:100BD0000A0A090000FE3030303E33333333330726
:100BE0000E0E0901000C183000C6CCD8F0E0F0D889
:100BF000CCC6C6FF080D0D090000361C0063633625
:100C000036361C1C18D870080C0C0900FEC3C3C370
:100C1000C3C3C3C3C3C3FF1818070A0A09010010DE
:100C20003838386C7C6CC6C6C6070A0A090100FC55
:100C3000C0C0C0FCC6C6C6C6FC070A0A090100FC43
:100C4000C6C6C6FCC6C6C6C6FC070A0A090100FE1F
:100C5000C0C0C0C0C0C0C0C0C0080C0C0900FE3E6F
:100C60003636363666666666FFC3C3070A0A09016A
:100C700000FEC0C0C0F8C0C0C0C0FE080A0A09001B
:100C800000DBDB7E7E3C7E7EDBDBDB070A0A0901C4
:100C9000007CC6060C180C0606C67C070A0A090169
:100CA00000C6C6C6CEDEF6E6C6C6C6070D0D0901ED
:100CB000006C3800C6C6C6CEDEF6E6C6C6C6070A53
:100CC0000A090100C6CCD8F0E0F0D8CCC6C6070AA5
:100CD0000A0901001E3636363666666666C6070A9B
:100CE0000A090100C6EEFED6C6C6C6C6C6C6070AB3
:100CF0000A090100C6C6C6C6FEC6C6C6C6C6070ADB
:100D00000A0901007CC6C6C6C6C6C6C6C67C070A96
:100D10000A090100FEC6C6C6C6C6C6C6C6C6070ABA
:100D20000A090100F8CCC6C6CCF8C0C0C0C0070A8A
:100D30000A0901003C66C0C0C0C0C0C0663C060ACB
:100D40000A090100FC303030303030303030080AD1
:100D50000A09000063633636361C1C18D870080A6E
:100D60000A090000187EDBDBDBDBDBDB7E18080A10
:100D70000A090000C3C3663C18183C66C3C3070CCD
:100D80000C0901FECCCCCCCCCCCCCCCCCCFE060619
:100D9000070A0A090100C6C6C6C67E06060606067A
:100DA000080A0A090000DBDBDBDBDBDBDBDBDBFF6C
:100DB000090C180900FEDB00DB00DB00DB00DB00B8
:100DC000DB00DB00DB00DB00FF8001800180080A24
:100DD0000A090000F03030303C363333363C080A24
:100DE0000A090000C3C3C3C3F3DBDBDBDBF3080A80
:100DF0000A090000C0C0C0C0FCC6C3C3C6FC070AC5
:100E00000A09010078CC06061E060606CC78080AF8
:100E10000A090000CEDBDBDBFBDBDBDBDBCE070A1A
:100E20000A0901007EC6C6C6C67E3666C6C6070764
:100E3000070901007C06067EC6C67E070A0A09016C
:100E4000000C78C0FCC6C6C6C6C67C0707070901E9
:100E500000FCC6C6FCC6C6FC070707090100FEC0A9
:100E6000C0C0C0C0C00708080901FF3C2C6C6CCC96
:100E7000CCFE820807070900003C66C3FFC0633E42
:100E8000080707090000DBDB7E3C7EDBDB0707078A
:100E90000901007CC6061C06C67C0707070901007D
:100EA000C6C6CED6E6C6C6070A0A0901006C3800D7
:100EB000C6C6CED6E6C6C6070707090100C6CCD807
:100EC000F0D8CCC60707070901001E3636666666ED
:100ED000C6070707090100C6EEFED6C6C6C6070745
:100EE00007090100C6C6C6FEC6C6C6070707090130
:100EF000007CC6C6C6C6C67C070707090100FEC639
:100F0000C6C6C6C6C6070A0A0901FDFCC6C6C6C6CD
:100F1000C6FCC0C0C00707070901007CC6C0C0C02E
:100F2000C67C080707090000FF18181818181807CA
:100F30000A0A0901FDC6C6C6C6C6C67E06867C0864
:100F40000D0D0900FD1818187EDBDBDBDBDB7E18DE
:100F50001818080707090000C3663C183C66C30759
:100F600009090901FEC6C6C6C6C6C6FE06060707AB
:100F700007090100C6C6C67E06060608070709005F
:100F800000DBDBDBDBDBDBFF0809090900FEDBDB69
:100F9000DBDBDBDBFF0303080707090000F0303071
:100FA0003E33333E080707090000C3C3C3F3DBDB4E
:100FB000F3070707090100C0C0C0FCC6C6FC07074D
:100FC000070901007CC6061E06C67C080707090043
:100FD00000CEDBDBFBDBDBCE0707070901007EC6AB
:100FE000C67E3666C6090A14090000F000F000D873
:100FF00000D800DB00DF80DF80DB00D800DF800767
:101000000A0A0901006666007CC6C6FEC0C67C07E7
:101010000C0C0901FE60F8607C6666666666660612
:101020001C070B0B0901000C183000FEC0C0C0C02B
:10103000C0C00707070901007CC2C0F0C0C27C071E
:1010400007070901007CC2C07C06867C060A0A09E3
:101050000100303000703030303030FC060A0A09B0
:101060000100CCCC00703030303030FC060D0D0962
:1010700001FD0C0C001C0C0C0C0C0CCCCCCC78091D
:10108000070E0900003C006C006C006F006D80EDE5
:1010900080CF00080707090000D8D8D8FEDBDBDEC8
:1010A000070A0A09010060F8607C66666666666683
:1010B000070B0B0901000C183000C6CCD8F0D8CCB7
:1010C000C6060B0B0901FF78CCC078CCCCCC780CD1
:1010D000CC78070D0D0901FD6C3800C6C6C6C6C622
:1010E000C67E06C67C0609090901FECCCCCCCCCC58
:1010F000CCFC303005010906A1018502050719E085
:1011000029E71500250175019508810295017508EB
:1011100081039506750815002565050719002965E1
:101120008100C000000000000000002A2B28000001
:1011300000000000000000000000000000000000AF
:101140000000002C9EB4A0A1A2A434A6A7A5AE3690
:101150002D3738271E1F20212223242526B333B6FE
:101160002EB7B89F8485868788898A8B8C8D8E8FD1
:10117000909192939495969798999A9B9C9D2F31D4
:1011800030A3AD350405060708090A0B0C0D0E0F38
:10119000101112131415161718191A1B1C1DAFB1B4
:1011A000B0B5000000000200090F000003040100B8
:1011B0000C00000000000000000000000000000023
:1011C0000000040802011040804010204080408050
:1011D00008020401804020100201108010204040CD
:1011E00020040404040403040502020202040302AE
:1011F00002020206060606060604040202020404AF
:10120000000000002300260029002C002F00000011
:101210000000250028002B002E00310000000000F7
:10122000240027002A002D003000080B00020202D3
:101230000100090400000102020000052400100161
:101240000524010101042402060524060001070506
:10125000810310004009040100020A000000070594
:101260000202400000070583024000001201000254
:10127000EF02014041233680000101020301120107
:1012800000020000004041233680000101020301FA
:1012900041726475696E6F204C4C430041726475F5
:1012A000696E6F204C656F6E6172646F0004030994
:1012B0000400BD138222DE2711241FBECFEFDAE027
:1012C000DEBFCDBF11E0A0E0B1E0E6E2F3E602C090
:1012D00005900D92A63CB107D9F728E0A6ECB1E045
:1012E00001C01D92A530B207E1F712E1C8EBD2E1CF
:1012F00004C02297FE010E94702EC23BD107C9F79D
:101300000E94382E0C9491310C94000080E280935E
:101310000606089582E280930606089581E0809390
:10132000070684E280930606089510920706089542
:1013300081E280930606089583E28093060608956D
:1013400081E08093080685E2809306060895109256
:1013500008060895CF93DF93EC01262F4CAD6BADBB
:1013600004960E94BC1C2BAD992787FD9095820F97
:10137000911D8BAF81E090E0DF91CF9108950F93A5
:101380001F93CF93DF93CDB7DEB760970FB6F89476
:10139000DEBF0FBECDBF409104065091050680E828
:1013A000E7E1F6E0DF011D928A95E9F7FA01EC5FCB
:1013B000FD4F8589882359F14F5F5F4F80E090E0B2
:1013C000483EB3E05B07D8F4FA01EC5FFD4F258996
:1013D00030E0223031058CF02A3031054CF0803479
:1013E000910544F4FC01E95EF94F2083019602C0A7
:1013F00081E490E04F5F5F4FE3CF232B41F002E0A9
:1014000024E04EE169E78AEC91E00E9458211092B5
:10141000370627E136E043E160E08AEC91E00E9484
:10142000DC1C8091040690910506892B41F002E0B6
:1014300024E040E069E78AEC91E00E9458216CEDDD
:1014400071E08AEC91E00E94881D80910E061F9247
:101450008F9380910D061F928F9385E391E09F9368
:101460008F938E010F5F1F4F1F930F930E94AA2E21
:1014700098014EE160E08AEC91E00E94DC1C0FB61E
:10148000F894DEBF0FBECDBF60960FB6F894DEBFF6
:101490000FBECDBFDF91CF911F910F910895DC0159
:1014A000ED91FC910280F381E02D099404960C9457
:1014B000131DAF92BF92CF92DF92EF92FF920F93E4
:1014C0001F93CF93DF93CDB7DEB766970FB6F8942F
:1014D000DEBF0FBECDBF20E931E04DE064E186EC18
:1014E00091E00E94560A6CED71E08AEC91E00E9456
:1014F000881D2CE831E047E06EE686EC91E00E9422
:10150000560A87E1C82E86E0D82ECE0101967C01CE
:1015100011E0B82EAF2CF60181916F01982F9F70CA
:101520009063F70191937F018823C1F085FF02C08A
:1015300043E101C04DE184FF09C04F5F02E023E0B9
:10154000612F8AEC91E00E94582108C0042F23E00B
:10155000210F612F8AEC91E00E949C1D1A5F1937C0
:10156000D1F61D8A2B2D3A2D4CE160E08AEC91E0FA
:101570000E94DC1C66960FB6F894DEBF0FBECDBF8E
:10158000DF91CF911F910F91FF90EF90DF90CF905F
:10159000BF90AF9008950E94590A6CED71E08AECFB
:1015A00091E00E94881D2AE331E047E060E086EC8C
:1015B00091E00C94560A0E94590A6CED71E08AEC95
:1015C00091E00E94881D26E331E047E060E086EC70
:1015D00091E00C94560AFC01EE52FB4FDC01AC5238
:1015E000BB4F6115710529F42D913C913183208306
:1015F00006C0208131812D933C9371836083FC016F
:10160000EA52FB4FDC01A852BB4F4115510529F4AA
:101610008D919C91918380830895808191818D9398
:101620009C935183408308955D9A61E081E10E941B
:101630007F2610920A060E944A2560931306709333
:101640001406809315069093160680E8E7E1F6E00D
:10165000DF011D928A95E9F7E5E0F2E081918823A8
:1016600029F049E55AE063E570E108C0B2E0E931EC
:10167000FB07A1F74FEB59E06AE778E184E092E0DD
:101680000C94EB0AEF92FF920F931F93CF93DF938B
:1016900080910606823209F44BC028F48032F1F0C2
:1016A0008132A1F1CCC0843209F442C008F44EC0AA
:1016B000853209F0C4C010920A068091D806909134
:1016C000D9069093D7068093D6068091DC06909138
:1016D000DD069093DB068093DA06B1C020910A06FE
:1016E0002F3308F0ACC0822F90E08C5F9D4FFC013F
:1016F000ED5EFB4F3081332321F02F5F20930A06EC
:101700009EC0FC01EC5EFB4F108299C080910A06DE
:10171000815080930A06813408F491C0E7E1F6E035
:1017200001900020E9F7E851F640E0930A0687C0EF
:1017300047EC5FE066E27CE084E092E0DF91CF91ED
:101740001F910F91FF90EF900C94EB0A10920A06F4
:1017500042E75FE063E471E184E092E00E94EB0A1B
:10176000C0910406D09105068091090690E001968B
:10177000FE01EC5FFD4F7F01C83EF3E0DF0730F56F
:10178000D70155964C91442309F1242F30E02817B6
:10179000390721F04130D1F02196EACFBE016F5FC9
:1017A0007F4F683EB3E07B0788F4FB01EC5FFD4FA1
:1017B00085898230A0F748EE53E0461B570B675EE1
:1017C0007D4FCE01875E9D4F0E94812EE7E1F6E0BE
:1017D000DF010D900020E9F78D0107511640CE0181
:1017E000800F911F893E934020F008EE13E00C1B00
:1017F0001D0B1016110674F4CE01800F911F48EED8
:1018000053E0481B590BBE01675E7D4F875E9D4FBD
:101810000E948A2E809109068F5FF701858BA801AF
:101820004150510967E176E0CE01865E9D4FDF9120
:10183000CF911F910F91FF90EF900C94812EDF912B
:10184000CF911F910F91FF90EF9008958091060620
:10185000843240F4823208F067C0803249F081322D
:10186000C9F00895843261F1853209F44FC00895BA
:1018700080910A0690E08C5F9D4FFC01ED5EFB4F6E
:1018800020812F5F203220F02F37A9F420EC13C0E5
:1018900020E211C080910A0690E08C5F9D4FFC0110
:1018A000ED5EFB4F20812150203220F02F3B19F4B8
:1018B0002EE701C02FEFFC01ED5EFB4F208330C00F
:1018C00080910A068F33C0F5E7E1F6E00190002031
:1018D000E9F7E851F640EF33F10514F0EFE3F0E0FB
:1018E00090E0AF01481B590B141615063CF4BC01DF
:1018F000695E794F885E994F0E948A2EE0910A06B0
:10190000F0E0E95EF94F81E480830AC080910A0625
:1019100090E0BC01685E794F895E994F0E94A32ECA
:1019200081E080930206089542EB5FE062E47BE091
:1019300084E092E00C94EB0A0895809106068232CE
:1019400029F128F4803259F08132A1F008958432CF
:10195000E9F008F458C0853209F455C00895809123
:1019600009068F5F80930906843008F45DC01092E9
:1019700009060895809109068150809309068430F4
:1019800008F452C083E080930906089510920A0675
:10199000809109068130B9F028F0823019F1833046
:1019A00069F108951092030610920C061092120627
:1019B000109211061092100610920F0645E15FE09A
:1019C0006FE674E12DC010920C0610921206109270
:1019D00011061092100610920F064BE15FE064E5CD
:1019E00075E11EC080E8E7E1F6E0DF011D928A950F
:1019F000E9F74BEC5AE06CE870E112C044E35FE0B9
:101A00006AEA72E10DC080910206811105C04FEBB8
:101A100059E06AE778E104C04AE35FE065E973E111
:101A200084E092E00C94EB0A0895FF920F931F93C9
:101A3000CF93DF93C5E8D1E08E0105581140F990AE
:101A4000FF20D1F08F2D0E94B526892BA9F7C0E089
:101A5000D0E004C02196CA30D105B1F062E370E055
:101A600080E090E00E9479258F2D0E94B526892B79
:101A700089F3C430D1051CF480E090E008C02897B9
:101A80001CF4C801019603C0C80101968061DF9172
:101A9000CF911F910F91FF9008958F929F92AF92D7
:101AA000BF92CF92DF92EF92FF920F931F93CF934B
:101AB000DF93EC016C0129EFC21A2BEFD20AD60199
:101AC0008C918F5F8C938E010E5F1B4FF8011082FB
:101AD000CE018C569B4F0E943224CE018D549B4FD9
:101AE0000E943224D8018C91FE01E15FFB4F7F01FF
:101AF000882341F00E944A25D7016D937D938D93F1
:101B00009C9313970E944A25F70180809180A280C0
:101B1000B380681979098A099B099E012E523B4FAF
:101B20007901DE01AA52BB4F5D01613C77428940D9
:101B30009105A8F0FE01E85FFB4F1082F90180815A
:101B4000918132969183808384E19BE0D9018D93CA
:101B50009C93349680819181F50191838083F70174
:101B6000808191810097F9F04E01F8EF8F1AFBEF19
:101B70009F0AD4012C91211108C081E0F4018083D7
:101B8000D701ED91FC9109950EC0F801208121113A
:101B9000F4CF8A57984139F4CE010E94150DD8012F
:101BA0008C938111EACF80910302811107C081E0FB
:101BB000809303028AEC91E00E94001F8AEC91E07E
:101BC0000E942F1F6EE575E08AEC91E00E94881D4F
:101BD000D6018C9184FF08C002E022E04EE16EE75E
:101BE0008AEC91E00E945821D501ED91FC9130974B
:101BF00009F009958AEC91E00E94341F8111E2CF2F
:101C0000DF91CF911F910F91FF90EF90DF90CF90D8
:101C1000BF90AF909F908F90089584E092E00C94D5
:101C20004D0D0F931F93CF93DF93809104069091F6
:101C30000506FC01EC5FFD4F2589222391F1BC01D3
:101C40006F5F7F4FFB01EC5FFD4F2589223024F54C
:101C500008EE13E0E801C61BD70B1C161D060CF599
:101C6000675E7D4FAE01875E9D4F0E94812E809101
:101C70000406909105068C0F9D1FA801481B590B67
:101C800060E070E0875E9D4F0E949C2E81E0809313
:101C9000020681E090E007C0683E23E0720780F210
:101CA000D7CF80E090E0DF91CF911F910F91089501
:101CB00080910606833289F028F4813271F08232F5
:101CC00031F00895843219F0853279F406C084E049
:101CD00092E00E94110E892B41F042E75FE063E43D
:101CE00071E184E092E00C94EB0A08950F931F9346
:101CF000CF93DF938B01EA016CED71E08AEC91E008
:101D00000E94881D80E090E0F801E80FF91FE4913F
:101D1000EE2311F00196F8CF6AEF869F602D112413
:101D20006058980147E086EC91E00E94560A80E0F6
:101D300090E0FE01E80FF91FE491EE2311F0019607
:101D4000F8CF6AEF869F602D112460589E014EE106
:101D500086EC91E0DF91CF911F910F910C94560A80
:101D6000EF92FF920F931F93CF93DF93CDB7DEB720
:101D7000A0970FB6F894DEBF0FBECDBF7C01809157
:101D80000F06909110068E010F5F1F4F97FF11C035
:101D90007F936F9385E291E09F938F931F930F93AF
:101DA0000E94AA2E0F900F900F900F900F900F90FF
:101DB0001BC0F701E35FFB4F81818F9380818F937D
:101DC000329781818F9380818F937F936F9381E38B
:101DD00091E09F938F931F930F930E94AA2E0FB6AB
:101DE000F894DEBF0FBECDBF980143E161E08AECFD
:101DF00091E00E94DC1C6CED71E08AEC91E00E94A5
:101E0000881D41E351E06DE271E0C7010E94760E4A
:101E1000A0960FB6F894DEBF0FBECDBFDF91CF9175
:101E20001F910F91FF90EF9008956BE371E084E0B4
:101E300092E00C94B00E6FE371E084E092E00C94B9
:101E4000B00E9B0180910B0684FF06C045E161E066
:101E500086EC91E00E94560A4EEC50E06AEC70E08D
:101E600084E092E00C94760E61E871E084E092E008
:101E70000C94210F6FE571E084E092E00C94210F47
:101E800027E136E044E160E08AEC91E00E94DC1C4E
:101E900060E571E084E092E00C94210FFF920F93D3
:101EA0001F93CF93DF93EC018B01F42E62E0640F5C
:101EB0004EE186EC91E00E94560ACB5FDB4F8881B1
:101EC00090E08017910741F40CE02CE144E16F2D84
:101ED0008AEC91E00E940221DF91CF911F910F9136
:101EE000FF90089520910A062E3020F030E02D500A
:101EF000310902C020E030E0295E394F4DE061E059
:101F00008AEC91E00E94DC1C6CED71E08AEC91E0BF
:101F10000E94881D2CE731E040E050E060E070E076
:101F200084E092E00E944E0F27E731E040E250E06B
:101F300061E070E084E092E00E944E0F22E731E021
:101F400040E450E062E070E084E092E00E944E0FD6
:101F50002DE631E040E650E063E070E084E092E09E
:101F60000C944E0F0F9380910A068E3010F08DE086
:101F700090E069E0869F602D112400E12BE040E0B5
:101F80008AEC91E00E9402210F910C94720F0F9342
:101F900080910B0684FF11C080910A068E3010F0EC
:101FA0008DE090E069E0869F602D112400E12BE038
:101FB00040E08AEC91E00E9402210F910C94720F94
:101FC00027E136E04EE061E08AEC91E00E94DC1C03
:101FD0006CED71E08AEC91E00E94881D2CE431E008
:101FE00040E050E060E070E084E092E00E944E0F3C
:101FF00028E431E040E250E061E070E084E092E00B
:102000000E944E0F23E431E040E450E062E070E0D3
:1020100084E092E00E944E0F2EE331E040E650E073
:1020200063E070E084E092E00C944E0FFC01EA5F04
:10203000FB4F40814431A0F5DC01AE5FBB4F2C91DA
:10204000223279F030F4203281F0213279F430E01C
:102050000DC0243229F138F0253241F48FEF9FEF83
:10206000089530E303C030E101C030E2DC01A40F89
:10207000B11DAD5EBB4F2C91222329F02073231795
:1020800011F04F5F40832081820F911DFC01ED5EB6
:10209000FB4F80818F5F832B808380E090E00895E9
:1020A00081E090E0089584E092E00E94161000978D
:1020B00091F197FF05C044E35FE06AEA72E127C04F
:1020C00044E150E067E176E085E092E00E94742E02
:1020D000892BC9F010920C068091D6069091D706F4
:1020E0009093D9068093D80684E19BE09093D7061D
:1020F0008093D6068091DC069091DD069093DB06F6
:102100008093DA0608954FEB59E06AE778E184E0BE
:1021100092E00C94EB0A089584E092E00E9416107D
:1021200097FF05C040EE5FE06DE97CE018C0892BA9
:10213000D1F010920A0684E1E7E1F6E0A7E3B6E009
:1021400001900D928A95E1F784E1E7E1F6E0DF0185
:102150001D928A95E9F74BED5AE064EB70E184E05B
:1021600092E00C94EB0A089584E092E00E9416102D
:1021700097FF05C040EE5FE06DE97CE01CC0892B55
:10218000F1F044E150E067E176E087E396E00E94F9
:10219000742E892B79F781E08093020684E1E7E1D0
:1021A000F6E0A5E0B2E001900D928A95E1F74AE3EE
:1021B0005FE065E973E184E092E00C94EB0A089536
:1021C000CF93DF93FC01FC5F20813181DC01AB5FA9
:1021D000BB4F4C917396413068F0433048F0433028
:1021E00049F463E471E0CF01DF91CF910C94A32E09
:1021F0002F5F3F4F40E4EF0119924A95E9F7283EDF
:10220000D3E03D0788F4FC01E20FF31FE589EE23DC
:10221000B9F16E2F772767FD70954C9150E04F5FB5
:102220005F4F6417750751F4A9014F5F5F4FB90104
:10223000605C7F4FDC01A21BB30B1EC0E13001F1DB
:10224000EA301CF446175707DCF02F5F3F4FD7CF1B
:1022500046175707A9F0FC01E40FF51FC5892C2F7D
:1022600030E02032310564F0FD01E40FF51FEE5E31
:10227000FB4FC0834F5F5F4F483E23E0520740F360
:10228000DF91CF91089580910606823221F128F4E2
:10229000803249F08132A1F008958432E1F058F1A2
:1022A000853249F10895809109068F5F8093090670
:1022B000843010F01092090684E092E00C94E01053
:1022C000809109068150809309068430A8F383E049
:1022D00080930906F1CF80910906833029F440E408
:1022E0005FE068E57EE014C010920A0642EB5FE012
:1022F00062E47BE00DC080910206811105C04FEBC6
:1023000059E06AE778E104C04AE35FE065E973E118
:1023100084E092E00C94EB0ACF93DF93FC01E65F3C
:10232000FB4F1082DC01A75FBB4F1C9220E030E026
:10233000AC015C5FEC01C20FD31F6D896623A1F075
:10234000613061F460816F5F6083EA016881798147
:10235000621773071CF06C916F5F6C932F5F3F4F98
:10236000283ED3E03D0731F7DF91CF91089598E003
:102370004CE8562F5827282F30E035952795822F87
:1023800050FF02C0842F82276695915091F70895DF
:102390004F925F926F927F928F929F92AF92BF9275
:1023A000CF92DF92EF92FF920F931F93CF93DF9321
:1023B000CDB7DEB728970FB6F894DEBF0FBECDBFFE
:1023C0005C018B016A01FC01EA5FFB4F1082411541
:1023D000510529F46C018DEEC81A8BEFD80A17FF4E
:1023E00009C0F60101900020E9F78F0101501109A1
:1023F0000C191D097901612C712C2501F3EF4F1A7D
:10240000FBEF5F0A4701E114F10411F476011CC0EF
:10241000F70180818823D1F341E050E0B7018DE9D5
:1024200097E00E944F0A8FEFE81AF80AF4016081E2
:10243000862D0E94B711682E712CF2018081918146
:10244000019691838083DECFC7018C199D09801787
:1024500091074CF4F70161917F01862D0E94B7111D
:10246000682E712CF1CF17FF02C000E010E0C3010D
:102470008F739927806489838AE08A83A801B601D3
:102480008DE997E00E944F0A42E050E0BE016F5F85
:102490007F4F8DE997E00E944F0AF501E35FFB4F04
:1024A0000E5F1F4F80819181800F911F91838083E8
:1024B00028960FB6F894DEBF0FBECDBFDF91CF9147
:1024C0001F910F91FF90EF90DF90CF90BF90AF9052
:1024D0009F908F907F906F905F904F900895CF92D4
:1024E000DF92EF92FF920F931F93CF93DF93EC0154
:1024F000C350DC4F18827C0100E010E06701F70157
:1025000061917F01C8010E94A630F6016081888137
:102510000E94B71188830F5F1F4F0D3FF3E01F0725
:1025200069F7682F8DEF93E00E94A6301882DF9143
:10253000CF911F910F91FF90EF90DF90CF90089572
:1025400023E934E0FC01A901119241505040E1F728
:102550000C946F12809106068332D1F028F48132F8
:10256000B9F0823231F00895843219F0853201F5E4
:102570000FC084E092E00E94A0128091D606909154
:10258000D7069093D9068093D80684E19BE004C0D7
:102590008091D8069091D9069093D7068093D6065D
:1025A0008091DC069091DD069093DB068093DA063D
:1025B0000895BF92CF92DF92EF92FF920F931F93F5
:1025C000CF93DF937C01EC01C350DC4F18826C0188
:1025D00000E010E0C8010E949E30F60181936F0177
:1025E000682F88810E94B711B82E88830F5F1F4F14
:1025F0000D3FF3E01F0771F78DEF93E00E949E30CF
:10260000B81619F0C7010E94A0121882DF91CF916D
:102610001F910F91FF90EF90DF90CF90BF900895A2
:10262000EF92FF920F931F93CF93DF93EC010E94E1
:10263000D9120E944A25FE01E15FFB4F608371833E
:102640008283938305E811E0F80181918F0188234B
:1026500021F062E00E944626F7CF61E081E10E940E
:10266000462661E08AEC91E00E945C1F7E01FCE658
:10267000EF1AFBEFFF0A6CE271E0C7010E941E2413
:102680008E010D541B4F6CE271E0C8010E941E24A4
:1026900066E879E0C7010E9422246AE879E0C70170
:1026A0000E9426246EE879E0C7010E942A2465E989
:1026B00079E0C7010E942E2468E979E0C8010E94F0
:1026C00022246CE979E0C8010E94262460EA79E0BE
:1026D000C8010E942A2467EA79E0C8010E942E24DA
:1026E000FE01E85FFB4F1082DE01AC52BB4FE653A8
:1026F000FF4F8081918111969C938E9384E19BE0A2
:1027000091838083349614968D919C9191838083DC
:10271000CE01DF91CF911F910F91FF90EF900C941C
:102720008C1184E092E00C941013809106068232A2
:1027300061F028F4803201F1813291F40BC08432CF
:1027400021F040F0853261F405C084E092E00E94FF
:102750006F1206C01092020684E092E00E94D91225
:1027600084E092E00E948C114FEB59E06AE778E137
:1027700084E092E00C94EB0A0895CF93DF9341E05C
:1027800050E06BE170E088E996E00E94D02341E0E0
:1027900050E06CE170E087EB96E00E94D02310924D
:1027A000D7061092D6061092D9061092D80610922B
:1027B000DB061092DA061092DD061092DC0683E941
:1027C00094E0E4E0F2E0DF019C011D9221503040F2
:1027D000E1F71092C9011092C801C6ECD1E086E978
:1027E00091E09983888342E164E071E0CE010E9428
:1027F0000F198EE991E099838883DF91CF91089535
:1028000080910606882331F15D9A61E081E10E94A2
:102810007F261092090610920A0610920506109261
:10282000040680E8E7E1F6E0DF011D928A95E9F70A
:1028300080910206811105C04FEB59E06AE778E10B
:1028400004C04AE35FE065E973E184E092E00E943E
:10285000EB0A2AC060E081E10E947F2610920C06FC
:102860008DE997E00E94CF27811117C08FEF9FEF6E
:1028700090931206809311069093100680930F0692
:1028800013C080832F5F20930A0627FF06C0109293
:10289000100610920F0610920A068DE997E00E942A
:1028A000182797FF04C05D9A80E090E008955D9836
:1028B00020910F06309110062F5F3F4F3093100686
:1028C00020930F0620910A06E22FF0E0E95EF94F0F
:1028D0008A309105B1F6108281E090E00895EF9280
:1028E000FF920F931F93CF93DF9384E092E00E94B7
:1028F0000014181619060CF0D0C000910A06033017
:1029000058F0E7E1EE2EE6E0FE2EC0E0D0E080E0F9
:1029100010E0015011090BC020E030E04CE451E020
:102920006FEF7FEF84E092E00E94C811DECFC01706
:10293000D1073CF4D7016D917D010E94B71121961A
:10294000F6CF10920A06FE01E95EF94F2081332787
:1029500027FD309528272F733327232B11F083E48D
:102960008BC0108280911706806280931706803793
:10297000C9F08337B9F080910306882309F47BC03E
:1029800080911706823709F443C034F4863609F47F
:102990006DC0803731F16FC0833781F0873709F41C
:1029A00040C069C0A9E1B6E0EFE3F6E08D918F7316
:1029B000819326E0E335F207C9F7E2CF84E1EFE344
:1029C000F6E0A5E0B2E001900D928A95E1F788EE7D
:1029D00093E0E9E1F2E0DF019C011D9221503040DB
:1029E000E1F76CED75E080E090E00E94792544E12C
:1029F00050E06FE376E085E092E00E94742E892B30
:102A000021F481E08093030639C01092030633C09D
:102A10001092190627E136E049E152E068EE73E0D2
:102A200032C081E080930206809118068F7038E7EB
:102A30008302C0011124883E43E09407FCF49C010A
:102A40002C0F3D1F283E334024F0C8EED3E0C81BB6
:102A5000D90BC330D10594F0AE014250510969E160
:102A600076E0875E9D4F0E94812E08C084E092E050
:102A70000E946F1203C08CE48093170620E030E0C0
:102A800040E050E0BE0184E092E0DF91CF911F91E1
:102A90000F91FF90EF900C94C811DF91CF911F918F
:102AA0000F91FF90EF9008954F925F926F927F92F7
:102AB0008F929F92AF92BF92CF92DF92EF92FF924E
:102AC0000F931F93CF93DF9300D0CDB7DEB755247C
:102AD0005394F8EEEF2EF3E0FF2EA5E0CA2EA2E00D
:102AE000DA2EB4E14B2E19E1A12E12E0B12E84E0D2
:102AF00092E00E940014181619060CF0DCC167E180
:102B000076E08DE997E00E943E29E7E1F6E001904A
:102B10000020E9F7E851F6408091110690911206E5
:102B2000E80FF91FF0931206E09311064091040696
:102B30005091050680911706853409F49BC04CF42A
:102B4000813409F455C0843409F46CC08F3361F4C6
:102B50008AC0873509F493C01CF4853551F004C050
:102B6000843659F1853751F0ECE7F1E001E010E0EF
:102B7000C7C0109205061092040616C11416150659
:102B800034F4415051095093050640930406809156
:102B9000040690910506382F292F181619062CF0D7
:102BA0009093050680930406FFC00197FC01EC5F3B
:102BB000FD4F4689413079F751C0FA01EC5FFD4F76
:102BC0008589882311F04F5F5F4F483E23E052070D
:102BD0000CF0EAC0FA01EC5FFD4F8589882309F407
:102BE000E3C0813081F75093050640930406DCC0B2
:102BF00050920206F50101900020E9F78F010A5179
:102C00001240093DF3E01F070CF0CEC063E571E010
:102C1000C801875E9D4F0E94A32E10930506009366
:102C20000406C2C0FA01EC5FFD4F8589882319F0C4
:102C3000CA01019601C0CA01342F252F883E43E006
:102C4000940764F4FC01EC5FFD4F4589442331F0A7
:102C5000413011F4382F292F0196F0CF309304061C
:102C600020930506A1C06CED70E08DE997E00E940D
:102C70001B299AC084E092E00E94110E95C05092E8
:102C80000206F601242D11922A95E9F740910A06D1
:102C900050E0E5E0F2E021E030E0241735070CF0E9
:102CA00083C0D901A95EB94F1C9181E090E0612FEA
:102CB00070E02F5F3F4F241735075CF4D901A95E00
:102CC000B94FAC91BB27A7FDB0956A177B0709F4F4
:102CD000ECC0153541F0153721F0143429F480612A
:102CE00003C0806201C08063819382E0E931F8070C
:102CF000A1F65AC00F5F1F4F0A30110509F454C0E6
:102D000091919813F7CF0130110511F04F5F5F4F8C
:102D1000483EF3E05F070CF047C0FA01EC5FFD4F5F
:102D20004F012589822F90E08017910711F4BA0195
:102D30000AC0223058F718C0FB01EC5FFD4F8589AF
:102D400090E00A9734F06F5F7F4F683EF3E07F07B3
:102D500099F7675E7D4FCA01875E9D4F49835A830D
:102D60000E94A32E5A8149815092020680910A0640
:102D70008230D0F09A01275E3D4F3901FA01E80F09
:102D8000F11DCF01A7014E1B5F0BB901875E9D4F5F
:102D90000E948A2E40910A0650E067E176E0C30166
:102DA0000E94812EF401058B8091110690911206EC
:102DB0000796909312068093110684E092E00E9499
:102DC0008C1167ED70E08DE997E00E941B296091FE
:102DD0000D0670E04AE050E08DE997E00E94E0299E
:102DE00064ED70E08DE997E00E941B298090040655
:102DF0009090050600E010E038EE831633E093066D
:102E00000CF041C0F401EC5FFD4F25892223D9F17C
:102E1000213029F4012BB9F501E010E00EC02A3071
:102E200000F56CE28DE997E029830E94DE2660E2DE
:102E30008DE997E00E94DE262981E22FF0E0E55837
:102E4000FE4F60818DE997E00E94DE266AE38DE9FE
:102E500097E00E94DE26809111069091120602965C
:102E60000AC0622F8DE997E00E94DE26809111064C
:102E700090911206019690931206809311062FEFFF
:102E8000821A920AB9CF61ED70E08DE997E00E9455
:102E90001B298091110690911206029690931206BA
:102EA0008093110610920A0622CE01968F3091056A
:102EB00009F0FFCE0ECF0F900F90DF91CF911F91B1
:102EC0000F91FF90EF90DF90CF90BF90AF909F90C9
:102ED0008F907F906F905F904F9008956F927F9248
:102EE0008F929F92AF92BF92CF92DF92EF92FF921A
:102EF0000F931F93CF93DF935C01FC01FC5FC081B4
:102F0000D1815D9860E081E10E947F2687E697E0AD
:102F10000E949A21F501EC0FFD1F8589813061F433
:102F20002196C83E83E0D80738F4F501EC0FFD1F69
:102F3000858990E00897A4F76E01F8EECF16F3E0CC
:102F4000DF0628F008E5602E01E0702E0DC0F501C7
:102F5000EC0DFD1D85898823A9F3EFEFCE1ADE0A5B
:102F6000ECCF8C159D0564F0F0E66F16F1E07F065E
:102F700009F49DC0F30121913F0130E0CE01F1CF72
:102F8000F501E80FF91F4589552747FD5095019632
:102F90002417350731F74C01E12CF12C00E010E04B
:102FA0008C149D0434F4F501E80DF91D85898A30EF
:102FB00040F41E141F04C4F687E697E00E947522B1
:102FC000D3CF0130110561F00230110559F0011520
:102FD000110509F068C08C3509F460C0682F2EC057
:102FE00000E010E08A3589F190F48A3331F120F461
:102FF000803391F56BEC22C08B3329F1803461F57D
:1030000087E697E00E947522E12CF12C4CC08C35AC
:1030100071F050F08D3509F444C08A37E9F46CE260
:1030200071E080E090E015C002E010E03CC06CE58B
:1030300087E697E00E945F2234C06CEC87E697E059
:103040000E945F2230C06DECF9CF68EE73E080E043
:1030500090E00E94792527C09FEC980F993020F4CA
:10306000682F6F706F53EACFE82FEF71F0E0E05AEE
:10307000FE4F60816623B9F085FF08C087E697E0C0
:103080000E94A921FFEFEF1AFF0A0DC087E697E023
:103090000E94172281E0E81AF10805C001E010E063
:1030A00002C000E010E0EFEF8E1A9E0A79CF68ECC4
:1030B00070E080E090E00E94792587E697E00E942A
:1030C0009B2168EC70E080E090E00E9479255D9A99
:1030D00061E081E1DF91CF911F910F91FF90EF901F
:1030E000DF90CF90BF90AF909F908F907F906F9028
:1030F0000C947F2660910606623209F446C028F4DB
:103100006032C1F0613229F150C06432F1F108F44B
:1031100040C0653209F049C01092090680E8E7E135
:10312000F6E0DF011D928A95E9F740EE5FE06DE978
:103130007CE037C08091040690910506019797FDC9
:1031400007C0FC01EC5FFD4F25892130B9F717C09E
:1031500008958091040690910506FC01EC5FFD4FF7
:103160002589222309F45AC00196883E23E092075C
:1031700058F4FC01EC5FFD4F25892230A8F79093AD
:103180000506809304063DC0089584E092E00C9407
:103190006E17109202061092090642E75FE063E4A0
:1031A00071E184E092E00C94EB0A10920506109213
:1031B000040680E090E020E030E070E0A0E0462FE0
:1031C0004F7050E003C0782FA92F0196883EB3E0DE
:1031D0009B0700F5FC01EC5FFD4FE589EE23A9F0AC
:1031E000E13099F72F5F3F4F2417350761F7909330
:1031F00005068093040664FF04C084E092E00E9408
:103200006E1784E092E00C948C1170930406A093E6
:103210000506F7CF90930506809304060895FC01F8
:1032200013AE14AE15AE04960C94121F0F93FC014E
:103230000150040F84A996A9941718F0081728F4D0
:1032400002C0081750F0041740F42150260F83A93C
:1032500095A9961720F4281720F480E007C02817B6
:1032600020F481E0261710F0F8CF81E00F91089547
:10327000DB011496ED91FC91159720E030E061E0C0
:103280000994DB011496ED91FC91159720E030E054
:1032900063E00994DB011496ED91FC91159720E011
:1032A00030E040E064E00994DB011496ED91FC917C
:1032B000159720E030E041E064E00994DB011496CA
:1032C000ED91FC91159720E030E062E00994DB017C
:1032D0001496ED91FC91159720E030E065E009949B
:1032E000DB011496ED91FC91159766E00994AF927D
:1032F000BF92CF92DF92EF92FF920F931F93CF93E3
:10330000DF931F92CDB7DEB75C018B017A0180E0BD
:10331000F7014491811109C04F3FD9F1B801C501AE
:103320000E94671981112EC039C04F3FB9F34E3F3B
:10333000B9F1403F38F5403E30F04F70B801C5015B
:103340000E945E191FC0403D30F04F70B801C501AA
:103350000E94411917C0403CB8F0B801C50149832B
:103360000E944A1949814295407F4E5FC42ED12C5C
:10337000C6010E94E41AB801C5010E945419C60191
:103380000E94E41A80E006C047FDFCCF842F90E045
:10339000F7CF81E0FFEFEF1AFF0ABACF80E001C05C
:1033A00081E00F90DF91CF911F910F91FF90EF90EF
:1033B000DF90CF90BF90AF900895CF93DF93EC0153
:1033C0008BA5882381F088E70E94901A882369F0F2
:1033D0008EA1811106C00E94C11A882331F01BA65C
:1033E00002C080E4F8CF81E001C080E0DF91CF919E
:1033F00008951F93CF93DF93142FE9016330B9F041
:1034000050F4613079F0623009F043C0FC0146A30A
:1034100021E023A73EC0663001F1673059F16530E5
:10342000C1F50EC0FC0186A50E945E1A32C0FC01E7
:1034300016A221E023A741112CC00E94DD1A29C049
:103440000E94DD19811103C00E94DD1A24C0812F62
:103450000E94C11A81111DC0F7CF0E94DD19882377
:1034600099F31123B1F089910E94C11A882361F365
:103470001150F7CF0E94DD19882331F3112349F051
:10348000FE0184910E94C11A882329F021961150CF
:10349000F5CF81E001C080E0DF91CF911F910895C9
:1034A0009091E006911104C08093E0066093DE06DF
:1034B00008951092E0061092DE0608958093DF06CC
:1034C0001092B90084FF02C08CE001C088E48093B0
:1034D000B8000C94591ACF93DF9300D0CDB7DEB764
:1034E00020ED37E03A8329839091BC00982391F432
:1034F00029813A81232B49F48091DF0681FD0AC09E
:1035000081E00E94501A80E006C029813A81215052
:103510003109E8CF81E00F900F90DF91CF910895AE
:10352000CF93C82F84EA8093BC0061E080E80E94BA
:103530006B1A882309F19091B900987F983021F097
:10354000903111F061E015C0C093BB0084E8809316
:10355000BC0062E080E80E946B1A882369F08091C9
:10356000DF0681FD0BC08091B900887F883131F082
:1035700062E082E00E94501A80E001C081E0CF91B9
:1035800008958093BB0084E88093BC0063E080E8EA
:103590000E946B1A882369F08091DF0681FD0BC0C1
:1035A0008091B900887F883231F063E082E00E9428
:1035B000501A80E0089581E0089584E98093BC006A
:1035C00064E080E10C946B1A2EE93FE0009729F04B
:1035D000F9013197F1F70197F9CF0895BF92CF9292
:1035E000DF92EF92FF920F931F93CF93DF938C01A3
:1035F000EB01B42E690180E14817B1F1841770F036
:10360000EAE04E133CC042E0C8010E94381946EB84
:1036100051E0BE01C8010E94771931C0F1E14F1796
:1036200031F185E148132BC0EA80FB804EEA51E07E
:10363000C8010E947719F7014481406BBE01C8019F
:103640000E94671941E0BE01C8010E945E19AE01E7
:10365000B801C7010E94C11F882301F140E0BE01EB
:10366000C8010E9441190BC045EA51E002C04AE975
:1036700051E0BE01C8010E94771981E010C0960197
:103680004B2DBE01C801DF91CF911F910F91FF908B
:10369000EF90DF90CF90BF900C94392080E0DF91C5
:1036A000CF911F910F91FF90EF90DF90CF90BF903F
:1036B0000895FC01E60FF11D849190E0982F882772
:1036C0003196E4918E0F911D0895FC018491089527
:1036D0000E94651B882311F0823011F486E0089562
:1036E00083E0089580E0089566E00C94591B68E03B
:1036F0000C94591B0A96FC01849108950B96FC01C9
:1037000084910895BF92CF92DF92EF92FF920F9330
:103710001F93CF93DF93EC01E62E0C811D81C8012E
:103720000E94651BF82E8C819D810E94681BB82E1B
:1037300021E0F21619F0CC24CA9402C05FE0C52E35
:103740008C819D810E947A1BF82E8C819D810E9424
:103750007E1BD82E8C819D810E94771BE0E6EE15A2
:1037600038F4009729F0080F191F41E6F42E10C015
:103770008C819D810E94741BF0E4FE1538F4009743
:1037800029F0080F191F31E4F32E02C00F5E1F4FFE
:10379000DE1440F4188A1B8A1C8A198A1A8A80E06F
:1037A00090E050C0DF14B0F32B2D30E0F80184918D
:1037B0008F3F19F40F5F1F4F40C0FE1036C08C8141
:1037C0009D810E94651B98012F5F3F4FF801882360
:1037D00011F0823091F484918B8BF90124912C8B20
:1037E000F8013396E491E88BF8013496E491E98B83
:1037F000F8013596E491EA8B16C09491892F8F7069
:1038000082508A8B92959F70998BF9012491822F17
:103810008F708C8B22952F702B8BF8013296E49150
:10382000E295EF70E88BC8010DC0F8013296E49183
:10383000EC210E0F111D020F131FFD1409F4AACF66
:10384000F394B4CFDF91CF911F910F91FF90EF9040
:10385000DF90CF90BF90089540E0E42FF0E0EE0FAE
:10386000FF1FE050FF4F208131812115310529F0E4
:103870008217930729F04F5FF0CF80E090E0089522
:1038800081E090E008954F925F927F928F929F9295
:10389000AF92BF92CF92DF92EF92FF920F931F935E
:1038A000CF93DF931F92CDB7DEB72C01162F742E66
:1038B000FC018481958129830E942C1C2981892BFC
:1038C00019F0203C08F02051622FC2010E94821B97
:1038D0006C01009709F43EC0F201848195810E9439
:1038E000681BF82EF201838804899188910E8289E1
:1038F000781A172D101B282D412F692DC2010E9407
:103900001619882321F1CF0CD11CF7E08F0E869475
:1039100086948694A82CB12C1715C9F0392D760100
:103920008E2D8C19881578F4F701049120E0412F31
:10393000632FC20139830E944B1FFFEFEF1AFF0A6A
:103940003981385FEDCFCA0CDB1C1F5FE5CFF20178
:10395000808901C080E00F90DF91CF911F910F917E
:10396000FF90EF90DF90CF90BF90AF909F908F909F
:103970007F905F904F9008950F931F93CF93DF93A5
:1039800000D01F92CDB7DEB78C01DC015596ED91CA
:10399000FC9156972B834A83698309954A81480F86
:1039A0002B816981C8010F900F900F90DF91CF910B
:1039B0001F910F910C94431CAF92BF92DF92EF9234
:1039C000FF920F931F93CF93DF9300D0CDB7DEB755
:1039D0008C01E62EF42EDC015596ED91FC91569764
:1039E00029833A830995F80E2981A22E3A81B32EB4
:1039F000D12CF50121915F01222341F04F2D6E2D35
:103A0000C8010E94431CE80ED80EF3CF8D2D0F90F5
:103A10000F90DF91CF911F910F91FF90EF90DF906A
:103A2000BF90AF900895DF92EF92FF920F931F9394
:103A3000CF93DF93EC01F62EE42E8901ED89FE8908
:103A40000995E80ED12CF8012491222351F04E2D36
:103A50006F2DCE010E94431CF80ED80E0F5F1F4F32
:103A6000F2CF8D2DDF91CF911F910F91FF90EF90AD
:103A7000DF900895DC0114968D919C911597009725
:103A800009F43FC057962C915797FC01211108C0AB
:103A90003596E4915896EC935897FC013C9611C0EA
:103AA000213041F43F96E4915896EC935897FC01ED
:103AB000709607C03D96E4915896EC935897FC0198
:103AC0003E96849159968C93599758968C91589715
:103AD000992787FD909559962C915997821B9109AA
:103AE00027FD93955A962C915A97203441F0829F46
:103AF000C0011124F6E096958795FA95E1F75B965B
:103B00008C93089522E73BE1FC01368B258B0895C9
:103B1000CF93DF93EC018C819D818617970749F045
:103B20007D836C83CE010E943A1D82E79BE19E8BD0
:103B30008D8BDF91CF9108958F929F92BF92CF92FC
:103B4000DF92EF92FF920F931F93CF93DF931F9219
:103B5000CDB7DEB74C01162FF42E261718F4D62E4B
:103B6000D21A02C0D22ED61A0F1518F4EF2CE01A72
:103B700002C0E02EEF18DE1428F08E2DED2CD82E8A
:103B8000B12C08C0822F202F082F812F1F2DF82E37
:103B9000BB24B394211730F48F2DF02E082F812FE2
:103BA000122F282FCE2CC694F01610F401E001C07D
:103BB0000FEF2F3F89F42EEF0FC0B11010C04F2D23
:103BC000612FC40129830E94431F2981CD18C7FE9C
:103BD00002C0F00ECE0C1F5F211778F703C0412FF3
:103BE0006F2DEFCF0F90DF91CF911F910F91FF902D
:103BF000EF90DF90CF90BF909F908F9008951F938C
:103C0000CF93DF93EC011D821C821F821E821986D6
:103C100081E0888782E28A871F861E8680E090E0A6
:103C20002FEFFE01E80FF91F23A301968E309105B7
:103C3000C1F711E018A3CE010E94821D1F8B188EC0
:103C4000198E80E48A8F1B8E85E791E29AAB89AB4F
:103C5000DF91CF911F910895DB01ED91FC910994C3
:103C6000EF92FF921F93CF93DF9300D0CDB7DEB7D3
:103C70007C01DC01D196ED91FC91D29782E06983C1
:103C80007A83099520E030E04AE069817A81C701B2
:103C90000E942C1E182FD701D196ED91FC91D2973E
:103CA00083E00995D701D196ED91FC91D29780E000
:103CB0000995812F0F900F90DF91CF911F91FF9069
:103CC000EF9008950F931F93CF93DF93EC018B0137
:103CD000E9A9FAA982E00995E9A9FAA981E009957B
:103CE00020E030E044E1B801CE010E942C1E9E018C
:103CF0002D5C3F4F47E1B801CE010E942C1EE9A97F
:103D0000FAA980E0DF91CF911F910F910994FF9262
:103D10000F931F93CF93DF93EC018B01E9A9FAA9CD
:103D200082E00995E9A9FAA981E0099520E030E04F
:103D300045E1B801CE010E942C1EF82E882341F0E7
:103D40009E012D5C3F4F47E1B801CE010E942C1E21
:103D5000E9A9FAA980E009958F2DDF91CF911F91F4
:103D60000F91FF900895FC01448F258F9C01245EE4
:103D70003F4F42E30C942C1ECF93DF931F92CDB79D
:103D8000DEB79E012F5F3F4F46E40E942C1E8981C3
:103D90000F90DF91CF910895CF93DF931F92CDB70E
:103DA000DEB79E012F5F3F4F47E40E942C1E8981A2
:103DB0000F90DF91CF91089520E030E048E40C941B
:103DC0002C1ECF93DF93EC016A817B810E94BC1E85
:103DD00088836A817B81CE010E94CC1E89836A819F
:103DE0007B81CE010E94DC1E8B879E012D5C3F4FA4
:103DF0006A817B8147E1CE01DF91CF910C942C1E2B
:103E0000CF93DF93EC016A817B810E94301E88236F
:103E100029F0CE010E94E11E81E001C080E0DF9127
:103E2000CF910895EF92FF920F931F93CF93DF935B
:103E30001F92CDB7DEB77C018B0149830E94FF1D25
:103E4000F70113830283498146A7C7010F90DF91D1
:103E5000CF911F910F91FF90EF900C94001FFC01E8
:103E6000628173810C94621ECF93DF93EC01EE8527
:103E7000FF85309709F009956A817B81CE01DF913A
:103E8000CF910C94871E362F242FFC016281738101
:103E9000432F0C94B31E0F93FC0182819381648F96
:103EA000458F278F068F9F01245E3F4F4BE3BC0158
:103EB000CF010F910C942C1EFC0160A30895FC010E
:103EC000128280818150838314820895FC012081B5
:103ED0008281820F82839181891760F484818F5F50
:103EE00084838381820F891710F08FEF890F83837A
:103EF00081E0089580E00895DC011696ED91FC9133
:103F0000179715968C919F01280F311DC9011192A9
:103F1000E817F907E1F70895FC0191E0838186171E
:103F200008F490E021E0461708F020E0322F392B0A
:103F300081E05281451708F480E083239223892B86
:103F40000895DC01FB01108212968C9112978183F7
:103F500015968C9115978150828313968C9183834B
:103F60000895FB0141812381213029F0233031F470
:103F700068EF640F04C0642F485F01C0642F0C9485
:103F80008C1FFC01CB01BA012681378145810C943D
:103F90007019DC011696ED91FC91179712968C9191
:103FA000481B477081E090E0042E01C0880F0A94FE
:103FB000EAF7E60FF11D3081222311F0832B02C0B6
:103FC0008095832380830895FB014181DC01129653
:103FD0002C911297421768F013962C91139724177F
:103FE00040F0608115962C91621718F424810C948E
:103FF000C91F0895CF92DF92FF920F931F93CF9323
:10400000DF9300D0CDB7DEB78C016B01FB01F280EE
:104010008381813039F070F0823039F0833041F0A3
:1040200020E001C021E030E007C020E03FEF04C005
:104030002FEFF9CF20E031E0F7FE08C0B601C8014C
:1040400029833A830E94E41F3A812981F601808105
:10405000830F80838181820F8183FF0C69F70F902A
:104060000F90DF91CF911F910F91FF90DF90CF9034
:1040700008950F931F93CF93DF938901FB01C281B2
:10408000D3814233F9F068F4453109F1473141F108
:10409000443181F5CE010E947C1FCE010E945F1F3A
:1040A00029C0463411F1473411F14B3319F5B901E8
:1040B000CE010E94B11F8823E9F0B801CE010E9411
:1040C000FA1F18C0B901CE010E94E41F13C0CE012F
:1040D0000E94661F882381F0CE010E947C1F0AC0C7
:1040E000B901CE010E94A11F05C08D8101C0898147
:1040F000F801808381E001C080E0DF91CF911F91C2
:104100000F910895AF92BF92DF92EF92FF920F93BB
:104110001F93CF93DF931F92CDB7DEB75C01E62EDE
:10412000F42E122F322FD62ED20E6D2D631B383067
:1041300050F00FEF20E04F2DC50139830E944B1F37
:1041400039813850F2CF612F687F6E0D177079F08A
:1041500087E081278F5F87700FEF10E001C0000FAD
:104160008A95EAF720E04F2DC5010E944B1F0F9062
:10417000DF91CF911F910F91FF90EF90DF90BF9053
:10418000AF900895AF92BF92DF92EF92FF920F939C
:104190001F93CF93DF931F92CDB7DEB75C01F62E4E
:1041A000E42E122F322FD42ED20E4D2D431B383039
:1041B00050F00FEF21E06F2DC50139830E944B1F96
:1041C00039813850F2CF412F487F4E0D177079F06A
:1041D00087E081278F5F87700FEF10E001C0000F2D
:1041E0008A95EAF721E06F2DC5010E944B1F0F90C1
:1041F000DF91CF911F910F91FF90EF90DF90BF90D3
:10420000AF900895DF92EF92FF920F931F93CF9399
:10421000DF93EC01162FF42EE22ED02E0E941619F9
:10422000882319F12E2D4F2D612FCE010E9482205F
:104230002D2D4F2D612FCE010E94C2206FEF6E0DEC
:10424000610F2D2D4F2DCE010E94C2204FEF4D0D3D
:104250004F0D2E2D612FCE01DF91CF911F910F9128
:10426000FF90EF90DF900C948220DF91CF911F910F
:104270000F91FF90EF90DF900895EF92FF920F93D0
:104280001F93CF93DF93EC01F62EE22E142F040F31
:104290002E2D412F6F2DCE010E9482201F5F011312
:1042A000F7CFDF91CF911F910F91FF90EF9008957D
:1042B000DF92EF92FF920F931F93CF93DF93EC0166
:1042C000162FF42EE22E0E941619882331F02E2D7F
:1042D0004F2D612FCE010E943D21DF91CF911F9183
:1042E0000F91FF90EF90DF9008950895FC011382E5
:1042F000128226EA31E03183208380917307811195
:1043000013C0109262071092610784EF90E19093BE
:104310006407809363078FE290E090936607809331
:10432000650781E0809373070E94C22361E677E00E
:104330000C94532308950895CF93DF93EB010E94CB
:10434000C22328E030E0AE0162E0DF91CF910C940F
:104350007023CF93DF93DC01683818F0E8E7E60FAD
:1043600025C0E62FF0E067FF11C0E058F10981E0B9
:1043700090E001C0880FEA95EAF714969C91149793
:10438000982B14969C931497E0E010C0ED5DFE4EC0
:10439000E491EE2309F440C0E7FF08C014968C9125
:1043A0001497826014968C931497EF7716968C91DD
:1043B00016978E1741F117968C9117978E1719F152
:1043C00018968C9118978E17F1F019968C91199771
:1043D0008E17C9F01A968C911A978E17A1F01B961A
:1043E0008C911B978E1779F080E090E0ED01C80F5B
:1043F000D91F2E81211102C0EE8305C0019686309F
:104400009105A1F709C0BD016C5F7F4FCD010E94EE
:104410009C2181E090E008C081E090E013969C939D
:104420008E93129780E090E0DF91CF9108956838E5
:1044300018F0E8E7E60F25C0E62FF0E067FF12C0AE
:10444000E058F10921E030E001C0220FEA95EAF7D7
:104450002095DC0114963C911497322314963C93DA
:10446000E0E00FC0ED5DFE4EE491EE2329F1E7FFA1
:1044700008C0DC0114962C9114972D7F14962C9370
:10448000EF7720E030E0EE2351F0DC01A20FB31F04
:1044900016964C9116974E1302C016961C922F5FDB
:1044A0003F4F2630310579F7BC016C5F7F4F0E948A
:1044B0009C2181E090E0089580E090E00895FF92D3
:1044C0000F931F93CF93DF93EC01F62E0E94A92147
:1044D0008C016F2DCE010E941722C8019927DF9110
:1044E000CF911F910F91FF900895FC0116821782C2
:1044F00010861186128613861482BC016C5F7F4F72
:104500000C949C2187E697E00C947621FB0128E42B
:10451000208329E4218324E42283DC011D962C914D
:104520001D972F702F5B23831D968D919C911E9755
:1045300024E0969587952A95E1F78F708F5B8483A9
:1045400085E00895CF93DF93CDB7DEB769970FB6B7
:10455000F894DEBF0FBECDBFFC01DB018C918F5FF5
:104560008C93BE016F5F7F4F89E1DB011D928A95BD
:10457000E9F799E0998384E08A8321E02D8383E041
:104580008E839A8791E29B872C872D872F8792E2D3
:10459000988B97E09B8B95E09C8B8E8B80E490E0D2
:1045A000988F8F8B298F82818B8395858685998BB8
:1045B0008A8B838180688D8B49E150E080E00E9486
:1045C000C52B69960FB6F894DEBF0FBECDBFDF9145
:1045D000CF910895DC01FB0112962C91129730E0E7
:1045E0008481958128173907D1F491818081813A9E
:1045F00031F481E0913091F0933089F411C081322F
:1046000071F49B3021F482811F968C9305C09A30FF
:1046100031F4828150968C9381E00895089580E072
:104620000895EF92FF920F931F93CF93DF937C0136
:10463000FB018081813871F58381823259F5D70180
:1046400012968C91129790E02481358128173907B2
:1046500009F51B96CD91DC911C9700E010E02097A6
:1046600089F04C815D816A817B8180E80E94C52B45
:104670008F3FBFEF9B0759F0080F191F0990D88192
:10468000C02DEDCF81E0F7018787C80105C08FEF0E
:104690009FEF02C080E090E0DF91CF911F910F91DA
:1046A000FF90EF900895FC01A385B485109719F44D
:1046B0007487638709C08D919C911197009711F0C1
:1046C000DC01F9CF6D937C9385859685DB0114968B
:1046D0002D913C911597820F931F9687858708959A
:1046E000AF92BF92CF92DF92EF92FF920F931F9300
:1046F000CF93DF931F92CDB7DEB77C0169836A0148
:10470000590141E050E0BE016F5F7F4FFC018381A2
:104710000E942A2B8C0197FD0BC0F7018381A50114
:10472000B60180640E942A2B97FD02C0800F911F62
:104730000F90DF91CF911F910F91FF90EF90DF903D
:10474000CF90BF90AF900895CF93DF93EC0121E01D
:104750002C832D830A969F838E83198618868EEA72
:1047600091E0998388831C861B861E861D862F8771
:10477000288B81EC8A870E94C928BE01DF91CF91E6
:104780000C94822880918C07811107C08BE797E0F9
:104790000E94A42381E080938C078BE797E0089523
:1047A000CF92DF92FF920F931F93CF93DF931F92CD
:1047B000CDB7DEB76C01F62E8A0122E330E0FC01B2
:1047C0003783268360E08F2D79830E944626F60189
:1047D000F0827981718328E532E03383228328EEE9
:1047E00033E035832483128E118E1486012B59F009
:1047F00021E030E0318720871386128661E08F2D1B
:104800000E947F2607C0F6011186108681E090E0A5
:1048100093878287F601108A1786128A118A148A72
:10482000138A168A158A108E178A0F90DF91CF91FE
:104830001F910F91FF90DF90CF900895FC0173833B
:1048400062830895FC01768765870895FC01708B6B
:1048500067870895FC01748B638B0895FC01768B48
:10486000658B0895CF92DF92EF92FF920F931F9383
:10487000CF93DF93EC0188810E94B5268C010E94C2
:104880004A25298D3A8D2115310579F42A853B85F4
:104890000217130709F0ABC021E030E03A8F298FEF
:1048A0006B8F7C8F8D8F9E8FA2C02130310509F0D8
:1048B00050C02885398502171307C9F40B8D1C8D4C
:1048C0002D8D3E8DAB01BC01401B510B620B730B58
:1048D0008E819F81AA2797FDA095BA2F4817590767
:1048E0006A077B0708F471C082E090E02FC02A8538
:1048F0003B850217130709F07AC00B8D1C8D2D8D97
:104900003E8DAB01BC01401B510B620B730B8C81C4
:104910009D81AA2797FDA095BA2F84179507A60712
:10492000B70708F064C081E08C87E989FA8930977D
:1049300009F00995EB89FC89309709F00995EF8911
:10494000F88D309709F0099586E090E09A8F898F6D
:104950004EC02230310501F5CB8CDC8CED8CFE8C09
:10496000DC01CB018C199D09AE09BF094A815B812D
:10497000662757FD6095762F481759076A077B070A
:1049800018F4ED85FE851EC08A859B8508171907DA
:1049900071F583E090E0DACF2330310541F488856A
:1049A00099850817190719F5EF85F8890BC0263086
:1049B0003105E9F4888599850817190749F41C869B
:1049C000ED89FE89309709F009951A8E198E0FC06E
:1049D00081E08C87EF89F88D309749F0DF91CF9196
:1049E0001F910F91FF90EF90DF90CF900994DF918E
:1049F000CF911F910F91FF90EF90DF90CF9008958E
:104A00001F920F920FB60F9211242F933F938F9303
:104A10009F93AF93BF938091950790919607A09134
:104A20009707B09198073091940723E0230F2D3713
:104A300020F40196A11DB11D05C026E8230F0296A2
:104A4000A11DB11D2093940780939507909396071D
:104A5000A0939707B09398078091990790919A0730
:104A6000A0919B07B0919C070196A11DB11D809359
:104A7000990790939A07A0939B07B0939C07BF91C7
:104A8000AF919F918F913F912F910F900FBE0F90FB
:104A90001F9018952FB7F89460919507709196071D
:104AA00080919707909198072FBF08953FB7F8948A
:104AB0008091990790919A07A0919B07B0919C07CC
:104AC00026B5A89B05C02F3F19F00196A11DB11D69
:104AD0003FBF6627782F892F9A2F620F711D811D86
:104AE000911D42E0660F771F881F991F4A95D1F7E5
:104AF00008958F929F92AF92BF92CF92DF92EF92E2
:104B0000FF926B017C010E9456254B015C01C11490
:104B1000D104E104F104F1F00E944B2E0E945625CD
:104B2000681979098A099B09683E734081059105D6
:104B300070F321E0C21AD108E108F10888EE880E6E
:104B400083E0981EA11CB11CC114D104E104F1043E
:104B500029F7DDCFFF90EF90DF90CF90BF90AF901F
:104B60009F908F900895789484B5826084BD84B5B9
:104B7000816084BD85B5826085BD85B5816085BD58
:104B8000EEE6F0E0808181608083E1E8F0E0108271
:104B9000808182608083808181608083E0E8F0E0B2
:104BA000808181608083E1E9F0E0808182608083A0
:104BB000808181608083E0E9F0E080818160808392
:104BC000E1ECF0E08081846080838081826080837A
:104BD000808181608083E3ECF0E08081816080836C
:104BE000E0ECF0E0808182608083E2ECF0E08081A4
:104BF00081608083EAE7F0E0808184608083808147
:104C000082608083808181608083808180688083EE
:104C1000089590E0FC013197EF30F105B0F5EA5AC4
:104C2000FF4F0C946E2E809180008F7703C080918F
:104C300080008F7D80938000089580918000877F21
:104C4000F9CF84B58F7702C084B58F7D84BD089578
:104C5000809190008F7707C0809190008F7D03C076
:104C600080919000877F8093900008958091C0008C
:104C70008F7703C08091C0008F7D8093C00008951E
:104C80008091C200877F8093C2000895CF93DF9305
:104C900090E0FC01EE53FE4E2491FC01EF51FE4EDC
:104CA0008491882349F190E0880F991FFC01E45E0C
:104CB000FD4EA591B491825F9D4EFC01C591D491AA
:104CC0009FB7611108C0F8948C91209582238C9332
:104CD000888182230AC0623051F4F8948C91322F7B
:104CE000309583238C938881822B888304C0F89429
:104CF0008C91822B8C939FBFDF91CF9108950F935E
:104D00001F93CF93DF931F92CDB7DEB7282F30E0EC
:104D1000F901ED55FE4E8491F901EE53FE4E1491CA
:104D2000F901EF51FE4E04910023C9F0882321F0D0
:104D300069830E9409266981E02FF0E0EE0FFF1FD2
:104D4000E25FFD4EA591B4919FB7F8948C916111EB
:104D500003C01095812301C0812B8C939FBF0F90BE
:104D6000DF91CF911F910F910895CF93DF93282F5B
:104D700030E0F901ED55FE4E8491F901EE53FE4EFF
:104D8000D491F901EF51FE4EC491CC2391F08111E1
:104D90000E940926EC2FF0E0EE0FFF1FE050FE4EC0
:104DA000A591B4912C912D2381E090E021F480E035
:104DB00002C080E090E0DF91CF910895CF93DF9320
:104DC0001F92CDB7DEB76983DC01ED91FC910280C3
:104DD000F381E02D41E050E0BE016F5F7F4F099508
:104DE0000F90DF91CF910895CF93DF93EC018C85E5
:104DF0009D8597FF05C082E00E94F92A9D878C87D8
:104E00008C859D85DF91CF91089583E00C948D2D45
:104E1000FC018485958597FD06C082E00E94A12A49
:104E200090E00196089582E00E94A12A90E0089502
:104E3000FC018485958597FD05C02FEF3FEF3587F1
:104E40002487089582E00C94F92ACF93DF93EC0134
:104E500080911D01882331F083E00E942A2B1816CF
:104E6000190634F081E090E09B838A8380E090E033
:104E7000DF91CF910895FC0120812E5F208342E4D1
:104E800050E06AE272E180E80C94C52BFC012181BC
:104E90008081813A59F4213209F04BC047E050E05B
:104EA00066E171E080E00E94C52B5EC0813209F0AE
:104EB00040C0233289F4838190E0982F8827328183
:104EC000832BA0E0B0E08093120190931301A09394
:104ED0001401B09315010FC0203239F467E070E07F
:104EE00086E191E00E94F62B09C0223221F48281F2
:104EF00080931D0103C02D7F2032B1F58091ED0715
:104F0000811103C0E0E0F8E002C0EEEFFAE080912A
:104F1000160190911701A0911801B0911901803BE1
:104F20009440A105B10511F580911D0180FF03C0DA
:104F30001DC080E00895EE3F2AE0F20731F0808145
:104F400091819093FF0A8093FE0A87E797E7918308
:104F500080832BE088E190E00FB6F894A8958093C9
:104F600060000FBE2093600081E0089588E10FB6D5
:104F7000F89480936000109260000FBEA895EE3FF9
:104F80008AE0F80739F08091FE0A9091FF0A918338
:104F90008083EACF1092FF0A1092FE0AE5CFCF93EA
:104FA000C0911D016AE070E080E090E00E947925E8
:104FB00081E0C11101C080E0CF9108951092A00757
:104FC00010929F0788EE93E0A0E0B0E08093A107E5
:104FD0009093A207A093A307B093A4078AEB91E054
:104FE00090939E0780939D078FEF9FEF9093AA0762
:104FF0008093A9070895EF92FF920F931F93CF9389
:10500000DF937B01FC01C281D38100E010E0209797
:1050100081F0E881F9810280F381E02DB701CE01B2
:10502000099597FD08C0080F191F0884D985C02D60
:10503000EECFC80102C08FEF9FEFDF91CF911F919C
:105040000F91FF90EF9008950F931F93CF93DF93ED
:105050008B01FC01C281D381209771F0E881F98135
:105060000480F581E02DB801CE010995009731F457
:105070000884D985C02DF0CF80E090E0DF91CF91FA
:105080001F910F9108950F931F93CF93DF938B017F
:10509000FC01C281D381209771F0E881F9810680FB
:1050A000F781E02DB801CE010995080F111D088484
:1050B000D985C02DF0CFF8011082DF91CF911F91DB
:1050C0000F9108950F931F93CF93DF938B01FC01F2
:1050D000C281D381209771F0E881F9810190F0813C
:1050E000E02DB801CE010995811106C00884D9854B
:1050F000C02DF0CF80E001C081E0DF91CF911F9102
:105100000F910895CF93DF93FC01DB012181149669
:105110008C91149790E0820F911D0897B4F5C2818D
:10512000D381209719F47383628308C08885998599
:10513000009711F0EC01FACFB987A8878081129609
:105140008C931297818113968C9313978081159677
:105150009C911597890F808380E014969C911497F9
:10516000891788F41696CD91DC911797C80FD11D39
:105170009881C181D0E0C25EDE4F988391819F5FAC
:1051800091838F5FEACF81E001C080E0DF91CF9112
:1051900008958091F20781110DC082E08093EE079F
:1051A00084E08093EF071092F1071092F00781E0FE
:1051B0008093F2078EEE97E00895CF92DF92EF9200
:1051C000FF920F931F93CF93DF937C016A01EB0152
:1051D00000E010E00C151D0571F06991D701ED910B
:1051E000FC910190F081E02DC7010995892B19F000
:1051F0000F5F1F4FEFCFC801DF91CF911F910F912C
:10520000FF90EF90DF90CF9008956115710581F0C8
:10521000DB010D900020E9F7AD0141505109461B1B
:10522000570BDC01ED91FC910280F381E02D099494
:1052300080E090E00895EF92FF920F931F93CF9339
:10524000DF938C017B01C0E0D0E0F701EC0FFD1F84
:105250006491662359F0F801A081B181ED91FC9130
:10526000C8010995892B11F02196EFCFCE01DF916E
:10527000CF911F910F91FF90EF9008950C94052905
:10528000DC01ED91FC910190F081E02D09948F9269
:105290009F92AF92BF92DF92EF92FF920F931F9374
:1052A000CF93DF93CDB7DEB7A1970FB6F894DEBFEB
:1052B0000FBECDBF7C01F42FD52ECB0119A2223019
:1052C00008F42AE08E010F5D1F4F822E912CA12C35
:1052D000B12C6F2F7D2DA50194010E944C2EF22F31
:1052E000D32ECA01015011096A3014F4E0E301C061
:1052F000E7E3E60FD801EC93232B242B252B49F76A
:10530000B801C7010E940529A1960FB6F894DEBF27
:105310000FBECDBFDF91CF911F910F91FF90EF9006
:10532000DF90BF90AF909F908F900895CF92DF92C3
:10533000EF92FF920F931F93CF93DF93EC016A01DB
:105340007B012115310579F4E881F9810190F08123
:10535000E02D642FDF91CF911F910F91FF90EF907F
:10536000DF90CF9009942A303105E9F477FF1AC015
:105370006DE20E9440298C0144275527BA014C193F
:105380005D096E097F092AE0CE010E944729800F3E
:10539000911FDF91CF911F910F91FF90EF90DF90C0
:1053A000CF9008952AE0B701A601CE01DF91CF91F9
:1053B0001F910F91FF90EF90DF90CF900C944729B1
:1053C0009A01AB01662757FD6095762F0C949629BC
:1053D000615030F02091F100FC0120830196F8CF5C
:1053E000289884E68093030808954091FE07509121
:1053F000FF072091FC073091FD0742175307B4F4D3
:105400009091E8009570E1F39091E80092FD19C049
:105410008093F1008091FE079091FF0701968F73B2
:105420009927892B19F48EEF8093E8008091FE076D
:105430009091FF0701969093FF078093FE0781E00C
:10544000089580E00895CF92DF92EF92FF920F933C
:105450001F93CF93DF931F92CDB7DEB7082F162F80
:10546000F42E862F880F8E5F99830E94F52983E0A2
:105470000E94F529E02EC02E9981D92E8C2D8E19EF
:10548000811798F4F601F7FE02C0849101C0808173
:105490000E94F529082F80E00E94F5298023FFEF64
:1054A000CF1ADF0A8111EACF01C081E00F90DF91AE
:1054B000CF911F910F91FF90EF90DF90CF900895C3
:1054C0008091D70081608093D70080EA8093D800D4
:1054D00089B5806189BD89B5826089BD09B400FE46
:1054E000FDCF61E070E080E090E00E94792580913E
:1054F000D8008F7C80618093D8008091E000807F0D
:105500008093E0000895CF93DF931F92CDB7DEB76D
:105510001982CE0101960E943B270E94C928BE0134
:105520006F5F7F4F0E94FB2789810F90DF91CF91A2
:1055300008952FB7FC012083F89467706093E90009
:105540000895CF93DF931F92CDB7DEB7682FCE01BA
:1055500001960E94992A8091F20099819FBF0F9035
:10556000DF91CF910895FF920F931F93CF93DF9315
:1055700000D0CDB7DEB7F62E8A01909102089923AC
:1055800011F057FF03C08FEF9FEF2BC0682FCE01A4
:1055900001967A830E94992A8091F20090E0A801F6
:1055A0007A81801791070CF4AC01EF2DF72FF40EE0
:1055B00084E6FE1639F02898809303089091F10054
:1055C0009193F7CF4115510521F08091F200882386
:1055D00021F089818FBFCA0104C08BE68093E80067
:1055E000F8CF0F900F90DF91CF911F910F91FF9007
:1055F0000895CF93DF931F92CDB7DEB741E050E01F
:10560000BE016F5F7F4F0E94B32A019719F4898111
:1056100090E002C08FEF9FEF0F90DF91CF91089540
:10562000CF93DF931F92CDB7DEB7682FCE010196DF
:105630000E94992A9091E800892F807295FF04C0FA
:105640009091F20080E4891B99819FBF0F90DF91B8
:10565000CF9108956F927F928F929F92AF92BF9257
:10566000CF92DF92EF92FF920F931F93CF93DF932E
:105670001F92CDB7DEB7782E7B01C42EB52E809158
:105680000208882369F0042F152F8AEFD82E872D62
:105690008072982E9AE3A92E872D8074882E11C0CF
:1056A0008FEF9FEF57C0872D0E94102B682E81111E
:1056B0000CC0DA94A9F361E070E080E090E00E9411
:1056C00079250115110579F73BC0282F30E0021725
:1056D00013070CF4602E672DCE0101960E94992AC3
:1056E0008091E80085FF29C0262D30E0021B130BB6
:1056F000992039F06A948FEF6816B1F01092F1009A
:10570000F9CFF701862D77FE07C0815058F09491AC
:105710009093F1003196F9CF815020F091919093C0
:10572000F100FACFE20EF31E8091E80085FF0FC072
:105730000115110511F481100AC089818FBFC1CFF5
:105740005D9884E6809304088C2D9B2D03C0A09265
:10575000E800F3CF0F90DF91CF911F910F91FF9051
:10576000EF90DF90CF90BF90AF909F908F907F9001
:105770006F9008951092E9001092FF071092FE07B3
:105780009093FD078093FC070895CF92DF92FF92DC
:105790000F931F93CF93DF9300D0CDB7DEB7F82ED2
:1057A0008A016B0101151105B1F0F601F7FE02C087
:1057B000849101C0808149835A830E94F529015058
:1057C0001109FFEFCF1ADF0A49815A818111EACF0F
:1057D0008FEF9FEF01C0CA010F900F90DF91CF9123
:1057E0001F910F91FF90DF90CF900895BF92CF92BD
:1057F000DF92EF92FF920F931F93CF93DF936C0191
:105800008B01EB013BEFB32E2097C1F07E01C13439
:10581000D1051CF020E4E22EF12C8091E80082FFFB
:10582000FCCFC8018C1B9D0B6E2D8C0D9D1D0E9405
:10583000E829B092E800CE19DF09E6CFC801DF9170
:10584000CF911F910F91FF90EF90DF90CF90BF907D
:1058500008951F920F920FB60F921124DF92EF92CC
:10586000FF920F931F932F933F934F935F936F93E9
:105870007F938F939F93AF93BF93EF93FF93CF93B8
:10588000DF93CDB7DEB76C97DEBFCDBF1092E900D6
:105890008091E80083FF23C168E0CE0145960E9415
:1058A000E82982EF8093E8003D8937FF05C08091A9
:1058B000E80080FFFCCF03C08EEF8093E800832FC9
:1058C000807609F0F0C02E894F89D88C21110CC048
:1058D000303829F4809101088093F10002C01092C1
:1058E000F1001092F100F4C0842F90E09D29213046
:1058F00049F43111EDC0019709F0EAC08091010827
:105900008D7F0AC0233059F43111E2C0019709F0AC
:10591000DFC080910108826080930108D9C02530E2
:1059200041F48091E80080FFFCCF40684093E300A1
:10593000CFC0263009F08DC0EB8CFC8C22E0D21257
:105940002CC080E090E00E94BA2B0E94832A99E04C
:105950008E010F5F1F4FF801292F11922A95E9F749
:105960009983DA8291E09E8390EA98879AEF9987EB
:105970002091FE073091FF07275F3F4F3C832B8329
:105980008D83C7010E94BA2B49E050E0B80180E046
:105990000E94C52B0E94832A9BC0C7010E94BA2B7C
:1059A0000E94C928BE016B5E7F4F0E942428009789
:1059B00019F00CF08DC090C081E0D8120EC08B8D14
:1059C0009C8D089719F481E08093FB078091FB0779
:1059D00081112FC06EE772E131C0E3E0DE127CC0BE
:1059E0008F89882349F1823029F440E860E18CE90D
:1059F00092E11CC0813029F440E86BE080E992E13B
:105A000015C0833009F068C00E94C9288E010F5F5D
:105A10001F4FB8010E944328F80101900020E9F7C8
:105A20003197E01BF10B40E06E2FC8010E94232A42
:105A30004DC06CE672E102C06DEA72E1611571055C
:105A400009F44AC0FB01449150E080E80E94C52B54
:105A50003FC0273009F440C0283021F481E0809312
:105A6000F10036C02930A1F53370B1F5EFE1F1E076
:105A700081E021E036E39081992361F08093E90091
:105A80002093EB0091919093EC003093ED008F5FA9
:105A9000873089F78EE78093EA001092EA008F89B9
:105AA0008093020815C08B8D9C8D0E94BA2B898D26
:105AB000811105C0CE0145960E94462707C00E946D
:105AC000C928BE016B5E7F4F0E946228882321F0A7
:105AD0008EEF8093E80003C081E28093EB006C9628
